{
	"MyNFT.sol": {
		"MyNFT": {
			"abi": [
				{
					"inputs": [],
					"stateMutability": "nonpayable",
					"type": "constructor"
				},
				{
					"anonymous": false,
					"inputs": [
						{
							"indexed": true,
							"internalType": "address",
							"name": "owner",
							"type": "address"
						},
						{
							"indexed": true,
							"internalType": "address",
							"name": "approved",
							"type": "address"
						},
						{
							"indexed": true,
							"internalType": "uint256",
							"name": "tokenId",
							"type": "uint256"
						}
					],
					"name": "Approval",
					"type": "event"
				},
				{
					"anonymous": false,
					"inputs": [
						{
							"indexed": true,
							"internalType": "address",
							"name": "owner",
							"type": "address"
						},
						{
							"indexed": true,
							"internalType": "address",
							"name": "operator",
							"type": "address"
						},
						{
							"indexed": false,
							"internalType": "bool",
							"name": "approved",
							"type": "bool"
						}
					],
					"name": "ApprovalForAll",
					"type": "event"
				},
				{
					"anonymous": false,
					"inputs": [
						{
							"indexed": true,
							"internalType": "address",
							"name": "previousOwner",
							"type": "address"
						},
						{
							"indexed": true,
							"internalType": "address",
							"name": "newOwner",
							"type": "address"
						}
					],
					"name": "OwnershipTransferred",
					"type": "event"
				},
				{
					"anonymous": false,
					"inputs": [
						{
							"indexed": true,
							"internalType": "address",
							"name": "from",
							"type": "address"
						},
						{
							"indexed": true,
							"internalType": "address",
							"name": "to",
							"type": "address"
						},
						{
							"indexed": true,
							"internalType": "uint256",
							"name": "tokenId",
							"type": "uint256"
						}
					],
					"name": "Transfer",
					"type": "event"
				},
				{
					"inputs": [],
					"name": "Max_Supply",
					"outputs": [
						{
							"internalType": "uint256",
							"name": "",
							"type": "uint256"
						}
					],
					"stateMutability": "view",
					"type": "function"
				},
				{
					"inputs": [
						{
							"internalType": "address",
							"name": "to",
							"type": "address"
						},
						{
							"internalType": "uint256",
							"name": "tokenId",
							"type": "uint256"
						}
					],
					"name": "approve",
					"outputs": [],
					"stateMutability": "nonpayable",
					"type": "function"
				},
				{
					"inputs": [
						{
							"internalType": "address",
							"name": "owner",
							"type": "address"
						}
					],
					"name": "balanceOf",
					"outputs": [
						{
							"internalType": "uint256",
							"name": "",
							"type": "uint256"
						}
					],
					"stateMutability": "view",
					"type": "function"
				},
				{
					"inputs": [
						{
							"internalType": "uint256",
							"name": "tokenId",
							"type": "uint256"
						}
					],
					"name": "getApproved",
					"outputs": [
						{
							"internalType": "address",
							"name": "",
							"type": "address"
						}
					],
					"stateMutability": "view",
					"type": "function"
				},
				{
					"inputs": [
						{
							"internalType": "address",
							"name": "owner",
							"type": "address"
						},
						{
							"internalType": "address",
							"name": "operator",
							"type": "address"
						}
					],
					"name": "isApprovedForAll",
					"outputs": [
						{
							"internalType": "bool",
							"name": "",
							"type": "bool"
						}
					],
					"stateMutability": "view",
					"type": "function"
				},
				{
					"inputs": [],
					"name": "name",
					"outputs": [
						{
							"internalType": "string",
							"name": "",
							"type": "string"
						}
					],
					"stateMutability": "view",
					"type": "function"
				},
				{
					"inputs": [],
					"name": "owner",
					"outputs": [
						{
							"internalType": "address",
							"name": "",
							"type": "address"
						}
					],
					"stateMutability": "view",
					"type": "function"
				},
				{
					"inputs": [
						{
							"internalType": "uint256",
							"name": "tokenId",
							"type": "uint256"
						}
					],
					"name": "ownerOf",
					"outputs": [
						{
							"internalType": "address",
							"name": "",
							"type": "address"
						}
					],
					"stateMutability": "view",
					"type": "function"
				},
				{
					"inputs": [],
					"name": "renounceOwnership",
					"outputs": [],
					"stateMutability": "nonpayable",
					"type": "function"
				},
				{
					"inputs": [
						{
							"internalType": "address",
							"name": "to",
							"type": "address"
						}
					],
					"name": "safeMint",
					"outputs": [],
					"stateMutability": "payable",
					"type": "function"
				},
				{
					"inputs": [
						{
							"internalType": "address",
							"name": "from",
							"type": "address"
						},
						{
							"internalType": "address",
							"name": "to",
							"type": "address"
						},
						{
							"internalType": "uint256",
							"name": "tokenId",
							"type": "uint256"
						}
					],
					"name": "safeTransferFrom",
					"outputs": [],
					"stateMutability": "nonpayable",
					"type": "function"
				},
				{
					"inputs": [
						{
							"internalType": "address",
							"name": "from",
							"type": "address"
						},
						{
							"internalType": "address",
							"name": "to",
							"type": "address"
						},
						{
							"internalType": "uint256",
							"name": "tokenId",
							"type": "uint256"
						},
						{
							"internalType": "bytes",
							"name": "data",
							"type": "bytes"
						}
					],
					"name": "safeTransferFrom",
					"outputs": [],
					"stateMutability": "nonpayable",
					"type": "function"
				},
				{
					"inputs": [
						{
							"internalType": "address",
							"name": "operator",
							"type": "address"
						},
						{
							"internalType": "bool",
							"name": "approved",
							"type": "bool"
						}
					],
					"name": "setApprovalForAll",
					"outputs": [],
					"stateMutability": "nonpayable",
					"type": "function"
				},
				{
					"inputs": [
						{
							"internalType": "bytes4",
							"name": "interfaceId",
							"type": "bytes4"
						}
					],
					"name": "supportsInterface",
					"outputs": [
						{
							"internalType": "bool",
							"name": "",
							"type": "bool"
						}
					],
					"stateMutability": "view",
					"type": "function"
				},
				{
					"inputs": [],
					"name": "symbol",
					"outputs": [
						{
							"internalType": "string",
							"name": "",
							"type": "string"
						}
					],
					"stateMutability": "view",
					"type": "function"
				},
				{
					"inputs": [
						{
							"internalType": "uint256",
							"name": "index",
							"type": "uint256"
						}
					],
					"name": "tokenByIndex",
					"outputs": [
						{
							"internalType": "uint256",
							"name": "",
							"type": "uint256"
						}
					],
					"stateMutability": "view",
					"type": "function"
				},
				{
					"inputs": [
						{
							"internalType": "address",
							"name": "owner",
							"type": "address"
						},
						{
							"internalType": "uint256",
							"name": "index",
							"type": "uint256"
						}
					],
					"name": "tokenOfOwnerByIndex",
					"outputs": [
						{
							"internalType": "uint256",
							"name": "",
							"type": "uint256"
						}
					],
					"stateMutability": "view",
					"type": "function"
				},
				{
					"inputs": [
						{
							"internalType": "uint256",
							"name": "tokenId",
							"type": "uint256"
						}
					],
					"name": "tokenURI",
					"outputs": [
						{
							"internalType": "string",
							"name": "",
							"type": "string"
						}
					],
					"stateMutability": "view",
					"type": "function"
				},
				{
					"inputs": [],
					"name": "totalSupply",
					"outputs": [
						{
							"internalType": "uint256",
							"name": "",
							"type": "uint256"
						}
					],
					"stateMutability": "view",
					"type": "function"
				},
				{
					"inputs": [
						{
							"internalType": "address",
							"name": "from",
							"type": "address"
						},
						{
							"internalType": "address",
							"name": "to",
							"type": "address"
						},
						{
							"internalType": "uint256",
							"name": "tokenId",
							"type": "uint256"
						}
					],
					"name": "transferFrom",
					"outputs": [],
					"stateMutability": "nonpayable",
					"type": "function"
				},
				{
					"inputs": [
						{
							"internalType": "address",
							"name": "newOwner",
							"type": "address"
						}
					],
					"name": "transferOwnership",
					"outputs": [],
					"stateMutability": "nonpayable",
					"type": "function"
				},
				{
					"inputs": [],
					"name": "withdraw",
					"outputs": [],
					"stateMutability": "nonpayable",
					"type": "function"
				}
			],
			"devdoc": {
				"kind": "dev",
				"methods": {
					"approve(address,uint256)": {
						"details": "See {IERC721-approve}."
					},
					"balanceOf(address)": {
						"details": "See {IERC721-balanceOf}."
					},
					"getApproved(uint256)": {
						"details": "See {IERC721-getApproved}."
					},
					"isApprovedForAll(address,address)": {
						"details": "See {IERC721-isApprovedForAll}."
					},
					"name()": {
						"details": "See {IERC721Metadata-name}."
					},
					"owner()": {
						"details": "Returns the address of the current owner."
					},
					"ownerOf(uint256)": {
						"details": "See {IERC721-ownerOf}."
					},
					"renounceOwnership()": {
						"details": "Leaves the contract without owner. It will not be possible to call `onlyOwner` functions anymore. Can only be called by the current owner. NOTE: Renouncing ownership will leave the contract without an owner, thereby removing any functionality that is only available to the owner."
					},
					"safeTransferFrom(address,address,uint256)": {
						"details": "See {IERC721-safeTransferFrom}."
					},
					"safeTransferFrom(address,address,uint256,bytes)": {
						"details": "See {IERC721-safeTransferFrom}."
					},
					"setApprovalForAll(address,bool)": {
						"details": "See {IERC721-setApprovalForAll}."
					},
					"symbol()": {
						"details": "See {IERC721Metadata-symbol}."
					},
					"tokenByIndex(uint256)": {
						"details": "See {IERC721Enumerable-tokenByIndex}."
					},
					"tokenOfOwnerByIndex(address,uint256)": {
						"details": "See {IERC721Enumerable-tokenOfOwnerByIndex}."
					},
					"tokenURI(uint256)": {
						"details": "See {IERC721Metadata-tokenURI}."
					},
					"totalSupply()": {
						"details": "See {IERC721Enumerable-totalSupply}."
					},
					"transferFrom(address,address,uint256)": {
						"details": "See {IERC721-transferFrom}."
					},
					"transferOwnership(address)": {
						"details": "Transfers ownership of the contract to a new account (`newOwner`). Can only be called by the current owner."
					}
				},
				"version": 1
			},
			"evm": {
				"assembly": "    /* \"MyNFT.sol\":333:1693  contract MyNFT is ERC721, ERC721Enumerable, Ownable {... */\n  mstore(0x40, 0x80)\n    /* \"MyNFT.sol\":454:464  0.01 ether */\n  0x2386f26fc10000\n    /* \"MyNFT.sol\":434:464  uint256 mintRate =  0.01 ether */\n  0x0b\n  sstore\n    /* \"MyNFT.sol\":499:504  10000 */\n  0x2710\n    /* \"MyNFT.sol\":471:504  uint256 public Max_Supply = 10000 */\n  0x0c\n  sstore\n    /* \"MyNFT.sol\":562:602  constructor() ERC721(\"MyNFT\", \"MNFT\") {} */\n  callvalue\n  dup1\n  iszero\n  tag_1\n  jumpi\n  0x00\n  dup1\n  revert\ntag_1:\n  pop\n    /* \"@openzeppelin/contracts@4.7.3/token/ERC721/ERC721.sol\":1390:1503  constructor(string memory name_, string memory symbol_) {... */\n  0x40\n  dup1\n  mload\n  dup1\n  dup3\n  add\n  dup3\n  mstore\n  0x05\n  dup2\n  mstore\n  shl(0xda, 0x135e539195)\n  0x20\n  dup1\n  dup4\n  add\n  swap2\n  dup3\n  mstore\n  dup4\n  mload\n  dup1\n  dup6\n  add\n  swap1\n  swap5\n  mstore\n  0x04\n  dup5\n  mstore\n  shl(0xe2, 0x13539195)\n  swap1\n  dup5\n  add\n  mstore\n    /* \"@openzeppelin/contracts@4.7.3/token/ERC721/ERC721.sol\":1456:1469  _name = name_ */\n  dup2\n  mload\n    /* \"@openzeppelin/contracts@4.7.3/token/ERC721/ERC721.sol\":1390:1503  constructor(string memory name_, string memory symbol_) {... */\n  swap2\n  swap3\n  swap2\n    /* \"@openzeppelin/contracts@4.7.3/token/ERC721/ERC721.sol\":1456:1469  _name = name_ */\n  tag_6\n  swap2\n  0x00\n  swap2\n  tag_7\n  jump\t// in\ntag_6:\n  pop\n    /* \"@openzeppelin/contracts@4.7.3/token/ERC721/ERC721.sol\":1479:1496  _symbol = symbol_ */\n  dup1\n  mload\n  tag_8\n  swap1\n    /* \"@openzeppelin/contracts@4.7.3/token/ERC721/ERC721.sol\":1479:1486  _symbol */\n  0x01\n  swap1\n    /* \"@openzeppelin/contracts@4.7.3/token/ERC721/ERC721.sol\":1479:1496  _symbol = symbol_ */\n  0x20\n  dup5\n  add\n  swap1\n  tag_7\n  jump\t// in\ntag_8:\n  pop\n    /* \"@openzeppelin/contracts@4.7.3/token/ERC721/ERC721.sol\":1390:1503  constructor(string memory name_, string memory symbol_) {... */\n  pop\n  pop\n    /* \"@openzeppelin/contracts@4.7.3/access/Ownable.sol\":936:968  _transferOwnership(_msgSender()) */\n  tag_10\n    /* \"@openzeppelin/contracts@4.7.3/access/Ownable.sol\":955:967  _msgSender() */\n  tag_11\n    /* \"@openzeppelin/contracts@4.7.3/access/Ownable.sol\":955:965  _msgSender */\n  shl(0x20, tag_12)\n    /* \"@openzeppelin/contracts@4.7.3/access/Ownable.sol\":955:967  _msgSender() */\n  0x20\n  shr\n  jump\t// in\ntag_11:\n    /* \"@openzeppelin/contracts@4.7.3/access/Ownable.sol\":936:954  _transferOwnership */\n  tag_13\n    /* \"@openzeppelin/contracts@4.7.3/access/Ownable.sol\":936:968  _transferOwnership(_msgSender()) */\n  jump\t// in\ntag_10:\n    /* \"MyNFT.sol\":333:1693  contract MyNFT is ERC721, ERC721Enumerable, Ownable {... */\n  jump(tag_29)\n    /* \"@openzeppelin/contracts@4.7.3/utils/Context.sol\":640:736  function _msgSender() internal view virtual returns (address) {... */\ntag_12:\n    /* \"@openzeppelin/contracts@4.7.3/utils/Context.sol\":719:729  msg.sender */\n  caller\n  swap1\n    /* \"@openzeppelin/contracts@4.7.3/utils/Context.sol\":640:736  function _msgSender() internal view virtual returns (address) {... */\n  jump\t// out\n    /* \"@openzeppelin/contracts@4.7.3/access/Ownable.sol\":2433:2620  function _transferOwnership(address newOwner) internal virtual {... */\ntag_13:\n    /* \"@openzeppelin/contracts@4.7.3/access/Ownable.sol\":2525:2531  _owner */\n  0x0a\n  dup1\n  sload\n  sub(shl(0xa0, 0x01), 0x01)\n    /* \"@openzeppelin/contracts@4.7.3/access/Ownable.sol\":2541:2558  _owner = newOwner */\n  dup4\n  dup2\n  and\n  not(sub(shl(0xa0, 0x01), 0x01))\n  dup4\n  and\n  dup2\n  or\n  swap1\n  swap4\n  sstore\n    /* \"@openzeppelin/contracts@4.7.3/access/Ownable.sol\":2573:2613  OwnershipTransferred(oldOwner, newOwner) */\n  mload(0x40)\n    /* \"@openzeppelin/contracts@4.7.3/access/Ownable.sol\":2525:2531  _owner */\n  swap2\n  and\n  swap2\n    /* \"@openzeppelin/contracts@4.7.3/access/Ownable.sol\":2541:2558  _owner = newOwner */\n  swap1\n    /* \"@openzeppelin/contracts@4.7.3/access/Ownable.sol\":2525:2531  _owner */\n  dup3\n  swap1\n    /* \"@openzeppelin/contracts@4.7.3/access/Ownable.sol\":2573:2613  OwnershipTransferred(oldOwner, newOwner) */\n  0x8be0079c531659141344cd1fd0a4f28419497f9722a3daafe3b4186f6b6457e0\n  swap1\n    /* \"@openzeppelin/contracts@4.7.3/access/Ownable.sol\":2506:2522  address oldOwner */\n  0x00\n  swap1\n    /* \"@openzeppelin/contracts@4.7.3/access/Ownable.sol\":2573:2613  OwnershipTransferred(oldOwner, newOwner) */\n  log3\n    /* \"@openzeppelin/contracts@4.7.3/access/Ownable.sol\":2496:2620  {... */\n  pop\n    /* \"@openzeppelin/contracts@4.7.3/access/Ownable.sol\":2433:2620  function _transferOwnership(address newOwner) internal virtual {... */\n  pop\n  jump\t// out\n    /* \"MyNFT.sol\":333:1693  contract MyNFT is ERC721, ERC721Enumerable, Ownable {... */\ntag_7:\n  dup3\n  dup1\n  sload\n  tag_18\n  swap1\n  tag_19\n  jump\t// in\ntag_18:\n  swap1\n  0x00\n  mstore\n  keccak256(0x00, 0x20)\n  swap1\n  0x1f\n  add\n  0x20\n  swap1\n  div\n  dup2\n  add\n  swap3\n  dup3\n  tag_21\n  jumpi\n  0x00\n  dup6\n  sstore\n  jump(tag_24)\ntag_21:\n  dup3\n  0x1f\n  lt\n  tag_22\n  jumpi\n  dup1\n  mload\n  not(0xff)\n  and\n  dup4\n  dup1\n  add\n  or\n  dup6\n  sstore\n  jump(tag_24)\ntag_22:\n  dup3\n  dup1\n  add\n  0x01\n  add\n  dup6\n  sstore\n  dup3\n  iszero\n  tag_24\n  jumpi\n  swap2\n  dup3\n  add\ntag_23:\n  dup3\n  dup2\n  gt\n  iszero\n  tag_24\n  jumpi\n  dup3\n  mload\n  dup3\n  sstore\n  swap2\n  0x20\n  add\n  swap2\n  swap1\n  0x01\n  add\n  swap1\n  jump(tag_23)\ntag_24:\n  pop\n  tag_25\n  swap3\n  swap2\n  pop\n  tag_26\n  jump\t// in\ntag_25:\n  pop\n  swap1\n  jump\t// out\ntag_26:\ntag_27:\n  dup1\n  dup3\n  gt\n  iszero\n  tag_25\n  jumpi\n  0x00\n  dup2\n  sstore\n  0x01\n  add\n  jump(tag_27)\n    /* \"#utility.yul\":14:394   */\ntag_19:\n    /* \"#utility.yul\":93:94   */\n  0x01\n    /* \"#utility.yul\":89:101   */\n  dup2\n  dup2\n  shr\n  swap1\n    /* \"#utility.yul\":136:148   */\n  dup3\n  and\n  dup1\n    /* \"#utility.yul\":157:218   */\n  tag_31\n  jumpi\n    /* \"#utility.yul\":211:215   */\n  0x7f\n    /* \"#utility.yul\":203:209   */\n  dup3\n    /* \"#utility.yul\":199:216   */\n  and\n    /* \"#utility.yul\":189:216   */\n  swap2\n  pop\n    /* \"#utility.yul\":157:218   */\ntag_31:\n    /* \"#utility.yul\":264:266   */\n  0x20\n    /* \"#utility.yul\":256:262   */\n  dup3\n    /* \"#utility.yul\":253:267   */\n  lt\n    /* \"#utility.yul\":233:251   */\n  dup2\n    /* \"#utility.yul\":230:268   */\n  sub\n    /* \"#utility.yul\":227:388   */\n  tag_32\n  jumpi\n    /* \"#utility.yul\":310:320   */\n  0x4e487b71\n    /* \"#utility.yul\":305:308   */\n  0xe0\n    /* \"#utility.yul\":301:321   */\n  shl\n    /* \"#utility.yul\":298:299   */\n  0x00\n    /* \"#utility.yul\":291:322   */\n  mstore\n    /* \"#utility.yul\":345:349   */\n  0x22\n    /* \"#utility.yul\":342:343   */\n  0x04\n    /* \"#utility.yul\":335:350   */\n  mstore\n    /* \"#utility.yul\":373:377   */\n  0x24\n    /* \"#utility.yul\":370:371   */\n  0x00\n    /* \"#utility.yul\":363:378   */\n  revert\n    /* \"#utility.yul\":227:388   */\ntag_32:\n  pop\n    /* \"#utility.yul\":14:394   */\n  swap2\n  swap1\n  pop\n  jump\t// out\ntag_29:\n    /* \"MyNFT.sol\":333:1693  contract MyNFT is ERC721, ERC721Enumerable, Ownable {... */\n  dataSize(sub_0)\n  dup1\n  dataOffset(sub_0)\n  0x00\n  codecopy\n  0x00\n  return\nstop\n\nsub_0: assembly {\n        /* \"MyNFT.sol\":333:1693  contract MyNFT is ERC721, ERC721Enumerable, Ownable {... */\n      mstore(0x40, 0x80)\n      jumpi(tag_1, lt(calldatasize, 0x04))\n      shr(0xe0, calldataload(0x00))\n      dup1\n      0x6352211e\n      gt\n      tag_24\n      jumpi\n      dup1\n      0x95d89b41\n      gt\n      tag_25\n      jumpi\n      dup1\n      0x95d89b41\n      eq\n      tag_18\n      jumpi\n      dup1\n      0xa22cb465\n      eq\n      tag_19\n      jumpi\n      dup1\n      0xb88d4fde\n      eq\n      tag_20\n      jumpi\n      dup1\n      0xc87b56dd\n      eq\n      tag_21\n      jumpi\n      dup1\n      0xe985e9c5\n      eq\n      tag_22\n      jumpi\n      dup1\n      0xf2fde38b\n      eq\n      tag_23\n      jumpi\n      0x00\n      dup1\n      revert\n    tag_25:\n      dup1\n      0x6352211e\n      eq\n      tag_13\n      jumpi\n      dup1\n      0x6737c9c1\n      eq\n      tag_14\n      jumpi\n      dup1\n      0x70a08231\n      eq\n      tag_15\n      jumpi\n      dup1\n      0x715018a6\n      eq\n      tag_16\n      jumpi\n      dup1\n      0x8da5cb5b\n      eq\n      tag_17\n      jumpi\n      0x00\n      dup1\n      revert\n    tag_24:\n      dup1\n      0x23b872dd\n      gt\n      tag_26\n      jumpi\n      dup1\n      0x23b872dd\n      eq\n      tag_7\n      jumpi\n      dup1\n      0x2f745c59\n      eq\n      tag_8\n      jumpi\n      dup1\n      0x3ccfd60b\n      eq\n      tag_9\n      jumpi\n      dup1\n      0x40d097c3\n      eq\n      tag_10\n      jumpi\n      dup1\n      0x42842e0e\n      eq\n      tag_11\n      jumpi\n      dup1\n      0x4f6ccce7\n      eq\n      tag_12\n      jumpi\n      0x00\n      dup1\n      revert\n    tag_26:\n      dup1\n      0x01ffc9a7\n      eq\n      tag_2\n      jumpi\n      dup1\n      0x06fdde03\n      eq\n      tag_3\n      jumpi\n      dup1\n      0x081812fc\n      eq\n      tag_4\n      jumpi\n      dup1\n      0x095ea7b3\n      eq\n      tag_5\n      jumpi\n      dup1\n      0x18160ddd\n      eq\n      tag_6\n      jumpi\n    tag_1:\n      0x00\n      dup1\n      revert\n        /* \"MyNFT.sol\":1305:1517  function supportsInterface(bytes4 interfaceId)... */\n    tag_2:\n      callvalue\n      dup1\n      iszero\n      tag_27\n      jumpi\n      0x00\n      dup1\n      revert\n    tag_27:\n      pop\n      tag_28\n      tag_29\n      calldatasize\n      0x04\n      tag_30\n      jump\t// in\n    tag_29:\n      tag_31\n      jump\t// in\n    tag_28:\n      mload(0x40)\n        /* \"#utility.yul\":565:579   */\n      swap1\n      iszero\n        /* \"#utility.yul\":558:580   */\n      iszero\n        /* \"#utility.yul\":540:581   */\n      dup2\n      mstore\n        /* \"#utility.yul\":528:530   */\n      0x20\n        /* \"#utility.yul\":513:531   */\n      add\n        /* \"MyNFT.sol\":1305:1517  function supportsInterface(bytes4 interfaceId)... */\n    tag_32:\n      mload(0x40)\n      dup1\n      swap2\n      sub\n      swap1\n      return\n        /* \"@openzeppelin/contracts@4.7.3/token/ERC721/ERC721.sol\":2470:2568  function name() public view virtual override returns (string memory) {... */\n    tag_3:\n      callvalue\n      dup1\n      iszero\n      tag_34\n      jumpi\n      0x00\n      dup1\n      revert\n    tag_34:\n      pop\n      tag_35\n      tag_36\n      jump\t// in\n    tag_35:\n      mload(0x40)\n      tag_32\n      swap2\n      swap1\n      tag_38\n      jump\t// in\n        /* \"@openzeppelin/contracts@4.7.3/token/ERC721/ERC721.sol\":3935:4102  function getApproved(uint256 tokenId) public view virtual override returns (address) {... */\n    tag_4:\n      callvalue\n      dup1\n      iszero\n      tag_39\n      jumpi\n      0x00\n      dup1\n      revert\n    tag_39:\n      pop\n      tag_40\n      tag_41\n      calldatasize\n      0x04\n      tag_42\n      jump\t// in\n    tag_41:\n      tag_43\n      jump\t// in\n    tag_40:\n      mload(0x40)\n      sub(shl(0xa0, 0x01), 0x01)\n        /* \"#utility.yul\":1692:1724   */\n      swap1\n      swap2\n      and\n        /* \"#utility.yul\":1674:1725   */\n      dup2\n      mstore\n        /* \"#utility.yul\":1662:1664   */\n      0x20\n        /* \"#utility.yul\":1647:1665   */\n      add\n        /* \"@openzeppelin/contracts@4.7.3/token/ERC721/ERC721.sol\":3935:4102  function getApproved(uint256 tokenId) public view virtual override returns (address) {... */\n      tag_32\n        /* \"#utility.yul\":1528:1731   */\n      jump\n        /* \"@openzeppelin/contracts@4.7.3/token/ERC721/ERC721.sol\":3467:3874  function approve(address to, uint256 tokenId) public virtual override {... */\n    tag_5:\n      callvalue\n      dup1\n      iszero\n      tag_46\n      jumpi\n      0x00\n      dup1\n      revert\n    tag_46:\n      pop\n      tag_47\n      tag_48\n      calldatasize\n      0x04\n      tag_49\n      jump\t// in\n    tag_48:\n      tag_50\n      jump\t// in\n    tag_47:\n      stop\n        /* \"@openzeppelin/contracts@4.7.3/token/ERC721/extensions/ERC721Enumerable.sol\":1615:1726  function totalSupply() public view virtual override returns (uint256) {... */\n    tag_6:\n      callvalue\n      dup1\n      iszero\n      tag_51\n      jumpi\n      0x00\n      dup1\n      revert\n    tag_51:\n      pop\n        /* \"@openzeppelin/contracts@4.7.3/token/ERC721/extensions/ERC721Enumerable.sol\":1702:1712  _allTokens */\n      0x08\n        /* \"@openzeppelin/contracts@4.7.3/token/ERC721/extensions/ERC721Enumerable.sol\":1702:1719  _allTokens.length */\n      sload\n        /* \"@openzeppelin/contracts@4.7.3/token/ERC721/extensions/ERC721Enumerable.sol\":1615:1726  function totalSupply() public view virtual override returns (uint256) {... */\n    tag_52:\n      mload(0x40)\n        /* \"#utility.yul\":2319:2344   */\n      swap1\n      dup2\n      mstore\n        /* \"#utility.yul\":2307:2309   */\n      0x20\n        /* \"#utility.yul\":2292:2310   */\n      add\n        /* \"@openzeppelin/contracts@4.7.3/token/ERC721/extensions/ERC721Enumerable.sol\":1615:1726  function totalSupply() public view virtual override returns (uint256) {... */\n      tag_32\n        /* \"#utility.yul\":2173:2350   */\n      jump\n        /* \"@openzeppelin/contracts@4.7.3/token/ERC721/ERC721.sol\":4612:4939  function transferFrom(... */\n    tag_7:\n      callvalue\n      dup1\n      iszero\n      tag_56\n      jumpi\n      0x00\n      dup1\n      revert\n    tag_56:\n      pop\n      tag_47\n      tag_58\n      calldatasize\n      0x04\n      tag_59\n      jump\t// in\n    tag_58:\n      tag_60\n      jump\t// in\n        /* \"@openzeppelin/contracts@4.7.3/token/ERC721/extensions/ERC721Enumerable.sol\":1291:1544  function tokenOfOwnerByIndex(address owner, uint256 index) public view virtual override returns (uint256) {... */\n    tag_8:\n      callvalue\n      dup1\n      iszero\n      tag_61\n      jumpi\n      0x00\n      dup1\n      revert\n    tag_61:\n      pop\n      tag_52\n      tag_63\n      calldatasize\n      0x04\n      tag_49\n      jump\t// in\n    tag_63:\n      tag_64\n      jump\t// in\n        /* \"MyNFT.sol\":1525:1690  function withdraw() public onlyOwner {... */\n    tag_9:\n      callvalue\n      dup1\n      iszero\n      tag_66\n      jumpi\n      0x00\n      dup1\n      revert\n    tag_66:\n      pop\n      tag_47\n      tag_68\n      jump\t// in\n        /* \"MyNFT.sol\":737:1015  function safeMint(address to) public payable {... */\n    tag_10:\n      tag_47\n      tag_70\n      calldatasize\n      0x04\n      tag_71\n      jump\t// in\n    tag_70:\n      tag_72\n      jump\t// in\n        /* \"@openzeppelin/contracts@4.7.3/token/ERC721/ERC721.sol\":5005:5184  function safeTransferFrom(... */\n    tag_11:\n      callvalue\n      dup1\n      iszero\n      tag_73\n      jumpi\n      0x00\n      dup1\n      revert\n    tag_73:\n      pop\n      tag_47\n      tag_75\n      calldatasize\n      0x04\n      tag_59\n      jump\t// in\n    tag_75:\n      tag_76\n      jump\t// in\n        /* \"@openzeppelin/contracts@4.7.3/token/ERC721/extensions/ERC721Enumerable.sol\":1798:2028  function tokenByIndex(uint256 index) public view virtual override returns (uint256) {... */\n    tag_12:\n      callvalue\n      dup1\n      iszero\n      tag_77\n      jumpi\n      0x00\n      dup1\n      revert\n    tag_77:\n      pop\n      tag_52\n      tag_79\n      calldatasize\n      0x04\n      tag_42\n      jump\t// in\n    tag_79:\n      tag_80\n      jump\t// in\n        /* \"@openzeppelin/contracts@4.7.3/token/ERC721/ERC721.sol\":2190:2408  function ownerOf(uint256 tokenId) public view virtual override returns (address) {... */\n    tag_13:\n      callvalue\n      dup1\n      iszero\n      tag_82\n      jumpi\n      0x00\n      dup1\n      revert\n    tag_82:\n      pop\n      tag_40\n      tag_84\n      calldatasize\n      0x04\n      tag_42\n      jump\t// in\n    tag_84:\n      tag_85\n      jump\t// in\n        /* \"MyNFT.sol\":471:504  uint256 public Max_Supply = 10000 */\n    tag_14:\n      callvalue\n      dup1\n      iszero\n      tag_87\n      jumpi\n      0x00\n      dup1\n      revert\n    tag_87:\n      pop\n      tag_52\n      sload(0x0c)\n      dup2\n      jump\n        /* \"@openzeppelin/contracts@4.7.3/token/ERC721/ERC721.sol\":1929:2133  function balanceOf(address owner) public view virtual override returns (uint256) {... */\n    tag_15:\n      callvalue\n      dup1\n      iszero\n      tag_91\n      jumpi\n      0x00\n      dup1\n      revert\n    tag_91:\n      pop\n      tag_52\n      tag_93\n      calldatasize\n      0x04\n      tag_71\n      jump\t// in\n    tag_93:\n      tag_94\n      jump\t// in\n        /* \"@openzeppelin/contracts@4.7.3/access/Ownable.sol\":1831:1932  function renounceOwnership() public virtual onlyOwner {... */\n    tag_16:\n      callvalue\n      dup1\n      iszero\n      tag_96\n      jumpi\n      0x00\n      dup1\n      revert\n    tag_96:\n      pop\n      tag_47\n      tag_98\n      jump\t// in\n        /* \"@openzeppelin/contracts@4.7.3/access/Ownable.sol\":1201:1286  function owner() public view virtual returns (address) {... */\n    tag_17:\n      callvalue\n      dup1\n      iszero\n      tag_99\n      jumpi\n      0x00\n      dup1\n      revert\n    tag_99:\n      pop\n        /* \"@openzeppelin/contracts@4.7.3/access/Ownable.sol\":1273:1279  _owner */\n      and(sub(shl(0xa0, 0x01), 0x01), sload(0x0a))\n        /* \"@openzeppelin/contracts@4.7.3/access/Ownable.sol\":1201:1286  function owner() public view virtual returns (address) {... */\n      jump(tag_40)\n        /* \"@openzeppelin/contracts@4.7.3/token/ERC721/ERC721.sol\":2632:2734  function symbol() public view virtual override returns (string memory) {... */\n    tag_18:\n      callvalue\n      dup1\n      iszero\n      tag_103\n      jumpi\n      0x00\n      dup1\n      revert\n    tag_103:\n      pop\n      tag_35\n      tag_105\n      jump\t// in\n        /* \"@openzeppelin/contracts@4.7.3/token/ERC721/ERC721.sol\":4169:4322  function setApprovalForAll(address operator, bool approved) public virtual override {... */\n    tag_19:\n      callvalue\n      dup1\n      iszero\n      tag_107\n      jumpi\n      0x00\n      dup1\n      revert\n    tag_107:\n      pop\n      tag_47\n      tag_109\n      calldatasize\n      0x04\n      tag_110\n      jump\t// in\n    tag_109:\n      tag_111\n      jump\t// in\n        /* \"@openzeppelin/contracts@4.7.3/token/ERC721/ERC721.sol\":5250:5565  function safeTransferFrom(... */\n    tag_20:\n      callvalue\n      dup1\n      iszero\n      tag_112\n      jumpi\n      0x00\n      dup1\n      revert\n    tag_112:\n      pop\n      tag_47\n      tag_114\n      calldatasize\n      0x04\n      tag_115\n      jump\t// in\n    tag_114:\n      tag_116\n      jump\t// in\n        /* \"@openzeppelin/contracts@4.7.3/token/ERC721/ERC721.sol\":2800:3076  function tokenURI(uint256 tokenId) public view virtual override returns (string memory) {... */\n    tag_21:\n      callvalue\n      dup1\n      iszero\n      tag_117\n      jumpi\n      0x00\n      dup1\n      revert\n    tag_117:\n      pop\n      tag_35\n      tag_119\n      calldatasize\n      0x04\n      tag_42\n      jump\t// in\n    tag_119:\n      tag_120\n      jump\t// in\n        /* \"@openzeppelin/contracts@4.7.3/token/ERC721/ERC721.sol\":4388:4550  function isApprovedForAll(address owner, address operator) public view virtual override returns (bool) {... */\n    tag_22:\n      callvalue\n      dup1\n      iszero\n      tag_122\n      jumpi\n      0x00\n      dup1\n      revert\n    tag_122:\n      pop\n      tag_28\n      tag_124\n      calldatasize\n      0x04\n      tag_125\n      jump\t// in\n    tag_124:\n      sub(shl(0xa0, 0x01), 0x01)\n        /* \"@openzeppelin/contracts@4.7.3/token/ERC721/ERC721.sol\":4508:4533  _operatorApprovals[owner] */\n      swap2\n      dup3\n      and\n        /* \"@openzeppelin/contracts@4.7.3/token/ERC721/ERC721.sol\":4485:4489  bool */\n      0x00\n        /* \"@openzeppelin/contracts@4.7.3/token/ERC721/ERC721.sol\":4508:4533  _operatorApprovals[owner] */\n      swap1\n      dup2\n      mstore\n        /* \"@openzeppelin/contracts@4.7.3/token/ERC721/ERC721.sol\":4508:4526  _operatorApprovals */\n      0x05\n        /* \"@openzeppelin/contracts@4.7.3/token/ERC721/ERC721.sol\":4508:4533  _operatorApprovals[owner] */\n      0x20\n      swap1\n      dup2\n      mstore\n      0x40\n      dup1\n      dup4\n      keccak256\n        /* \"@openzeppelin/contracts@4.7.3/token/ERC721/ERC721.sol\":4508:4543  _operatorApprovals[owner][operator] */\n      swap4\n      swap1\n      swap5\n      and\n      dup3\n      mstore\n      swap2\n      swap1\n      swap2\n      mstore\n      keccak256\n      sload\n      0xff\n      and\n      swap1\n        /* \"@openzeppelin/contracts@4.7.3/token/ERC721/ERC721.sol\":4388:4550  function isApprovedForAll(address owner, address operator) public view virtual override returns (bool) {... */\n      jump\n        /* \"@openzeppelin/contracts@4.7.3/access/Ownable.sol\":2081:2279  function transferOwnership(address newOwner) public virtual onlyOwner {... */\n    tag_23:\n      callvalue\n      dup1\n      iszero\n      tag_128\n      jumpi\n      0x00\n      dup1\n      revert\n    tag_128:\n      pop\n      tag_47\n      tag_130\n      calldatasize\n      0x04\n      tag_71\n      jump\t// in\n    tag_130:\n      tag_131\n      jump\t// in\n        /* \"MyNFT.sol\":1305:1517  function supportsInterface(bytes4 interfaceId)... */\n    tag_31:\n        /* \"MyNFT.sol\":1444:1448  bool */\n      0x00\n        /* \"MyNFT.sol\":1473:1509  super.supportsInterface(interfaceId) */\n      tag_133\n        /* \"MyNFT.sol\":1497:1508  interfaceId */\n      dup3\n        /* \"MyNFT.sol\":1473:1496  super.supportsInterface */\n      tag_134\n        /* \"MyNFT.sol\":1473:1509  super.supportsInterface(interfaceId) */\n      jump\t// in\n    tag_133:\n        /* \"MyNFT.sol\":1466:1509  return super.supportsInterface(interfaceId) */\n      swap3\n        /* \"MyNFT.sol\":1305:1517  function supportsInterface(bytes4 interfaceId)... */\n      swap2\n      pop\n      pop\n      jump\t// out\n        /* \"@openzeppelin/contracts@4.7.3/token/ERC721/ERC721.sol\":2470:2568  function name() public view virtual override returns (string memory) {... */\n    tag_36:\n        /* \"@openzeppelin/contracts@4.7.3/token/ERC721/ERC721.sol\":2524:2537  string memory */\n      0x60\n        /* \"@openzeppelin/contracts@4.7.3/token/ERC721/ERC721.sol\":2556:2561  _name */\n      0x00\n        /* \"@openzeppelin/contracts@4.7.3/token/ERC721/ERC721.sol\":2549:2561  return _name */\n      dup1\n      sload\n      tag_136\n      swap1\n      tag_137\n      jump\t// in\n    tag_136:\n      dup1\n      0x1f\n      add\n      0x20\n      dup1\n      swap2\n      div\n      mul\n      0x20\n      add\n      mload(0x40)\n      swap1\n      dup2\n      add\n      0x40\n      mstore\n      dup1\n      swap3\n      swap2\n      swap1\n      dup2\n      dup2\n      mstore\n      0x20\n      add\n      dup3\n      dup1\n      sload\n      tag_138\n      swap1\n      tag_137\n      jump\t// in\n    tag_138:\n      dup1\n      iszero\n      tag_139\n      jumpi\n      dup1\n      0x1f\n      lt\n      tag_140\n      jumpi\n      0x0100\n      dup1\n      dup4\n      sload\n      div\n      mul\n      dup4\n      mstore\n      swap2\n      0x20\n      add\n      swap2\n      jump(tag_139)\n    tag_140:\n      dup3\n      add\n      swap2\n      swap1\n      0x00\n      mstore\n      keccak256(0x00, 0x20)\n      swap1\n    tag_141:\n      dup2\n      sload\n      dup2\n      mstore\n      swap1\n      0x01\n      add\n      swap1\n      0x20\n      add\n      dup1\n      dup4\n      gt\n      tag_141\n      jumpi\n      dup3\n      swap1\n      sub\n      0x1f\n      and\n      dup3\n      add\n      swap2\n    tag_139:\n      pop\n      pop\n      pop\n      pop\n      pop\n      swap1\n      pop\n        /* \"@openzeppelin/contracts@4.7.3/token/ERC721/ERC721.sol\":2470:2568  function name() public view virtual override returns (string memory) {... */\n      swap1\n      jump\t// out\n        /* \"@openzeppelin/contracts@4.7.3/token/ERC721/ERC721.sol\":3935:4102  function getApproved(uint256 tokenId) public view virtual override returns (address) {... */\n    tag_43:\n        /* \"@openzeppelin/contracts@4.7.3/token/ERC721/ERC721.sol\":4011:4018  address */\n      0x00\n        /* \"@openzeppelin/contracts@4.7.3/token/ERC721/ERC721.sol\":4030:4053  _requireMinted(tokenId) */\n      tag_143\n        /* \"@openzeppelin/contracts@4.7.3/token/ERC721/ERC721.sol\":4045:4052  tokenId */\n      dup3\n        /* \"@openzeppelin/contracts@4.7.3/token/ERC721/ERC721.sol\":4030:4044  _requireMinted */\n      tag_144\n        /* \"@openzeppelin/contracts@4.7.3/token/ERC721/ERC721.sol\":4030:4053  _requireMinted(tokenId) */\n      jump\t// in\n    tag_143:\n      pop\n        /* \"@openzeppelin/contracts@4.7.3/token/ERC721/ERC721.sol\":4071:4095  _tokenApprovals[tokenId] */\n      0x00\n      swap1\n      dup2\n      mstore\n        /* \"@openzeppelin/contracts@4.7.3/token/ERC721/ERC721.sol\":4071:4086  _tokenApprovals */\n      0x04\n        /* \"@openzeppelin/contracts@4.7.3/token/ERC721/ERC721.sol\":4071:4095  _tokenApprovals[tokenId] */\n      0x20\n      mstore\n      0x40\n      swap1\n      keccak256\n      sload\n      sub(shl(0xa0, 0x01), 0x01)\n      and\n      swap1\n        /* \"@openzeppelin/contracts@4.7.3/token/ERC721/ERC721.sol\":3935:4102  function getApproved(uint256 tokenId) public view virtual override returns (address) {... */\n      jump\t// out\n        /* \"@openzeppelin/contracts@4.7.3/token/ERC721/ERC721.sol\":3467:3874  function approve(address to, uint256 tokenId) public virtual override {... */\n    tag_50:\n        /* \"@openzeppelin/contracts@4.7.3/token/ERC721/ERC721.sol\":3547:3560  address owner */\n      0x00\n        /* \"@openzeppelin/contracts@4.7.3/token/ERC721/ERC721.sol\":3563:3586  ERC721.ownerOf(tokenId) */\n      tag_146\n        /* \"@openzeppelin/contracts@4.7.3/token/ERC721/ERC721.sol\":3578:3585  tokenId */\n      dup3\n        /* \"@openzeppelin/contracts@4.7.3/token/ERC721/ERC721.sol\":3563:3577  ERC721.ownerOf */\n      tag_85\n        /* \"@openzeppelin/contracts@4.7.3/token/ERC721/ERC721.sol\":3563:3586  ERC721.ownerOf(tokenId) */\n      jump\t// in\n    tag_146:\n        /* \"@openzeppelin/contracts@4.7.3/token/ERC721/ERC721.sol\":3547:3586  address owner = ERC721.ownerOf(tokenId) */\n      swap1\n      pop\n        /* \"@openzeppelin/contracts@4.7.3/token/ERC721/ERC721.sol\":3610:3615  owner */\n      dup1\n      sub(shl(0xa0, 0x01), 0x01)\n        /* \"@openzeppelin/contracts@4.7.3/token/ERC721/ERC721.sol\":3604:3615  to != owner */\n      and\n        /* \"@openzeppelin/contracts@4.7.3/token/ERC721/ERC721.sol\":3604:3606  to */\n      dup4\n      sub(shl(0xa0, 0x01), 0x01)\n        /* \"@openzeppelin/contracts@4.7.3/token/ERC721/ERC721.sol\":3604:3615  to != owner */\n      and\n      sub\n        /* \"@openzeppelin/contracts@4.7.3/token/ERC721/ERC721.sol\":3596:3653  require(to != owner, \"ERC721: approval to current owner\") */\n      tag_147\n      jumpi\n      mload(0x40)\n      shl(0xe5, 0x461bcd)\n      dup2\n      mstore\n        /* \"#utility.yul\":5358:5360   */\n      0x20\n        /* \"@openzeppelin/contracts@4.7.3/token/ERC721/ERC721.sol\":3596:3653  require(to != owner, \"ERC721: approval to current owner\") */\n      0x04\n      dup3\n      add\n        /* \"#utility.yul\":5340:5361   */\n      mstore\n        /* \"#utility.yul\":5397:5399   */\n      0x21\n        /* \"#utility.yul\":5377:5395   */\n      0x24\n      dup3\n      add\n        /* \"#utility.yul\":5370:5400   */\n      mstore\n        /* \"#utility.yul\":5436:5470   */\n      0x4552433732313a20617070726f76616c20746f2063757272656e74206f776e65\n        /* \"#utility.yul\":5416:5434   */\n      0x44\n      dup3\n      add\n        /* \"#utility.yul\":5409:5471   */\n      mstore\n      shl(0xf9, 0x39)\n        /* \"#utility.yul\":5487:5505   */\n      0x64\n      dup3\n      add\n        /* \"#utility.yul\":5480:5511   */\n      mstore\n        /* \"#utility.yul\":5528:5547   */\n      0x84\n      add\n        /* \"@openzeppelin/contracts@4.7.3/token/ERC721/ERC721.sol\":3596:3653  require(to != owner, \"ERC721: approval to current owner\") */\n    tag_148:\n      mload(0x40)\n      dup1\n      swap2\n      sub\n      swap1\n      revert\n    tag_147:\n        /* \"@openzeppelin/contracts@4.7.3/utils/Context.sol\":719:729  msg.sender */\n      caller\n      sub(shl(0xa0, 0x01), 0x01)\n        /* \"@openzeppelin/contracts@4.7.3/token/ERC721/ERC721.sol\":3685:3706  _msgSender() == owner */\n      dup3\n      and\n      eq\n      dup1\n        /* \"@openzeppelin/contracts@4.7.3/token/ERC721/ERC721.sol\":3685:3747  _msgSender() == owner || isApprovedForAll(owner, _msgSender()) */\n      tag_153\n      jumpi\n      pop\n        /* \"@openzeppelin/contracts@4.7.3/token/ERC721/ERC721.sol\":3710:3747  isApprovedForAll(owner, _msgSender()) */\n      tag_153\n        /* \"@openzeppelin/contracts@4.7.3/token/ERC721/ERC721.sol\":3727:3732  owner */\n      dup2\n        /* \"@openzeppelin/contracts@4.7.3/utils/Context.sol\":719:729  msg.sender */\n      caller\n        /* \"@openzeppelin/contracts@4.7.3/token/ERC721/ERC721.sol\":4388:4550  function isApprovedForAll(address owner, address operator) public view virtual override returns (bool) {... */\n      tag_124\n      jump\t// in\n        /* \"@openzeppelin/contracts@4.7.3/token/ERC721/ERC721.sol\":3710:3747  isApprovedForAll(owner, _msgSender()) */\n    tag_153:\n        /* \"@openzeppelin/contracts@4.7.3/token/ERC721/ERC721.sol\":3664:3835  require(... */\n      tag_155\n      jumpi\n      mload(0x40)\n      shl(0xe5, 0x461bcd)\n      dup2\n      mstore\n        /* \"#utility.yul\":5760:5762   */\n      0x20\n        /* \"@openzeppelin/contracts@4.7.3/token/ERC721/ERC721.sol\":3664:3835  require(... */\n      0x04\n      dup3\n      add\n        /* \"#utility.yul\":5742:5763   */\n      mstore\n        /* \"#utility.yul\":5799:5801   */\n      0x3e\n        /* \"#utility.yul\":5779:5797   */\n      0x24\n      dup3\n      add\n        /* \"#utility.yul\":5772:5802   */\n      mstore\n        /* \"#utility.yul\":5838:5872   */\n      0x4552433732313a20617070726f76652063616c6c6572206973206e6f7420746f\n        /* \"#utility.yul\":5818:5836   */\n      0x44\n      dup3\n      add\n        /* \"#utility.yul\":5811:5873   */\n      mstore\n        /* \"#utility.yul\":5909:5941   */\n      0x6b656e206f776e6572206e6f7220617070726f76656420666f7220616c6c0000\n        /* \"#utility.yul\":5889:5907   */\n      0x64\n      dup3\n      add\n        /* \"#utility.yul\":5882:5942   */\n      mstore\n        /* \"#utility.yul\":5959:5978   */\n      0x84\n      add\n        /* \"@openzeppelin/contracts@4.7.3/token/ERC721/ERC721.sol\":3664:3835  require(... */\n      tag_148\n        /* \"#utility.yul\":5558:5984   */\n      jump\n        /* \"@openzeppelin/contracts@4.7.3/token/ERC721/ERC721.sol\":3664:3835  require(... */\n    tag_155:\n        /* \"@openzeppelin/contracts@4.7.3/token/ERC721/ERC721.sol\":3846:3867  _approve(to, tokenId) */\n      tag_158\n        /* \"@openzeppelin/contracts@4.7.3/token/ERC721/ERC721.sol\":3855:3857  to */\n      dup4\n        /* \"@openzeppelin/contracts@4.7.3/token/ERC721/ERC721.sol\":3859:3866  tokenId */\n      dup4\n        /* \"@openzeppelin/contracts@4.7.3/token/ERC721/ERC721.sol\":3846:3854  _approve */\n      tag_159\n        /* \"@openzeppelin/contracts@4.7.3/token/ERC721/ERC721.sol\":3846:3867  _approve(to, tokenId) */\n      jump\t// in\n    tag_158:\n        /* \"@openzeppelin/contracts@4.7.3/token/ERC721/ERC721.sol\":3537:3874  {... */\n      pop\n        /* \"@openzeppelin/contracts@4.7.3/token/ERC721/ERC721.sol\":3467:3874  function approve(address to, uint256 tokenId) public virtual override {... */\n      pop\n      pop\n      jump\t// out\n        /* \"@openzeppelin/contracts@4.7.3/token/ERC721/ERC721.sol\":4612:4939  function transferFrom(... */\n    tag_60:\n        /* \"@openzeppelin/contracts@4.7.3/token/ERC721/ERC721.sol\":4801:4842  _isApprovedOrOwner(_msgSender(), tokenId) */\n      tag_162\n        /* \"@openzeppelin/contracts@4.7.3/utils/Context.sol\":719:729  msg.sender */\n      caller\n        /* \"@openzeppelin/contracts@4.7.3/token/ERC721/ERC721.sol\":4834:4841  tokenId */\n      dup3\n        /* \"@openzeppelin/contracts@4.7.3/token/ERC721/ERC721.sol\":4801:4819  _isApprovedOrOwner */\n      tag_164\n        /* \"@openzeppelin/contracts@4.7.3/token/ERC721/ERC721.sol\":4801:4842  _isApprovedOrOwner(_msgSender(), tokenId) */\n      jump\t// in\n    tag_162:\n        /* \"@openzeppelin/contracts@4.7.3/token/ERC721/ERC721.sol\":4793:4893  require(_isApprovedOrOwner(_msgSender(), tokenId), \"ERC721: caller is not token owner nor approved\") */\n      tag_165\n      jumpi\n      mload(0x40)\n      shl(0xe5, 0x461bcd)\n      dup2\n      mstore\n      0x04\n      add\n      tag_148\n      swap1\n      tag_167\n      jump\t// in\n    tag_165:\n        /* \"@openzeppelin/contracts@4.7.3/token/ERC721/ERC721.sol\":4904:4932  _transfer(from, to, tokenId) */\n      tag_158\n        /* \"@openzeppelin/contracts@4.7.3/token/ERC721/ERC721.sol\":4914:4918  from */\n      dup4\n        /* \"@openzeppelin/contracts@4.7.3/token/ERC721/ERC721.sol\":4920:4922  to */\n      dup4\n        /* \"@openzeppelin/contracts@4.7.3/token/ERC721/ERC721.sol\":4924:4931  tokenId */\n      dup4\n        /* \"@openzeppelin/contracts@4.7.3/token/ERC721/ERC721.sol\":4904:4913  _transfer */\n      tag_169\n        /* \"@openzeppelin/contracts@4.7.3/token/ERC721/ERC721.sol\":4904:4932  _transfer(from, to, tokenId) */\n      jump\t// in\n        /* \"@openzeppelin/contracts@4.7.3/token/ERC721/extensions/ERC721Enumerable.sol\":1291:1544  function tokenOfOwnerByIndex(address owner, uint256 index) public view virtual override returns (uint256) {... */\n    tag_64:\n        /* \"@openzeppelin/contracts@4.7.3/token/ERC721/extensions/ERC721Enumerable.sol\":1388:1395  uint256 */\n      0x00\n        /* \"@openzeppelin/contracts@4.7.3/token/ERC721/extensions/ERC721Enumerable.sol\":1423:1446  ERC721.balanceOf(owner) */\n      tag_171\n        /* \"@openzeppelin/contracts@4.7.3/token/ERC721/extensions/ERC721Enumerable.sol\":1440:1445  owner */\n      dup4\n        /* \"@openzeppelin/contracts@4.7.3/token/ERC721/extensions/ERC721Enumerable.sol\":1423:1439  ERC721.balanceOf */\n      tag_94\n        /* \"@openzeppelin/contracts@4.7.3/token/ERC721/extensions/ERC721Enumerable.sol\":1423:1446  ERC721.balanceOf(owner) */\n      jump\t// in\n    tag_171:\n        /* \"@openzeppelin/contracts@4.7.3/token/ERC721/extensions/ERC721Enumerable.sol\":1415:1420  index */\n      dup3\n        /* \"@openzeppelin/contracts@4.7.3/token/ERC721/extensions/ERC721Enumerable.sol\":1415:1446  index < ERC721.balanceOf(owner) */\n      lt\n        /* \"@openzeppelin/contracts@4.7.3/token/ERC721/extensions/ERC721Enumerable.sol\":1407:1494  require(index < ERC721.balanceOf(owner), \"ERC721Enumerable: owner index out of bounds\") */\n      tag_172\n      jumpi\n      mload(0x40)\n      shl(0xe5, 0x461bcd)\n      dup2\n      mstore\n        /* \"#utility.yul\":6606:6608   */\n      0x20\n        /* \"@openzeppelin/contracts@4.7.3/token/ERC721/extensions/ERC721Enumerable.sol\":1407:1494  require(index < ERC721.balanceOf(owner), \"ERC721Enumerable: owner index out of bounds\") */\n      0x04\n      dup3\n      add\n        /* \"#utility.yul\":6588:6609   */\n      mstore\n        /* \"#utility.yul\":6645:6647   */\n      0x2b\n        /* \"#utility.yul\":6625:6643   */\n      0x24\n      dup3\n      add\n        /* \"#utility.yul\":6618:6648   */\n      mstore\n        /* \"#utility.yul\":6684:6718   */\n      0x455243373231456e756d657261626c653a206f776e657220696e646578206f75\n        /* \"#utility.yul\":6664:6682   */\n      0x44\n      dup3\n      add\n        /* \"#utility.yul\":6657:6719   */\n      mstore\n      shl(0xa8, 0x74206f6620626f756e6473)\n        /* \"#utility.yul\":6735:6753   */\n      0x64\n      dup3\n      add\n        /* \"#utility.yul\":6728:6769   */\n      mstore\n        /* \"#utility.yul\":6786:6805   */\n      0x84\n      add\n        /* \"@openzeppelin/contracts@4.7.3/token/ERC721/extensions/ERC721Enumerable.sol\":1407:1494  require(index < ERC721.balanceOf(owner), \"ERC721Enumerable: owner index out of bounds\") */\n      tag_148\n        /* \"#utility.yul\":6404:6811   */\n      jump\n        /* \"@openzeppelin/contracts@4.7.3/token/ERC721/extensions/ERC721Enumerable.sol\":1407:1494  require(index < ERC721.balanceOf(owner), \"ERC721Enumerable: owner index out of bounds\") */\n    tag_172:\n      pop\n      sub(shl(0xa0, 0x01), 0x01)\n        /* \"@openzeppelin/contracts@4.7.3/token/ERC721/extensions/ERC721Enumerable.sol\":1511:1530  _ownedTokens[owner] */\n      swap2\n      swap1\n      swap2\n      and\n      0x00\n      swap1\n      dup2\n      mstore\n        /* \"@openzeppelin/contracts@4.7.3/token/ERC721/extensions/ERC721Enumerable.sol\":1511:1523  _ownedTokens */\n      0x06\n        /* \"@openzeppelin/contracts@4.7.3/token/ERC721/extensions/ERC721Enumerable.sol\":1511:1530  _ownedTokens[owner] */\n      0x20\n      swap1\n      dup2\n      mstore\n      0x40\n      dup1\n      dup4\n      keccak256\n        /* \"@openzeppelin/contracts@4.7.3/token/ERC721/extensions/ERC721Enumerable.sol\":1511:1537  _ownedTokens[owner][index] */\n      swap4\n      dup4\n      mstore\n      swap3\n      swap1\n      mstore\n      keccak256\n      sload\n      swap1\n        /* \"@openzeppelin/contracts@4.7.3/token/ERC721/extensions/ERC721Enumerable.sol\":1291:1544  function tokenOfOwnerByIndex(address owner, uint256 index) public view virtual override returns (uint256) {... */\n      jump\t// out\n        /* \"MyNFT.sol\":1525:1690  function withdraw() public onlyOwner {... */\n    tag_68:\n        /* \"@openzeppelin/contracts@4.7.3/access/Ownable.sol\":1094:1107  _checkOwner() */\n      tag_176\n        /* \"@openzeppelin/contracts@4.7.3/access/Ownable.sol\":1094:1105  _checkOwner */\n      tag_177\n        /* \"@openzeppelin/contracts@4.7.3/access/Ownable.sol\":1094:1107  _checkOwner() */\n      jump\t// in\n    tag_176:\n        /* \"MyNFT.sol\":1605:1606  0 */\n      0x00\n        /* \"MyNFT.sol\":1581:1602  address(this).balance */\n      selfbalance\n        /* \"MyNFT.sol\":1581:1606  address(this).balance > 0 */\n      gt\n        /* \"MyNFT.sol\":1573:1623  require(address(this).balance > 0, \"Balance is 0\") */\n      tag_179\n      jumpi\n      mload(0x40)\n      shl(0xe5, 0x461bcd)\n      dup2\n      mstore\n        /* \"#utility.yul\":7018:7020   */\n      0x20\n        /* \"MyNFT.sol\":1573:1623  require(address(this).balance > 0, \"Balance is 0\") */\n      0x04\n      dup3\n      add\n        /* \"#utility.yul\":7000:7021   */\n      mstore\n        /* \"#utility.yul\":7057:7059   */\n      0x0c\n        /* \"#utility.yul\":7037:7055   */\n      0x24\n      dup3\n      add\n        /* \"#utility.yul\":7030:7060   */\n      mstore\n      shl(0xa4, 0x042616c616e6365206973203)\n        /* \"#utility.yul\":7076:7094   */\n      0x44\n      dup3\n      add\n        /* \"#utility.yul\":7069:7111   */\n      mstore\n        /* \"#utility.yul\":7128:7146   */\n      0x64\n      add\n        /* \"MyNFT.sol\":1573:1623  require(address(this).balance > 0, \"Balance is 0\") */\n      tag_148\n        /* \"#utility.yul\":6816:7152   */\n      jump\n        /* \"MyNFT.sol\":1573:1623  require(address(this).balance > 0, \"Balance is 0\") */\n    tag_179:\n        /* \"@openzeppelin/contracts@4.7.3/access/Ownable.sol\":1273:1279  _owner */\n      sload(0x0a)\n        /* \"MyNFT.sol\":1634:1682  payable(owner()).transfer(address(this).balance) */\n      mload(0x40)\n      sub(shl(0xa0, 0x01), 0x01)\n        /* \"@openzeppelin/contracts@4.7.3/access/Ownable.sol\":1273:1279  _owner */\n      swap1\n      swap2\n      and\n      swap1\n        /* \"MyNFT.sol\":1660:1681  address(this).balance */\n      selfbalance\n        /* \"MyNFT.sol\":1634:1682  payable(owner()).transfer(address(this).balance) */\n      dup1\n      iszero\n      0x08fc\n      mul\n      swap2\n      0x00\n      dup2\n      dup2\n      dup2\n        /* \"MyNFT.sol\":1660:1681  address(this).balance */\n      dup6\n        /* \"@openzeppelin/contracts@4.7.3/access/Ownable.sol\":1273:1279  _owner */\n      dup9\n        /* \"MyNFT.sol\":1634:1682  payable(owner()).transfer(address(this).balance) */\n      dup9\n      call\n      swap4\n      pop\n      pop\n      pop\n      pop\n      iszero\n      dup1\n      iszero\n      tag_184\n      jumpi\n      returndatasize\n      0x00\n      dup1\n      returndatacopy\n      revert(0x00, returndatasize)\n    tag_184:\n      pop\n        /* \"MyNFT.sol\":1525:1690  function withdraw() public onlyOwner {... */\n      jump\t// out\n        /* \"MyNFT.sol\":737:1015  function safeMint(address to) public payable {... */\n    tag_72:\n        /* \"MyNFT.sol\":817:827  Max_Supply */\n      sload(0x0c)\n        /* \"@openzeppelin/contracts@4.7.3/token/ERC721/extensions/ERC721Enumerable.sol\":1702:1712  _allTokens */\n      0x08\n        /* \"@openzeppelin/contracts@4.7.3/token/ERC721/extensions/ERC721Enumerable.sol\":1702:1719  _allTokens.length */\n      sload\n        /* \"MyNFT.sol\":801:827  totalSupply() < Max_Supply */\n      lt\n        /* \"MyNFT.sol\":793:852  require(totalSupply() < Max_Supply, \"Can't Mint More NFTs\") */\n      tag_187\n      jumpi\n      mload(0x40)\n      shl(0xe5, 0x461bcd)\n      dup2\n      mstore\n        /* \"#utility.yul\":7359:7361   */\n      0x20\n        /* \"MyNFT.sol\":793:852  require(totalSupply() < Max_Supply, \"Can't Mint More NFTs\") */\n      0x04\n      dup3\n      add\n        /* \"#utility.yul\":7341:7362   */\n      mstore\n        /* \"#utility.yul\":7398:7400   */\n      0x14\n        /* \"#utility.yul\":7378:7396   */\n      0x24\n      dup3\n      add\n        /* \"#utility.yul\":7371:7401   */\n      mstore\n      shl(0x60, 0x43616e2774204d696e74204d6f7265204e465473)\n        /* \"#utility.yul\":7417:7435   */\n      0x44\n      dup3\n      add\n        /* \"#utility.yul\":7410:7460   */\n      mstore\n        /* \"#utility.yul\":7477:7495   */\n      0x64\n      add\n        /* \"MyNFT.sol\":793:852  require(totalSupply() < Max_Supply, \"Can't Mint More NFTs\") */\n      tag_148\n        /* \"#utility.yul\":7157:7501   */\n      jump\n        /* \"MyNFT.sol\":793:852  require(totalSupply() < Max_Supply, \"Can't Mint More NFTs\") */\n    tag_187:\n        /* \"MyNFT.sol\":884:892  mintRate */\n      sload(0x0b)\n        /* \"MyNFT.sol\":871:880  msg.value */\n      callvalue\n        /* \"MyNFT.sol\":871:892  msg.value >= mintRate */\n      lt\n      iszero\n        /* \"MyNFT.sol\":863:918  require(msg.value >= mintRate, \"Not enough Ether sent\") */\n      tag_190\n      jumpi\n      mload(0x40)\n      shl(0xe5, 0x461bcd)\n      dup2\n      mstore\n        /* \"#utility.yul\":7708:7710   */\n      0x20\n        /* \"MyNFT.sol\":863:918  require(msg.value >= mintRate, \"Not enough Ether sent\") */\n      0x04\n      dup3\n      add\n        /* \"#utility.yul\":7690:7711   */\n      mstore\n        /* \"#utility.yul\":7747:7749   */\n      0x15\n        /* \"#utility.yul\":7727:7745   */\n      0x24\n      dup3\n      add\n        /* \"#utility.yul\":7720:7750   */\n      mstore\n      shl(0x5a, 0x139bdd08195b9bdd59da08115d1a195c881cd95b9d)\n        /* \"#utility.yul\":7766:7784   */\n      0x44\n      dup3\n      add\n        /* \"#utility.yul\":7759:7810   */\n      mstore\n        /* \"#utility.yul\":7827:7845   */\n      0x64\n      add\n        /* \"MyNFT.sol\":863:918  require(msg.value >= mintRate, \"Not enough Ether sent\") */\n      tag_148\n        /* \"#utility.yul\":7506:7851   */\n      jump\n        /* \"MyNFT.sol\":863:918  require(msg.value >= mintRate, \"Not enough Ether sent\") */\n    tag_190:\n        /* \"MyNFT.sol\":929:956  _tokenIdCounter.increment() */\n      tag_193\n        /* \"MyNFT.sol\":929:944  _tokenIdCounter */\n      0x0d\n        /* \"@openzeppelin/contracts@4.7.3/utils/Counters.sol\":1032:1051  counter._value += 1 */\n      dup1\n      sload\n        /* \"@openzeppelin/contracts@4.7.3/utils/Counters.sol\":1050:1051  1 */\n      0x01\n        /* \"@openzeppelin/contracts@4.7.3/utils/Counters.sol\":1032:1051  counter._value += 1 */\n      add\n      swap1\n      sstore\n        /* \"@openzeppelin/contracts@4.7.3/utils/Counters.sol\":945:1068  function increment(Counter storage counter) internal {... */\n      jump\n        /* \"MyNFT.sol\":929:956  _tokenIdCounter.increment() */\n    tag_193:\n        /* \"MyNFT.sol\":967:1007  _safeMint(to, _tokenIdCounter.current()) */\n      tag_184\n        /* \"MyNFT.sol\":977:979  to */\n      dup2\n        /* \"MyNFT.sol\":981:1006  _tokenIdCounter.current() */\n      tag_196\n        /* \"MyNFT.sol\":981:996  _tokenIdCounter */\n      0x0d\n        /* \"@openzeppelin/contracts@4.7.3/utils/Counters.sol\":918:932  counter._value */\n      sload\n      swap1\n        /* \"@openzeppelin/contracts@4.7.3/utils/Counters.sol\":827:939  function current(Counter storage counter) internal view returns (uint256) {... */\n      jump\n        /* \"MyNFT.sol\":981:1006  _tokenIdCounter.current() */\n    tag_196:\n        /* \"MyNFT.sol\":967:976  _safeMint */\n      tag_198\n        /* \"MyNFT.sol\":967:1007  _safeMint(to, _tokenIdCounter.current()) */\n      jump\t// in\n        /* \"@openzeppelin/contracts@4.7.3/token/ERC721/ERC721.sol\":5005:5184  function safeTransferFrom(... */\n    tag_76:\n        /* \"@openzeppelin/contracts@4.7.3/token/ERC721/ERC721.sol\":5138:5177  safeTransferFrom(from, to, tokenId, \"\") */\n      tag_158\n        /* \"@openzeppelin/contracts@4.7.3/token/ERC721/ERC721.sol\":5155:5159  from */\n      dup4\n        /* \"@openzeppelin/contracts@4.7.3/token/ERC721/ERC721.sol\":5161:5163  to */\n      dup4\n        /* \"@openzeppelin/contracts@4.7.3/token/ERC721/ERC721.sol\":5165:5172  tokenId */\n      dup4\n        /* \"@openzeppelin/contracts@4.7.3/token/ERC721/ERC721.sol\":5138:5177  safeTransferFrom(from, to, tokenId, \"\") */\n      mload(0x40)\n      dup1\n      0x20\n      add\n      0x40\n      mstore\n      dup1\n      0x00\n      dup2\n      mstore\n      pop\n        /* \"@openzeppelin/contracts@4.7.3/token/ERC721/ERC721.sol\":5138:5154  safeTransferFrom */\n      tag_116\n        /* \"@openzeppelin/contracts@4.7.3/token/ERC721/ERC721.sol\":5138:5177  safeTransferFrom(from, to, tokenId, \"\") */\n      jump\t// in\n        /* \"@openzeppelin/contracts@4.7.3/token/ERC721/extensions/ERC721Enumerable.sol\":1798:2028  function tokenByIndex(uint256 index) public view virtual override returns (uint256) {... */\n    tag_80:\n        /* \"@openzeppelin/contracts@4.7.3/token/ERC721/extensions/ERC721Enumerable.sol\":1873:1880  uint256 */\n      0x00\n        /* \"@openzeppelin/contracts@4.7.3/token/ERC721/extensions/ERC721Enumerable.sol\":1908:1938  ERC721Enumerable.totalSupply() */\n      tag_202\n        /* \"@openzeppelin/contracts@4.7.3/token/ERC721/extensions/ERC721Enumerable.sol\":1702:1712  _allTokens */\n      0x08\n        /* \"@openzeppelin/contracts@4.7.3/token/ERC721/extensions/ERC721Enumerable.sol\":1702:1719  _allTokens.length */\n      sload\n      swap1\n        /* \"@openzeppelin/contracts@4.7.3/token/ERC721/extensions/ERC721Enumerable.sol\":1615:1726  function totalSupply() public view virtual override returns (uint256) {... */\n      jump\n        /* \"@openzeppelin/contracts@4.7.3/token/ERC721/extensions/ERC721Enumerable.sol\":1908:1938  ERC721Enumerable.totalSupply() */\n    tag_202:\n        /* \"@openzeppelin/contracts@4.7.3/token/ERC721/extensions/ERC721Enumerable.sol\":1900:1905  index */\n      dup3\n        /* \"@openzeppelin/contracts@4.7.3/token/ERC721/extensions/ERC721Enumerable.sol\":1900:1938  index < ERC721Enumerable.totalSupply() */\n      lt\n        /* \"@openzeppelin/contracts@4.7.3/token/ERC721/extensions/ERC721Enumerable.sol\":1892:1987  require(index < ERC721Enumerable.totalSupply(), \"ERC721Enumerable: global index out of bounds\") */\n      tag_203\n      jumpi\n      mload(0x40)\n      shl(0xe5, 0x461bcd)\n      dup2\n      mstore\n        /* \"#utility.yul\":8058:8060   */\n      0x20\n        /* \"@openzeppelin/contracts@4.7.3/token/ERC721/extensions/ERC721Enumerable.sol\":1892:1987  require(index < ERC721Enumerable.totalSupply(), \"ERC721Enumerable: global index out of bounds\") */\n      0x04\n      dup3\n      add\n        /* \"#utility.yul\":8040:8061   */\n      mstore\n        /* \"#utility.yul\":8097:8099   */\n      0x2c\n        /* \"#utility.yul\":8077:8095   */\n      0x24\n      dup3\n      add\n        /* \"#utility.yul\":8070:8100   */\n      mstore\n        /* \"#utility.yul\":8136:8170   */\n      0x455243373231456e756d657261626c653a20676c6f62616c20696e646578206f\n        /* \"#utility.yul\":8116:8134   */\n      0x44\n      dup3\n      add\n        /* \"#utility.yul\":8109:8171   */\n      mstore\n      shl(0xa0, 0x7574206f6620626f756e6473)\n        /* \"#utility.yul\":8187:8205   */\n      0x64\n      dup3\n      add\n        /* \"#utility.yul\":8180:8222   */\n      mstore\n        /* \"#utility.yul\":8239:8258   */\n      0x84\n      add\n        /* \"@openzeppelin/contracts@4.7.3/token/ERC721/extensions/ERC721Enumerable.sol\":1892:1987  require(index < ERC721Enumerable.totalSupply(), \"ERC721Enumerable: global index out of bounds\") */\n      tag_148\n        /* \"#utility.yul\":7856:8264   */\n      jump\n        /* \"@openzeppelin/contracts@4.7.3/token/ERC721/extensions/ERC721Enumerable.sol\":1892:1987  require(index < ERC721Enumerable.totalSupply(), \"ERC721Enumerable: global index out of bounds\") */\n    tag_203:\n        /* \"@openzeppelin/contracts@4.7.3/token/ERC721/extensions/ERC721Enumerable.sol\":2004:2014  _allTokens */\n      0x08\n        /* \"@openzeppelin/contracts@4.7.3/token/ERC721/extensions/ERC721Enumerable.sol\":2015:2020  index */\n      dup3\n        /* \"@openzeppelin/contracts@4.7.3/token/ERC721/extensions/ERC721Enumerable.sol\":2004:2021  _allTokens[index] */\n      dup2\n      sload\n      dup2\n      lt\n      tag_207\n      jumpi\n      tag_207\n      tag_208\n      jump\t// in\n    tag_207:\n      swap1\n      0x00\n      mstore\n      keccak256(0x00, 0x20)\n      add\n      sload\n        /* \"@openzeppelin/contracts@4.7.3/token/ERC721/extensions/ERC721Enumerable.sol\":1997:2021  return _allTokens[index] */\n      swap1\n      pop\n        /* \"@openzeppelin/contracts@4.7.3/token/ERC721/extensions/ERC721Enumerable.sol\":1798:2028  function tokenByIndex(uint256 index) public view virtual override returns (uint256) {... */\n      swap2\n      swap1\n      pop\n      jump\t// out\n        /* \"@openzeppelin/contracts@4.7.3/token/ERC721/ERC721.sol\":2190:2408  function ownerOf(uint256 tokenId) public view virtual override returns (address) {... */\n    tag_85:\n        /* \"@openzeppelin/contracts@4.7.3/token/ERC721/ERC721.sol\":2262:2269  address */\n      0x00\n        /* \"@openzeppelin/contracts@4.7.3/token/ERC721/ERC721.sol\":2297:2313  _owners[tokenId] */\n      dup2\n      dup2\n      mstore\n        /* \"@openzeppelin/contracts@4.7.3/token/ERC721/ERC721.sol\":2297:2304  _owners */\n      0x02\n        /* \"@openzeppelin/contracts@4.7.3/token/ERC721/ERC721.sol\":2297:2313  _owners[tokenId] */\n      0x20\n      mstore\n      0x40\n      dup2\n      keccak256\n      sload\n      sub(shl(0xa0, 0x01), 0x01)\n      and\n      dup1\n        /* \"@openzeppelin/contracts@4.7.3/token/ERC721/ERC721.sol\":2323:2379  require(owner != address(0), \"ERC721: invalid token ID\") */\n      tag_133\n      jumpi\n      mload(0x40)\n      shl(0xe5, 0x461bcd)\n      dup2\n      mstore\n        /* \"#utility.yul\":8603:8605   */\n      0x20\n        /* \"@openzeppelin/contracts@4.7.3/token/ERC721/ERC721.sol\":2323:2379  require(owner != address(0), \"ERC721: invalid token ID\") */\n      0x04\n      dup3\n      add\n        /* \"#utility.yul\":8585:8606   */\n      mstore\n        /* \"#utility.yul\":8642:8644   */\n      0x18\n        /* \"#utility.yul\":8622:8640   */\n      0x24\n      dup3\n      add\n        /* \"#utility.yul\":8615:8645   */\n      mstore\n      shl(0x42, 0x115490cdcc8c4e881a5b9d985b1a59081d1bdad95b881251)\n        /* \"#utility.yul\":8661:8679   */\n      0x44\n      dup3\n      add\n        /* \"#utility.yul\":8654:8708   */\n      mstore\n        /* \"#utility.yul\":8725:8743   */\n      0x64\n      add\n        /* \"@openzeppelin/contracts@4.7.3/token/ERC721/ERC721.sol\":2323:2379  require(owner != address(0), \"ERC721: invalid token ID\") */\n      tag_148\n        /* \"#utility.yul\":8401:8749   */\n      jump\n        /* \"@openzeppelin/contracts@4.7.3/token/ERC721/ERC721.sol\":1929:2133  function balanceOf(address owner) public view virtual override returns (uint256) {... */\n    tag_94:\n        /* \"@openzeppelin/contracts@4.7.3/token/ERC721/ERC721.sol\":2001:2008  uint256 */\n      0x00\n      sub(shl(0xa0, 0x01), 0x01)\n        /* \"@openzeppelin/contracts@4.7.3/token/ERC721/ERC721.sol\":2028:2047  owner != address(0) */\n      dup3\n      and\n        /* \"@openzeppelin/contracts@4.7.3/token/ERC721/ERC721.sol\":2020:2093  require(owner != address(0), \"ERC721: address zero is not a valid owner\") */\n      tag_215\n      jumpi\n      mload(0x40)\n      shl(0xe5, 0x461bcd)\n      dup2\n      mstore\n        /* \"#utility.yul\":8956:8958   */\n      0x20\n        /* \"@openzeppelin/contracts@4.7.3/token/ERC721/ERC721.sol\":2020:2093  require(owner != address(0), \"ERC721: address zero is not a valid owner\") */\n      0x04\n      dup3\n      add\n        /* \"#utility.yul\":8938:8959   */\n      mstore\n        /* \"#utility.yul\":8995:8997   */\n      0x29\n        /* \"#utility.yul\":8975:8993   */\n      0x24\n      dup3\n      add\n        /* \"#utility.yul\":8968:8998   */\n      mstore\n        /* \"#utility.yul\":9034:9068   */\n      0x4552433732313a2061646472657373207a65726f206973206e6f742061207661\n        /* \"#utility.yul\":9014:9032   */\n      0x44\n      dup3\n      add\n        /* \"#utility.yul\":9007:9069   */\n      mstore\n      shl(0xb9, 0x3634b21037bbb732b9)\n        /* \"#utility.yul\":9085:9103   */\n      0x64\n      dup3\n      add\n        /* \"#utility.yul\":9078:9117   */\n      mstore\n        /* \"#utility.yul\":9134:9153   */\n      0x84\n      add\n        /* \"@openzeppelin/contracts@4.7.3/token/ERC721/ERC721.sol\":2020:2093  require(owner != address(0), \"ERC721: address zero is not a valid owner\") */\n      tag_148\n        /* \"#utility.yul\":8754:9159   */\n      jump\n        /* \"@openzeppelin/contracts@4.7.3/token/ERC721/ERC721.sol\":2020:2093  require(owner != address(0), \"ERC721: address zero is not a valid owner\") */\n    tag_215:\n      pop\n      sub(shl(0xa0, 0x01), 0x01)\n        /* \"@openzeppelin/contracts@4.7.3/token/ERC721/ERC721.sol\":2110:2126  _balances[owner] */\n      and\n      0x00\n      swap1\n      dup2\n      mstore\n        /* \"@openzeppelin/contracts@4.7.3/token/ERC721/ERC721.sol\":2110:2119  _balances */\n      0x03\n        /* \"@openzeppelin/contracts@4.7.3/token/ERC721/ERC721.sol\":2110:2126  _balances[owner] */\n      0x20\n      mstore\n      0x40\n      swap1\n      keccak256\n      sload\n      swap1\n        /* \"@openzeppelin/contracts@4.7.3/token/ERC721/ERC721.sol\":1929:2133  function balanceOf(address owner) public view virtual override returns (uint256) {... */\n      jump\t// out\n        /* \"@openzeppelin/contracts@4.7.3/access/Ownable.sol\":1831:1932  function renounceOwnership() public virtual onlyOwner {... */\n    tag_98:\n        /* \"@openzeppelin/contracts@4.7.3/access/Ownable.sol\":1094:1107  _checkOwner() */\n      tag_219\n        /* \"@openzeppelin/contracts@4.7.3/access/Ownable.sol\":1094:1105  _checkOwner */\n      tag_177\n        /* \"@openzeppelin/contracts@4.7.3/access/Ownable.sol\":1094:1107  _checkOwner() */\n      jump\t// in\n    tag_219:\n        /* \"@openzeppelin/contracts@4.7.3/access/Ownable.sol\":1895:1925  _transferOwnership(address(0)) */\n      tag_221\n        /* \"@openzeppelin/contracts@4.7.3/access/Ownable.sol\":1922:1923  0 */\n      0x00\n        /* \"@openzeppelin/contracts@4.7.3/access/Ownable.sol\":1895:1913  _transferOwnership */\n      tag_222\n        /* \"@openzeppelin/contracts@4.7.3/access/Ownable.sol\":1895:1925  _transferOwnership(address(0)) */\n      jump\t// in\n    tag_221:\n        /* \"@openzeppelin/contracts@4.7.3/access/Ownable.sol\":1831:1932  function renounceOwnership() public virtual onlyOwner {... */\n      jump\t// out\n        /* \"@openzeppelin/contracts@4.7.3/token/ERC721/ERC721.sol\":2632:2734  function symbol() public view virtual override returns (string memory) {... */\n    tag_105:\n        /* \"@openzeppelin/contracts@4.7.3/token/ERC721/ERC721.sol\":2688:2701  string memory */\n      0x60\n        /* \"@openzeppelin/contracts@4.7.3/token/ERC721/ERC721.sol\":2720:2727  _symbol */\n      0x01\n        /* \"@openzeppelin/contracts@4.7.3/token/ERC721/ERC721.sol\":2713:2727  return _symbol */\n      dup1\n      sload\n      tag_136\n      swap1\n      tag_137\n      jump\t// in\n        /* \"@openzeppelin/contracts@4.7.3/token/ERC721/ERC721.sol\":4169:4322  function setApprovalForAll(address operator, bool approved) public virtual override {... */\n    tag_111:\n        /* \"@openzeppelin/contracts@4.7.3/token/ERC721/ERC721.sol\":4263:4315  _setApprovalForAll(_msgSender(), operator, approved) */\n      tag_231\n        /* \"@openzeppelin/contracts@4.7.3/utils/Context.sol\":719:729  msg.sender */\n      caller\n        /* \"@openzeppelin/contracts@4.7.3/token/ERC721/ERC721.sol\":4296:4304  operator */\n      dup4\n        /* \"@openzeppelin/contracts@4.7.3/token/ERC721/ERC721.sol\":4306:4314  approved */\n      dup4\n        /* \"@openzeppelin/contracts@4.7.3/token/ERC721/ERC721.sol\":4263:4281  _setApprovalForAll */\n      tag_233\n        /* \"@openzeppelin/contracts@4.7.3/token/ERC721/ERC721.sol\":4263:4315  _setApprovalForAll(_msgSender(), operator, approved) */\n      jump\t// in\n    tag_231:\n        /* \"@openzeppelin/contracts@4.7.3/token/ERC721/ERC721.sol\":4169:4322  function setApprovalForAll(address operator, bool approved) public virtual override {... */\n      pop\n      pop\n      jump\t// out\n        /* \"@openzeppelin/contracts@4.7.3/token/ERC721/ERC721.sol\":5250:5565  function safeTransferFrom(... */\n    tag_116:\n        /* \"@openzeppelin/contracts@4.7.3/token/ERC721/ERC721.sol\":5418:5459  _isApprovedOrOwner(_msgSender(), tokenId) */\n      tag_235\n        /* \"@openzeppelin/contracts@4.7.3/utils/Context.sol\":719:729  msg.sender */\n      caller\n        /* \"@openzeppelin/contracts@4.7.3/token/ERC721/ERC721.sol\":5451:5458  tokenId */\n      dup4\n        /* \"@openzeppelin/contracts@4.7.3/token/ERC721/ERC721.sol\":5418:5436  _isApprovedOrOwner */\n      tag_164\n        /* \"@openzeppelin/contracts@4.7.3/token/ERC721/ERC721.sol\":5418:5459  _isApprovedOrOwner(_msgSender(), tokenId) */\n      jump\t// in\n    tag_235:\n        /* \"@openzeppelin/contracts@4.7.3/token/ERC721/ERC721.sol\":5410:5510  require(_isApprovedOrOwner(_msgSender(), tokenId), \"ERC721: caller is not token owner nor approved\") */\n      tag_237\n      jumpi\n      mload(0x40)\n      shl(0xe5, 0x461bcd)\n      dup2\n      mstore\n      0x04\n      add\n      tag_148\n      swap1\n      tag_167\n      jump\t// in\n    tag_237:\n        /* \"@openzeppelin/contracts@4.7.3/token/ERC721/ERC721.sol\":5520:5558  _safeTransfer(from, to, tokenId, data) */\n      tag_239\n        /* \"@openzeppelin/contracts@4.7.3/token/ERC721/ERC721.sol\":5534:5538  from */\n      dup5\n        /* \"@openzeppelin/contracts@4.7.3/token/ERC721/ERC721.sol\":5540:5542  to */\n      dup5\n        /* \"@openzeppelin/contracts@4.7.3/token/ERC721/ERC721.sol\":5544:5551  tokenId */\n      dup5\n        /* \"@openzeppelin/contracts@4.7.3/token/ERC721/ERC721.sol\":5553:5557  data */\n      dup5\n        /* \"@openzeppelin/contracts@4.7.3/token/ERC721/ERC721.sol\":5520:5533  _safeTransfer */\n      tag_240\n        /* \"@openzeppelin/contracts@4.7.3/token/ERC721/ERC721.sol\":5520:5558  _safeTransfer(from, to, tokenId, data) */\n      jump\t// in\n    tag_239:\n        /* \"@openzeppelin/contracts@4.7.3/token/ERC721/ERC721.sol\":5250:5565  function safeTransferFrom(... */\n      pop\n      pop\n      pop\n      pop\n      jump\t// out\n        /* \"@openzeppelin/contracts@4.7.3/token/ERC721/ERC721.sol\":2800:3076  function tokenURI(uint256 tokenId) public view virtual override returns (string memory) {... */\n    tag_120:\n        /* \"@openzeppelin/contracts@4.7.3/token/ERC721/ERC721.sol\":2873:2886  string memory */\n      0x60\n        /* \"@openzeppelin/contracts@4.7.3/token/ERC721/ERC721.sol\":2898:2921  _requireMinted(tokenId) */\n      tag_242\n        /* \"@openzeppelin/contracts@4.7.3/token/ERC721/ERC721.sol\":2913:2920  tokenId */\n      dup3\n        /* \"@openzeppelin/contracts@4.7.3/token/ERC721/ERC721.sol\":2898:2912  _requireMinted */\n      tag_144\n        /* \"@openzeppelin/contracts@4.7.3/token/ERC721/ERC721.sol\":2898:2921  _requireMinted(tokenId) */\n      jump\t// in\n    tag_242:\n        /* \"@openzeppelin/contracts@4.7.3/token/ERC721/ERC721.sol\":2932:2953  string memory baseURI */\n      0x00\n        /* \"@openzeppelin/contracts@4.7.3/token/ERC721/ERC721.sol\":2956:2966  _baseURI() */\n      tag_243\n        /* \"MyNFT.sol\":688:721  return \"https://test.com/tokens/\" */\n      0x40\n      dup1\n      mload\n      dup1\n      dup3\n      add\n      swap1\n      swap2\n      mstore\n      0x18\n      dup2\n      mstore\n      0x68747470733a2f2f746573742e636f6d2f746f6b656e732f0000000000000000\n      0x20\n      dup3\n      add\n      mstore\n      swap1\n        /* \"MyNFT.sol\":610:729  function _baseURI() internal pure override returns (string memory) {... */\n      jump\n        /* \"@openzeppelin/contracts@4.7.3/token/ERC721/ERC721.sol\":2956:2966  _baseURI() */\n    tag_243:\n        /* \"@openzeppelin/contracts@4.7.3/token/ERC721/ERC721.sol\":2932:2966  string memory baseURI = _baseURI() */\n      swap1\n      pop\n        /* \"@openzeppelin/contracts@4.7.3/token/ERC721/ERC721.sol\":3007:3008  0 */\n      0x00\n        /* \"@openzeppelin/contracts@4.7.3/token/ERC721/ERC721.sol\":2989:2996  baseURI */\n      dup2\n        /* \"@openzeppelin/contracts@4.7.3/token/ERC721/ERC721.sol\":2983:3004  bytes(baseURI).length */\n      mload\n        /* \"@openzeppelin/contracts@4.7.3/token/ERC721/ERC721.sol\":2983:3008  bytes(baseURI).length > 0 */\n      gt\n        /* \"@openzeppelin/contracts@4.7.3/token/ERC721/ERC721.sol\":2983:3069  bytes(baseURI).length > 0 ? string(abi.encodePacked(baseURI, tokenId.toString())) : \"\" */\n      tag_245\n      jumpi\n      mload(0x40)\n      dup1\n      0x20\n      add\n      0x40\n      mstore\n      dup1\n      0x00\n      dup2\n      mstore\n      pop\n      jump(tag_246)\n    tag_245:\n        /* \"@openzeppelin/contracts@4.7.3/token/ERC721/ERC721.sol\":3035:3042  baseURI */\n      dup1\n        /* \"@openzeppelin/contracts@4.7.3/token/ERC721/ERC721.sol\":3044:3062  tokenId.toString() */\n      tag_247\n        /* \"@openzeppelin/contracts@4.7.3/token/ERC721/ERC721.sol\":3044:3051  tokenId */\n      dup5\n        /* \"@openzeppelin/contracts@4.7.3/token/ERC721/ERC721.sol\":3044:3060  tokenId.toString */\n      tag_248\n        /* \"@openzeppelin/contracts@4.7.3/token/ERC721/ERC721.sol\":3044:3062  tokenId.toString() */\n      jump\t// in\n    tag_247:\n        /* \"@openzeppelin/contracts@4.7.3/token/ERC721/ERC721.sol\":3018:3063  abi.encodePacked(baseURI, tokenId.toString()) */\n      add(0x20, mload(0x40))\n      tag_249\n      swap3\n      swap2\n      swap1\n      tag_250\n      jump\t// in\n    tag_249:\n      mload(0x40)\n      0x20\n      dup2\n      dup4\n      sub\n      sub\n      dup2\n      mstore\n      swap1\n      0x40\n      mstore\n        /* \"@openzeppelin/contracts@4.7.3/token/ERC721/ERC721.sol\":2983:3069  bytes(baseURI).length > 0 ? string(abi.encodePacked(baseURI, tokenId.toString())) : \"\" */\n    tag_246:\n        /* \"@openzeppelin/contracts@4.7.3/token/ERC721/ERC721.sol\":2976:3069  return bytes(baseURI).length > 0 ? string(abi.encodePacked(baseURI, tokenId.toString())) : \"\" */\n      swap4\n        /* \"@openzeppelin/contracts@4.7.3/token/ERC721/ERC721.sol\":2800:3076  function tokenURI(uint256 tokenId) public view virtual override returns (string memory) {... */\n      swap3\n      pop\n      pop\n      pop\n      jump\t// out\n        /* \"@openzeppelin/contracts@4.7.3/access/Ownable.sol\":2081:2279  function transferOwnership(address newOwner) public virtual onlyOwner {... */\n    tag_131:\n        /* \"@openzeppelin/contracts@4.7.3/access/Ownable.sol\":1094:1107  _checkOwner() */\n      tag_253\n        /* \"@openzeppelin/contracts@4.7.3/access/Ownable.sol\":1094:1105  _checkOwner */\n      tag_177\n        /* \"@openzeppelin/contracts@4.7.3/access/Ownable.sol\":1094:1107  _checkOwner() */\n      jump\t// in\n    tag_253:\n      sub(shl(0xa0, 0x01), 0x01)\n        /* \"@openzeppelin/contracts@4.7.3/access/Ownable.sol\":2169:2191  newOwner != address(0) */\n      dup2\n      and\n        /* \"@openzeppelin/contracts@4.7.3/access/Ownable.sol\":2161:2234  require(newOwner != address(0), \"Ownable: new owner is the zero address\") */\n      tag_255\n      jumpi\n      mload(0x40)\n      shl(0xe5, 0x461bcd)\n      dup2\n      mstore\n        /* \"#utility.yul\":9841:9843   */\n      0x20\n        /* \"@openzeppelin/contracts@4.7.3/access/Ownable.sol\":2161:2234  require(newOwner != address(0), \"Ownable: new owner is the zero address\") */\n      0x04\n      dup3\n      add\n        /* \"#utility.yul\":9823:9844   */\n      mstore\n        /* \"#utility.yul\":9880:9882   */\n      0x26\n        /* \"#utility.yul\":9860:9878   */\n      0x24\n      dup3\n      add\n        /* \"#utility.yul\":9853:9883   */\n      mstore\n        /* \"#utility.yul\":9919:9953   */\n      0x4f776e61626c653a206e6577206f776e657220697320746865207a65726f2061\n        /* \"#utility.yul\":9899:9917   */\n      0x44\n      dup3\n      add\n        /* \"#utility.yul\":9892:9954   */\n      mstore\n      shl(0xd0, 0x646472657373)\n        /* \"#utility.yul\":9970:9988   */\n      0x64\n      dup3\n      add\n        /* \"#utility.yul\":9963:9999   */\n      mstore\n        /* \"#utility.yul\":10016:10035   */\n      0x84\n      add\n        /* \"@openzeppelin/contracts@4.7.3/access/Ownable.sol\":2161:2234  require(newOwner != address(0), \"Ownable: new owner is the zero address\") */\n      tag_148\n        /* \"#utility.yul\":9639:10041   */\n      jump\n        /* \"@openzeppelin/contracts@4.7.3/access/Ownable.sol\":2161:2234  require(newOwner != address(0), \"Ownable: new owner is the zero address\") */\n    tag_255:\n        /* \"@openzeppelin/contracts@4.7.3/access/Ownable.sol\":2244:2272  _transferOwnership(newOwner) */\n      tag_184\n        /* \"@openzeppelin/contracts@4.7.3/access/Ownable.sol\":2263:2271  newOwner */\n      dup2\n        /* \"@openzeppelin/contracts@4.7.3/access/Ownable.sol\":2244:2262  _transferOwnership */\n      tag_222\n        /* \"@openzeppelin/contracts@4.7.3/access/Ownable.sol\":2244:2272  _transferOwnership(newOwner) */\n      jump\t// in\n        /* \"@openzeppelin/contracts@4.7.3/token/ERC721/extensions/ERC721Enumerable.sol\":990:1212  function supportsInterface(bytes4 interfaceId) public view virtual override(IERC165, ERC721) returns (bool) {... */\n    tag_134:\n        /* \"@openzeppelin/contracts@4.7.3/token/ERC721/extensions/ERC721Enumerable.sol\":1092:1096  bool */\n      0x00\n      not(sub(shl(0xe0, 0x01), 0x01))\n        /* \"@openzeppelin/contracts@4.7.3/token/ERC721/extensions/ERC721Enumerable.sol\":1115:1165  interfaceId == type(IERC721Enumerable).interfaceId */\n      dup3\n      and\n      shl(0xe0, 0x780e9d63)\n      eq\n      dup1\n        /* \"@openzeppelin/contracts@4.7.3/token/ERC721/extensions/ERC721Enumerable.sol\":1115:1205  interfaceId == type(IERC721Enumerable).interfaceId || super.supportsInterface(interfaceId) */\n      tag_133\n      jumpi\n      pop\n        /* \"@openzeppelin/contracts@4.7.3/token/ERC721/extensions/ERC721Enumerable.sol\":1169:1205  super.supportsInterface(interfaceId) */\n      tag_133\n        /* \"@openzeppelin/contracts@4.7.3/token/ERC721/extensions/ERC721Enumerable.sol\":1193:1204  interfaceId */\n      dup3\n        /* \"@openzeppelin/contracts@4.7.3/token/ERC721/extensions/ERC721Enumerable.sol\":1169:1192  super.supportsInterface */\n      tag_262\n        /* \"@openzeppelin/contracts@4.7.3/token/ERC721/extensions/ERC721Enumerable.sol\":1169:1205  super.supportsInterface(interfaceId) */\n      jump\t// in\n        /* \"@openzeppelin/contracts@4.7.3/token/ERC721/ERC721.sol\":11657:11790  function _requireMinted(uint256 tokenId) internal view virtual {... */\n    tag_144:\n        /* \"@openzeppelin/contracts@4.7.3/token/ERC721/ERC721.sol\":7099:7103  bool */\n      0x00\n        /* \"@openzeppelin/contracts@4.7.3/token/ERC721/ERC721.sol\":7122:7138  _owners[tokenId] */\n      dup2\n      dup2\n      mstore\n        /* \"@openzeppelin/contracts@4.7.3/token/ERC721/ERC721.sol\":7122:7129  _owners */\n      0x02\n        /* \"@openzeppelin/contracts@4.7.3/token/ERC721/ERC721.sol\":7122:7138  _owners[tokenId] */\n      0x20\n      mstore\n      0x40\n      swap1\n      keccak256\n      sload\n      sub(shl(0xa0, 0x01), 0x01)\n      and\n        /* \"@openzeppelin/contracts@4.7.3/token/ERC721/ERC721.sol\":11730:11783  require(_exists(tokenId), \"ERC721: invalid token ID\") */\n      tag_184\n      jumpi\n      mload(0x40)\n      shl(0xe5, 0x461bcd)\n      dup2\n      mstore\n        /* \"#utility.yul\":8603:8605   */\n      0x20\n        /* \"@openzeppelin/contracts@4.7.3/token/ERC721/ERC721.sol\":11730:11783  require(_exists(tokenId), \"ERC721: invalid token ID\") */\n      0x04\n      dup3\n      add\n        /* \"#utility.yul\":8585:8606   */\n      mstore\n        /* \"#utility.yul\":8642:8644   */\n      0x18\n        /* \"#utility.yul\":8622:8640   */\n      0x24\n      dup3\n      add\n        /* \"#utility.yul\":8615:8645   */\n      mstore\n      shl(0x42, 0x115490cdcc8c4e881a5b9d985b1a59081d1bdad95b881251)\n        /* \"#utility.yul\":8661:8679   */\n      0x44\n      dup3\n      add\n        /* \"#utility.yul\":8654:8708   */\n      mstore\n        /* \"#utility.yul\":8725:8743   */\n      0x64\n      add\n        /* \"@openzeppelin/contracts@4.7.3/token/ERC721/ERC721.sol\":11730:11783  require(_exists(tokenId), \"ERC721: invalid token ID\") */\n      tag_148\n        /* \"#utility.yul\":8401:8749   */\n      jump\n        /* \"@openzeppelin/contracts@4.7.3/token/ERC721/ERC721.sol\":10959:11130  function _approve(address to, uint256 tokenId) internal virtual {... */\n    tag_159:\n        /* \"@openzeppelin/contracts@4.7.3/token/ERC721/ERC721.sol\":11033:11057  _tokenApprovals[tokenId] */\n      0x00\n      dup2\n      dup2\n      mstore\n        /* \"@openzeppelin/contracts@4.7.3/token/ERC721/ERC721.sol\":11033:11048  _tokenApprovals */\n      0x04\n        /* \"@openzeppelin/contracts@4.7.3/token/ERC721/ERC721.sol\":11033:11057  _tokenApprovals[tokenId] */\n      0x20\n      mstore\n      0x40\n      swap1\n      keccak256\n        /* \"@openzeppelin/contracts@4.7.3/token/ERC721/ERC721.sol\":11033:11062  _tokenApprovals[tokenId] = to */\n      dup1\n      sload\n      not(sub(shl(0xa0, 0x01), 0x01))\n      and\n      sub(shl(0xa0, 0x01), 0x01)\n      dup5\n      and\n      swap1\n      dup2\n      or\n      swap1\n      swap2\n      sstore\n        /* \"@openzeppelin/contracts@4.7.3/token/ERC721/ERC721.sol\":11033:11057  _tokenApprovals[tokenId] */\n      dup2\n      swap1\n        /* \"@openzeppelin/contracts@4.7.3/token/ERC721/ERC721.sol\":11086:11109  ERC721.ownerOf(tokenId) */\n      tag_270\n        /* \"@openzeppelin/contracts@4.7.3/token/ERC721/ERC721.sol\":11033:11057  _tokenApprovals[tokenId] */\n      dup3\n        /* \"@openzeppelin/contracts@4.7.3/token/ERC721/ERC721.sol\":11086:11100  ERC721.ownerOf */\n      tag_85\n        /* \"@openzeppelin/contracts@4.7.3/token/ERC721/ERC721.sol\":11086:11109  ERC721.ownerOf(tokenId) */\n      jump\t// in\n    tag_270:\n      sub(shl(0xa0, 0x01), 0x01)\n        /* \"@openzeppelin/contracts@4.7.3/token/ERC721/ERC721.sol\":11077:11123  Approval(ERC721.ownerOf(tokenId), to, tokenId) */\n      and\n      0x8c5be1e5ebec7d5bd14f71427d1e84f3dd0314c0f7b2291e5b200ac8c7c3b925\n      mload(0x40)\n      mload(0x40)\n      dup1\n      swap2\n      sub\n      swap1\n      log4\n        /* \"@openzeppelin/contracts@4.7.3/token/ERC721/ERC721.sol\":10959:11130  function _approve(address to, uint256 tokenId) internal virtual {... */\n      pop\n      pop\n      jump\t// out\n        /* \"@openzeppelin/contracts@4.7.3/token/ERC721/ERC721.sol\":7317:7578  function _isApprovedOrOwner(address spender, uint256 tokenId) internal view virtual returns (bool) {... */\n    tag_164:\n        /* \"@openzeppelin/contracts@4.7.3/token/ERC721/ERC721.sol\":7410:7414  bool */\n      0x00\n        /* \"@openzeppelin/contracts@4.7.3/token/ERC721/ERC721.sol\":7426:7439  address owner */\n      dup1\n        /* \"@openzeppelin/contracts@4.7.3/token/ERC721/ERC721.sol\":7442:7465  ERC721.ownerOf(tokenId) */\n      tag_272\n        /* \"@openzeppelin/contracts@4.7.3/token/ERC721/ERC721.sol\":7457:7464  tokenId */\n      dup4\n        /* \"@openzeppelin/contracts@4.7.3/token/ERC721/ERC721.sol\":7442:7456  ERC721.ownerOf */\n      tag_85\n        /* \"@openzeppelin/contracts@4.7.3/token/ERC721/ERC721.sol\":7442:7465  ERC721.ownerOf(tokenId) */\n      jump\t// in\n    tag_272:\n        /* \"@openzeppelin/contracts@4.7.3/token/ERC721/ERC721.sol\":7426:7465  address owner = ERC721.ownerOf(tokenId) */\n      swap1\n      pop\n        /* \"@openzeppelin/contracts@4.7.3/token/ERC721/ERC721.sol\":7494:7499  owner */\n      dup1\n      sub(shl(0xa0, 0x01), 0x01)\n        /* \"@openzeppelin/contracts@4.7.3/token/ERC721/ERC721.sol\":7483:7499  spender == owner */\n      and\n        /* \"@openzeppelin/contracts@4.7.3/token/ERC721/ERC721.sol\":7483:7490  spender */\n      dup5\n      sub(shl(0xa0, 0x01), 0x01)\n        /* \"@openzeppelin/contracts@4.7.3/token/ERC721/ERC721.sol\":7483:7499  spender == owner */\n      and\n      eq\n        /* \"@openzeppelin/contracts@4.7.3/token/ERC721/ERC721.sol\":7483:7535  spender == owner || isApprovedForAll(owner, spender) */\n      dup1\n      tag_274\n      jumpi\n      pop\n      sub(shl(0xa0, 0x01), 0x01)\n        /* \"@openzeppelin/contracts@4.7.3/token/ERC721/ERC721.sol\":4508:4533  _operatorApprovals[owner] */\n      dup1\n      dup3\n      and\n        /* \"@openzeppelin/contracts@4.7.3/token/ERC721/ERC721.sol\":4485:4489  bool */\n      0x00\n        /* \"@openzeppelin/contracts@4.7.3/token/ERC721/ERC721.sol\":4508:4533  _operatorApprovals[owner] */\n      swap1\n      dup2\n      mstore\n        /* \"@openzeppelin/contracts@4.7.3/token/ERC721/ERC721.sol\":4508:4526  _operatorApprovals */\n      0x05\n        /* \"@openzeppelin/contracts@4.7.3/token/ERC721/ERC721.sol\":4508:4533  _operatorApprovals[owner] */\n      0x20\n      swap1\n      dup2\n      mstore\n      0x40\n      dup1\n      dup4\n      keccak256\n        /* \"@openzeppelin/contracts@4.7.3/token/ERC721/ERC721.sol\":4508:4543  _operatorApprovals[owner][operator] */\n      swap4\n      dup9\n      and\n      dup4\n      mstore\n      swap3\n      swap1\n      mstore\n      keccak256\n      sload\n      0xff\n      and\n        /* \"@openzeppelin/contracts@4.7.3/token/ERC721/ERC721.sol\":7503:7535  isApprovedForAll(owner, spender) */\n    tag_274:\n        /* \"@openzeppelin/contracts@4.7.3/token/ERC721/ERC721.sol\":7483:7570  spender == owner || isApprovedForAll(owner, spender) || getApproved(tokenId) == spender */\n      dup1\n      tag_275\n      jumpi\n      pop\n        /* \"@openzeppelin/contracts@4.7.3/token/ERC721/ERC721.sol\":7563:7570  spender */\n      dup4\n      sub(shl(0xa0, 0x01), 0x01)\n        /* \"@openzeppelin/contracts@4.7.3/token/ERC721/ERC721.sol\":7539:7570  getApproved(tokenId) == spender */\n      and\n        /* \"@openzeppelin/contracts@4.7.3/token/ERC721/ERC721.sol\":7539:7559  getApproved(tokenId) */\n      tag_276\n        /* \"@openzeppelin/contracts@4.7.3/token/ERC721/ERC721.sol\":7551:7558  tokenId */\n      dup5\n        /* \"@openzeppelin/contracts@4.7.3/token/ERC721/ERC721.sol\":7539:7550  getApproved */\n      tag_43\n        /* \"@openzeppelin/contracts@4.7.3/token/ERC721/ERC721.sol\":7539:7559  getApproved(tokenId) */\n      jump\t// in\n    tag_276:\n      sub(shl(0xa0, 0x01), 0x01)\n        /* \"@openzeppelin/contracts@4.7.3/token/ERC721/ERC721.sol\":7539:7570  getApproved(tokenId) == spender */\n      and\n      eq\n        /* \"@openzeppelin/contracts@4.7.3/token/ERC721/ERC721.sol\":7483:7570  spender == owner || isApprovedForAll(owner, spender) || getApproved(tokenId) == spender */\n    tag_275:\n        /* \"@openzeppelin/contracts@4.7.3/token/ERC721/ERC721.sol\":7475:7571  return (spender == owner || isApprovedForAll(owner, spender) || getApproved(tokenId) == spender) */\n      swap5\n        /* \"@openzeppelin/contracts@4.7.3/token/ERC721/ERC721.sol\":7317:7578  function _isApprovedOrOwner(address spender, uint256 tokenId) internal view virtual returns (bool) {... */\n      swap4\n      pop\n      pop\n      pop\n      pop\n      jump\t// out\n        /* \"@openzeppelin/contracts@4.7.3/token/ERC721/ERC721.sol\":10242:10847  function _transfer(... */\n    tag_169:\n        /* \"@openzeppelin/contracts@4.7.3/token/ERC721/ERC721.sol\":10396:10400  from */\n      dup3\n      sub(shl(0xa0, 0x01), 0x01)\n        /* \"@openzeppelin/contracts@4.7.3/token/ERC721/ERC721.sol\":10369:10400  ERC721.ownerOf(tokenId) == from */\n      and\n        /* \"@openzeppelin/contracts@4.7.3/token/ERC721/ERC721.sol\":10369:10392  ERC721.ownerOf(tokenId) */\n      tag_278\n        /* \"@openzeppelin/contracts@4.7.3/token/ERC721/ERC721.sol\":10384:10391  tokenId */\n      dup3\n        /* \"@openzeppelin/contracts@4.7.3/token/ERC721/ERC721.sol\":10369:10383  ERC721.ownerOf */\n      tag_85\n        /* \"@openzeppelin/contracts@4.7.3/token/ERC721/ERC721.sol\":10369:10392  ERC721.ownerOf(tokenId) */\n      jump\t// in\n    tag_278:\n      sub(shl(0xa0, 0x01), 0x01)\n        /* \"@openzeppelin/contracts@4.7.3/token/ERC721/ERC721.sol\":10369:10400  ERC721.ownerOf(tokenId) == from */\n      and\n      eq\n        /* \"@openzeppelin/contracts@4.7.3/token/ERC721/ERC721.sol\":10361:10442  require(ERC721.ownerOf(tokenId) == from, \"ERC721: transfer from incorrect owner\") */\n      tag_279\n      jumpi\n      mload(0x40)\n      shl(0xe5, 0x461bcd)\n      dup2\n      mstore\n        /* \"#utility.yul\":10248:10250   */\n      0x20\n        /* \"@openzeppelin/contracts@4.7.3/token/ERC721/ERC721.sol\":10361:10442  require(ERC721.ownerOf(tokenId) == from, \"ERC721: transfer from incorrect owner\") */\n      0x04\n      dup3\n      add\n        /* \"#utility.yul\":10230:10251   */\n      mstore\n        /* \"#utility.yul\":10287:10289   */\n      0x25\n        /* \"#utility.yul\":10267:10285   */\n      0x24\n      dup3\n      add\n        /* \"#utility.yul\":10260:10290   */\n      mstore\n        /* \"#utility.yul\":10326:10360   */\n      0x4552433732313a207472616e736665722066726f6d20696e636f727265637420\n        /* \"#utility.yul\":10306:10324   */\n      0x44\n      dup3\n      add\n        /* \"#utility.yul\":10299:10361   */\n      mstore\n      shl(0xd9, 0x37bbb732b9)\n        /* \"#utility.yul\":10377:10395   */\n      0x64\n      dup3\n      add\n        /* \"#utility.yul\":10370:10405   */\n      mstore\n        /* \"#utility.yul\":10422:10441   */\n      0x84\n      add\n        /* \"@openzeppelin/contracts@4.7.3/token/ERC721/ERC721.sol\":10361:10442  require(ERC721.ownerOf(tokenId) == from, \"ERC721: transfer from incorrect owner\") */\n      tag_148\n        /* \"#utility.yul\":10046:10447   */\n      jump\n        /* \"@openzeppelin/contracts@4.7.3/token/ERC721/ERC721.sol\":10361:10442  require(ERC721.ownerOf(tokenId) == from, \"ERC721: transfer from incorrect owner\") */\n    tag_279:\n      sub(shl(0xa0, 0x01), 0x01)\n        /* \"@openzeppelin/contracts@4.7.3/token/ERC721/ERC721.sol\":10460:10476  to != address(0) */\n      dup3\n      and\n        /* \"@openzeppelin/contracts@4.7.3/token/ERC721/ERC721.sol\":10452:10517  require(to != address(0), \"ERC721: transfer to the zero address\") */\n      tag_282\n      jumpi\n      mload(0x40)\n      shl(0xe5, 0x461bcd)\n      dup2\n      mstore\n        /* \"#utility.yul\":10654:10656   */\n      0x20\n        /* \"@openzeppelin/contracts@4.7.3/token/ERC721/ERC721.sol\":10452:10517  require(to != address(0), \"ERC721: transfer to the zero address\") */\n      0x04\n      dup3\n      add\n        /* \"#utility.yul\":10636:10657   */\n      mstore\n        /* \"#utility.yul\":10693:10695   */\n      0x24\n        /* \"#utility.yul\":10673:10691   */\n      dup1\n      dup3\n      add\n        /* \"#utility.yul\":10666:10696   */\n      mstore\n        /* \"#utility.yul\":10732:10766   */\n      0x4552433732313a207472616e7366657220746f20746865207a65726f20616464\n        /* \"#utility.yul\":10712:10730   */\n      0x44\n      dup3\n      add\n        /* \"#utility.yul\":10705:10767   */\n      mstore\n      shl(0xe0, 0x72657373)\n        /* \"#utility.yul\":10783:10801   */\n      0x64\n      dup3\n      add\n        /* \"#utility.yul\":10776:10810   */\n      mstore\n        /* \"#utility.yul\":10827:10846   */\n      0x84\n      add\n        /* \"@openzeppelin/contracts@4.7.3/token/ERC721/ERC721.sol\":10452:10517  require(to != address(0), \"ERC721: transfer to the zero address\") */\n      tag_148\n        /* \"#utility.yul\":10452:10852   */\n      jump\n        /* \"@openzeppelin/contracts@4.7.3/token/ERC721/ERC721.sol\":10452:10517  require(to != address(0), \"ERC721: transfer to the zero address\") */\n    tag_282:\n        /* \"@openzeppelin/contracts@4.7.3/token/ERC721/ERC721.sol\":10528:10567  _beforeTokenTransfer(from, to, tokenId) */\n      tag_285\n        /* \"@openzeppelin/contracts@4.7.3/token/ERC721/ERC721.sol\":10549:10553  from */\n      dup4\n        /* \"@openzeppelin/contracts@4.7.3/token/ERC721/ERC721.sol\":10555:10557  to */\n      dup4\n        /* \"@openzeppelin/contracts@4.7.3/token/ERC721/ERC721.sol\":10559:10566  tokenId */\n      dup4\n        /* \"@openzeppelin/contracts@4.7.3/token/ERC721/ERC721.sol\":10528:10548  _beforeTokenTransfer */\n      tag_286\n        /* \"@openzeppelin/contracts@4.7.3/token/ERC721/ERC721.sol\":10528:10567  _beforeTokenTransfer(from, to, tokenId) */\n      jump\t// in\n    tag_285:\n        /* \"@openzeppelin/contracts@4.7.3/token/ERC721/ERC721.sol\":10629:10658  _approve(address(0), tokenId) */\n      tag_287\n        /* \"@openzeppelin/contracts@4.7.3/token/ERC721/ERC721.sol\":10646:10647  0 */\n      0x00\n        /* \"@openzeppelin/contracts@4.7.3/token/ERC721/ERC721.sol\":10650:10657  tokenId */\n      dup3\n        /* \"@openzeppelin/contracts@4.7.3/token/ERC721/ERC721.sol\":10629:10637  _approve */\n      tag_159\n        /* \"@openzeppelin/contracts@4.7.3/token/ERC721/ERC721.sol\":10629:10658  _approve(address(0), tokenId) */\n      jump\t// in\n    tag_287:\n      sub(shl(0xa0, 0x01), 0x01)\n        /* \"@openzeppelin/contracts@4.7.3/token/ERC721/ERC721.sol\":10669:10684  _balances[from] */\n      dup4\n      and\n      0x00\n      swap1\n      dup2\n      mstore\n        /* \"@openzeppelin/contracts@4.7.3/token/ERC721/ERC721.sol\":10669:10678  _balances */\n      0x03\n        /* \"@openzeppelin/contracts@4.7.3/token/ERC721/ERC721.sol\":10669:10684  _balances[from] */\n      0x20\n      mstore\n      0x40\n      dup2\n      keccak256\n        /* \"@openzeppelin/contracts@4.7.3/token/ERC721/ERC721.sol\":10669:10689  _balances[from] -= 1 */\n      dup1\n      sload\n        /* \"@openzeppelin/contracts@4.7.3/token/ERC721/ERC721.sol\":10688:10689  1 */\n      0x01\n      swap3\n        /* \"@openzeppelin/contracts@4.7.3/token/ERC721/ERC721.sol\":10669:10684  _balances[from] */\n      swap1\n        /* \"@openzeppelin/contracts@4.7.3/token/ERC721/ERC721.sol\":10669:10689  _balances[from] -= 1 */\n      tag_288\n      swap1\n        /* \"@openzeppelin/contracts@4.7.3/token/ERC721/ERC721.sol\":10688:10689  1 */\n      dup5\n      swap1\n        /* \"@openzeppelin/contracts@4.7.3/token/ERC721/ERC721.sol\":10669:10689  _balances[from] -= 1 */\n      tag_289\n      jump\t// in\n    tag_288:\n      swap1\n      swap2\n      sstore\n      pop\n      pop\n      sub(shl(0xa0, 0x01), 0x01)\n        /* \"@openzeppelin/contracts@4.7.3/token/ERC721/ERC721.sol\":10699:10712  _balances[to] */\n      dup3\n      and\n      0x00\n      swap1\n      dup2\n      mstore\n        /* \"@openzeppelin/contracts@4.7.3/token/ERC721/ERC721.sol\":10699:10708  _balances */\n      0x03\n        /* \"@openzeppelin/contracts@4.7.3/token/ERC721/ERC721.sol\":10699:10712  _balances[to] */\n      0x20\n      mstore\n      0x40\n      dup2\n      keccak256\n        /* \"@openzeppelin/contracts@4.7.3/token/ERC721/ERC721.sol\":10699:10717  _balances[to] += 1 */\n      dup1\n      sload\n        /* \"@openzeppelin/contracts@4.7.3/token/ERC721/ERC721.sol\":10716:10717  1 */\n      0x01\n      swap3\n        /* \"@openzeppelin/contracts@4.7.3/token/ERC721/ERC721.sol\":10699:10712  _balances[to] */\n      swap1\n        /* \"@openzeppelin/contracts@4.7.3/token/ERC721/ERC721.sol\":10699:10717  _balances[to] += 1 */\n      tag_290\n      swap1\n        /* \"@openzeppelin/contracts@4.7.3/token/ERC721/ERC721.sol\":10716:10717  1 */\n      dup5\n      swap1\n        /* \"@openzeppelin/contracts@4.7.3/token/ERC721/ERC721.sol\":10699:10717  _balances[to] += 1 */\n      tag_291\n      jump\t// in\n    tag_290:\n      swap1\n      swap2\n      sstore\n      pop\n      pop\n        /* \"@openzeppelin/contracts@4.7.3/token/ERC721/ERC721.sol\":10727:10743  _owners[tokenId] */\n      0x00\n      dup2\n      dup2\n      mstore\n        /* \"@openzeppelin/contracts@4.7.3/token/ERC721/ERC721.sol\":10727:10734  _owners */\n      0x02\n        /* \"@openzeppelin/contracts@4.7.3/token/ERC721/ERC721.sol\":10727:10743  _owners[tokenId] */\n      0x20\n      mstore\n      0x40\n      dup1\n      dup3\n      keccak256\n        /* \"@openzeppelin/contracts@4.7.3/token/ERC721/ERC721.sol\":10727:10748  _owners[tokenId] = to */\n      dup1\n      sload\n      not(sub(shl(0xa0, 0x01), 0x01))\n      and\n      sub(shl(0xa0, 0x01), 0x01)\n      dup7\n      dup2\n      and\n      swap2\n      dup3\n      or\n      swap1\n      swap3\n      sstore\n        /* \"@openzeppelin/contracts@4.7.3/token/ERC721/ERC721.sol\":10764:10791  Transfer(from, to, tokenId) */\n      swap2\n      mload\n        /* \"@openzeppelin/contracts@4.7.3/token/ERC721/ERC721.sol\":10727:10743  _owners[tokenId] */\n      dup5\n      swap4\n        /* \"@openzeppelin/contracts@4.7.3/token/ERC721/ERC721.sol\":10764:10791  Transfer(from, to, tokenId) */\n      swap2\n      dup8\n      and\n      swap2\n      0xddf252ad1be2c89b69c2b068fc378daa952ba7f163c4a11628f55a4df523b3ef\n      swap2\n      log4\n        /* \"@openzeppelin/contracts@4.7.3/token/ERC721/ERC721.sol\":3537:3874  {... */\n      pop\n        /* \"@openzeppelin/contracts@4.7.3/token/ERC721/ERC721.sol\":3467:3874  function approve(address to, uint256 tokenId) public virtual override {... */\n      pop\n      pop\n      jump\t// out\n        /* \"@openzeppelin/contracts@4.7.3/access/Ownable.sol\":1359:1489  function _checkOwner() internal view virtual {... */\n    tag_177:\n        /* \"@openzeppelin/contracts@4.7.3/access/Ownable.sol\":1273:1279  _owner */\n      and(sub(shl(0xa0, 0x01), 0x01), sload(0x0a))\n        /* \"@openzeppelin/contracts@4.7.3/utils/Context.sol\":719:729  msg.sender */\n      caller\n        /* \"@openzeppelin/contracts@4.7.3/access/Ownable.sol\":1422:1445  owner() == _msgSender() */\n      eq\n        /* \"@openzeppelin/contracts@4.7.3/access/Ownable.sol\":1414:1482  require(owner() == _msgSender(), \"Ownable: caller is not the owner\") */\n      tag_221\n      jumpi\n      mload(0x40)\n      shl(0xe5, 0x461bcd)\n      dup2\n      mstore\n        /* \"#utility.yul\":11454:11456   */\n      0x20\n        /* \"@openzeppelin/contracts@4.7.3/access/Ownable.sol\":1414:1482  require(owner() == _msgSender(), \"Ownable: caller is not the owner\") */\n      0x04\n      dup3\n      add\n        /* \"#utility.yul\":11436:11457   */\n      dup2\n      swap1\n      mstore\n        /* \"#utility.yul\":11473:11491   */\n      0x24\n      dup3\n      add\n        /* \"#utility.yul\":11466:11496   */\n      mstore\n        /* \"#utility.yul\":11532:11566   */\n      0x4f776e61626c653a2063616c6c6572206973206e6f7420746865206f776e6572\n        /* \"#utility.yul\":11512:11530   */\n      0x44\n      dup3\n      add\n        /* \"#utility.yul\":11505:11567   */\n      mstore\n        /* \"#utility.yul\":11584:11602   */\n      0x64\n      add\n        /* \"@openzeppelin/contracts@4.7.3/access/Ownable.sol\":1414:1482  require(owner() == _msgSender(), \"Ownable: caller is not the owner\") */\n      tag_148\n        /* \"#utility.yul\":11252:11608   */\n      jump\n        /* \"@openzeppelin/contracts@4.7.3/token/ERC721/ERC721.sol\":7908:8016  function _safeMint(address to, uint256 tokenId) internal virtual {... */\n    tag_198:\n        /* \"@openzeppelin/contracts@4.7.3/token/ERC721/ERC721.sol\":7983:8009  _safeMint(to, tokenId, \"\") */\n      tag_231\n        /* \"@openzeppelin/contracts@4.7.3/token/ERC721/ERC721.sol\":7993:7995  to */\n      dup3\n        /* \"@openzeppelin/contracts@4.7.3/token/ERC721/ERC721.sol\":7997:8004  tokenId */\n      dup3\n        /* \"@openzeppelin/contracts@4.7.3/token/ERC721/ERC721.sol\":7983:8009  _safeMint(to, tokenId, \"\") */\n      mload(0x40)\n      dup1\n      0x20\n      add\n      0x40\n      mstore\n      dup1\n      0x00\n      dup2\n      mstore\n      pop\n        /* \"@openzeppelin/contracts@4.7.3/token/ERC721/ERC721.sol\":7983:7992  _safeMint */\n      tag_304\n        /* \"@openzeppelin/contracts@4.7.3/token/ERC721/ERC721.sol\":7983:8009  _safeMint(to, tokenId, \"\") */\n      jump\t// in\n        /* \"@openzeppelin/contracts@4.7.3/access/Ownable.sol\":2433:2620  function _transferOwnership(address newOwner) internal virtual {... */\n    tag_222:\n        /* \"@openzeppelin/contracts@4.7.3/access/Ownable.sol\":2525:2531  _owner */\n      0x0a\n      dup1\n      sload\n      sub(shl(0xa0, 0x01), 0x01)\n        /* \"@openzeppelin/contracts@4.7.3/access/Ownable.sol\":2541:2558  _owner = newOwner */\n      dup4\n      dup2\n      and\n      not(sub(shl(0xa0, 0x01), 0x01))\n      dup4\n      and\n      dup2\n      or\n      swap1\n      swap4\n      sstore\n        /* \"@openzeppelin/contracts@4.7.3/access/Ownable.sol\":2573:2613  OwnershipTransferred(oldOwner, newOwner) */\n      mload(0x40)\n        /* \"@openzeppelin/contracts@4.7.3/access/Ownable.sol\":2525:2531  _owner */\n      swap2\n      and\n      swap2\n        /* \"@openzeppelin/contracts@4.7.3/access/Ownable.sol\":2541:2558  _owner = newOwner */\n      swap1\n        /* \"@openzeppelin/contracts@4.7.3/access/Ownable.sol\":2525:2531  _owner */\n      dup3\n      swap1\n        /* \"@openzeppelin/contracts@4.7.3/access/Ownable.sol\":2573:2613  OwnershipTransferred(oldOwner, newOwner) */\n      0x8be0079c531659141344cd1fd0a4f28419497f9722a3daafe3b4186f6b6457e0\n      swap1\n        /* \"@openzeppelin/contracts@4.7.3/access/Ownable.sol\":2506:2522  address oldOwner */\n      0x00\n      swap1\n        /* \"@openzeppelin/contracts@4.7.3/access/Ownable.sol\":2573:2613  OwnershipTransferred(oldOwner, newOwner) */\n      log3\n        /* \"@openzeppelin/contracts@4.7.3/access/Ownable.sol\":2496:2620  {... */\n      pop\n        /* \"@openzeppelin/contracts@4.7.3/access/Ownable.sol\":2433:2620  function _transferOwnership(address newOwner) internal virtual {... */\n      pop\n      jump\t// out\n        /* \"@openzeppelin/contracts@4.7.3/token/ERC721/ERC721.sol\":11266:11573  function _setApprovalForAll(... */\n    tag_233:\n        /* \"@openzeppelin/contracts@4.7.3/token/ERC721/ERC721.sol\":11416:11424  operator */\n      dup2\n      sub(shl(0xa0, 0x01), 0x01)\n        /* \"@openzeppelin/contracts@4.7.3/token/ERC721/ERC721.sol\":11407:11424  owner != operator */\n      and\n        /* \"@openzeppelin/contracts@4.7.3/token/ERC721/ERC721.sol\":11407:11412  owner */\n      dup4\n      sub(shl(0xa0, 0x01), 0x01)\n        /* \"@openzeppelin/contracts@4.7.3/token/ERC721/ERC721.sol\":11407:11424  owner != operator */\n      and\n      sub\n        /* \"@openzeppelin/contracts@4.7.3/token/ERC721/ERC721.sol\":11399:11454  require(owner != operator, \"ERC721: approve to caller\") */\n      tag_307\n      jumpi\n      mload(0x40)\n      shl(0xe5, 0x461bcd)\n      dup2\n      mstore\n        /* \"#utility.yul\":11815:11817   */\n      0x20\n        /* \"@openzeppelin/contracts@4.7.3/token/ERC721/ERC721.sol\":11399:11454  require(owner != operator, \"ERC721: approve to caller\") */\n      0x04\n      dup3\n      add\n        /* \"#utility.yul\":11797:11818   */\n      mstore\n        /* \"#utility.yul\":11854:11856   */\n      0x19\n        /* \"#utility.yul\":11834:11852   */\n      0x24\n      dup3\n      add\n        /* \"#utility.yul\":11827:11857   */\n      mstore\n        /* \"#utility.yul\":11893:11920   */\n      0x4552433732313a20617070726f766520746f2063616c6c657200000000000000\n        /* \"#utility.yul\":11873:11891   */\n      0x44\n      dup3\n      add\n        /* \"#utility.yul\":11866:11921   */\n      mstore\n        /* \"#utility.yul\":11938:11956   */\n      0x64\n      add\n        /* \"@openzeppelin/contracts@4.7.3/token/ERC721/ERC721.sol\":11399:11454  require(owner != operator, \"ERC721: approve to caller\") */\n      tag_148\n        /* \"#utility.yul\":11613:11962   */\n      jump\n        /* \"@openzeppelin/contracts@4.7.3/token/ERC721/ERC721.sol\":11399:11454  require(owner != operator, \"ERC721: approve to caller\") */\n    tag_307:\n      sub(shl(0xa0, 0x01), 0x01)\n        /* \"@openzeppelin/contracts@4.7.3/token/ERC721/ERC721.sol\":11464:11489  _operatorApprovals[owner] */\n      dup4\n      dup2\n      and\n      0x00\n      dup2\n      dup2\n      mstore\n        /* \"@openzeppelin/contracts@4.7.3/token/ERC721/ERC721.sol\":11464:11482  _operatorApprovals */\n      0x05\n        /* \"@openzeppelin/contracts@4.7.3/token/ERC721/ERC721.sol\":11464:11489  _operatorApprovals[owner] */\n      0x20\n      swap1\n      dup2\n      mstore\n      0x40\n      dup1\n      dup4\n      keccak256\n        /* \"@openzeppelin/contracts@4.7.3/token/ERC721/ERC721.sol\":11464:11499  _operatorApprovals[owner][operator] */\n      swap5\n      dup8\n      and\n      dup1\n      dup5\n      mstore\n      swap5\n      dup3\n      mstore\n      swap2\n      dup3\n      swap1\n      keccak256\n        /* \"@openzeppelin/contracts@4.7.3/token/ERC721/ERC721.sol\":11464:11510  _operatorApprovals[owner][operator] = approved */\n      dup1\n      sload\n      not(0xff)\n      and\n      dup7\n      iszero\n      iszero\n      swap1\n      dup2\n      or\n      swap1\n      swap2\n      sstore\n        /* \"@openzeppelin/contracts@4.7.3/token/ERC721/ERC721.sol\":11525:11566  ApprovalForAll(owner, operator, approved) */\n      swap2\n      mload\n        /* \"#utility.yul\":540:581   */\n      swap2\n      dup3\n      mstore\n        /* \"@openzeppelin/contracts@4.7.3/token/ERC721/ERC721.sol\":11525:11566  ApprovalForAll(owner, operator, approved) */\n      0x17307eab39ab6107e8899845ad3d59bd9653f200f220920489ca2b5937696c31\n      swap2\n        /* \"#utility.yul\":513:531   */\n      add\n        /* \"@openzeppelin/contracts@4.7.3/token/ERC721/ERC721.sol\":11525:11566  ApprovalForAll(owner, operator, approved) */\n      mload(0x40)\n      dup1\n      swap2\n      sub\n      swap1\n      log3\n        /* \"@openzeppelin/contracts@4.7.3/token/ERC721/ERC721.sol\":11266:11573  function _setApprovalForAll(... */\n      pop\n      pop\n      pop\n      jump\t// out\n        /* \"@openzeppelin/contracts@4.7.3/token/ERC721/ERC721.sol\":6426:6731  function _safeTransfer(... */\n    tag_240:\n        /* \"@openzeppelin/contracts@4.7.3/token/ERC721/ERC721.sol\":6576:6604  _transfer(from, to, tokenId) */\n      tag_312\n        /* \"@openzeppelin/contracts@4.7.3/token/ERC721/ERC721.sol\":6586:6590  from */\n      dup5\n        /* \"@openzeppelin/contracts@4.7.3/token/ERC721/ERC721.sol\":6592:6594  to */\n      dup5\n        /* \"@openzeppelin/contracts@4.7.3/token/ERC721/ERC721.sol\":6596:6603  tokenId */\n      dup5\n        /* \"@openzeppelin/contracts@4.7.3/token/ERC721/ERC721.sol\":6576:6585  _transfer */\n      tag_169\n        /* \"@openzeppelin/contracts@4.7.3/token/ERC721/ERC721.sol\":6576:6604  _transfer(from, to, tokenId) */\n      jump\t// in\n    tag_312:\n        /* \"@openzeppelin/contracts@4.7.3/token/ERC721/ERC721.sol\":6622:6669  _checkOnERC721Received(from, to, tokenId, data) */\n      tag_313\n        /* \"@openzeppelin/contracts@4.7.3/token/ERC721/ERC721.sol\":6645:6649  from */\n      dup5\n        /* \"@openzeppelin/contracts@4.7.3/token/ERC721/ERC721.sol\":6651:6653  to */\n      dup5\n        /* \"@openzeppelin/contracts@4.7.3/token/ERC721/ERC721.sol\":6655:6662  tokenId */\n      dup5\n        /* \"@openzeppelin/contracts@4.7.3/token/ERC721/ERC721.sol\":6664:6668  data */\n      dup5\n        /* \"@openzeppelin/contracts@4.7.3/token/ERC721/ERC721.sol\":6622:6644  _checkOnERC721Received */\n      tag_314\n        /* \"@openzeppelin/contracts@4.7.3/token/ERC721/ERC721.sol\":6622:6669  _checkOnERC721Received(from, to, tokenId, data) */\n      jump\t// in\n    tag_313:\n        /* \"@openzeppelin/contracts@4.7.3/token/ERC721/ERC721.sol\":6614:6724  require(_checkOnERC721Received(from, to, tokenId, data), \"ERC721: transfer to non ERC721Receiver implementer\") */\n      tag_239\n      jumpi\n      mload(0x40)\n      shl(0xe5, 0x461bcd)\n      dup2\n      mstore\n      0x04\n      add\n      tag_148\n      swap1\n      tag_317\n      jump\t// in\n        /* \"@openzeppelin/contracts@4.7.3/utils/Strings.sol\":392:1095  function toString(uint256 value) internal pure returns (string memory) {... */\n    tag_248:\n        /* \"@openzeppelin/contracts@4.7.3/utils/Strings.sol\":448:461  string memory */\n      0x60\n        /* \"@openzeppelin/contracts@4.7.3/utils/Strings.sol\":665:670  value */\n      dup2\n        /* \"@openzeppelin/contracts@4.7.3/utils/Strings.sol\":674:675  0 */\n      0x00\n        /* \"@openzeppelin/contracts@4.7.3/utils/Strings.sol\":665:675  value == 0 */\n      sub\n        /* \"@openzeppelin/contracts@4.7.3/utils/Strings.sol\":661:712  if (value == 0) {... */\n      tag_320\n      jumpi\n      pop\n      pop\n        /* \"@openzeppelin/contracts@4.7.3/utils/Strings.sol\":691:701  return \"0\" */\n      0x40\n      dup1\n      mload\n      dup1\n      dup3\n      add\n      swap1\n      swap2\n      mstore\n      0x01\n      dup2\n      mstore\n      shl(0xfc, 0x03)\n      0x20\n      dup3\n      add\n      mstore\n      swap1\n        /* \"@openzeppelin/contracts@4.7.3/utils/Strings.sol\":392:1095  function toString(uint256 value) internal pure returns (string memory) {... */\n      jump\t// out\n        /* \"@openzeppelin/contracts@4.7.3/utils/Strings.sol\":661:712  if (value == 0) {... */\n    tag_320:\n        /* \"@openzeppelin/contracts@4.7.3/utils/Strings.sol\":736:741  value */\n      dup2\n        /* \"@openzeppelin/contracts@4.7.3/utils/Strings.sol\":721:733  uint256 temp */\n      0x00\n        /* \"@openzeppelin/contracts@4.7.3/utils/Strings.sol\":775:850  while (temp != 0) {... */\n    tag_321:\n        /* \"@openzeppelin/contracts@4.7.3/utils/Strings.sol\":782:791  temp != 0 */\n      dup2\n      iszero\n        /* \"@openzeppelin/contracts@4.7.3/utils/Strings.sol\":775:850  while (temp != 0) {... */\n      tag_322\n      jumpi\n        /* \"@openzeppelin/contracts@4.7.3/utils/Strings.sol\":807:815  digits++ */\n      dup1\n      tag_323\n      dup2\n      tag_324\n      jump\t// in\n    tag_323:\n      swap2\n      pop\n        /* \"@openzeppelin/contracts@4.7.3/utils/Strings.sol\":829:839  temp /= 10 */\n      tag_325\n      swap1\n      pop\n        /* \"@openzeppelin/contracts@4.7.3/utils/Strings.sol\":837:839  10 */\n      0x0a\n        /* \"@openzeppelin/contracts@4.7.3/utils/Strings.sol\":829:839  temp /= 10 */\n      dup4\n      tag_326\n      jump\t// in\n    tag_325:\n      swap2\n      pop\n        /* \"@openzeppelin/contracts@4.7.3/utils/Strings.sol\":775:850  while (temp != 0) {... */\n      jump(tag_321)\n    tag_322:\n        /* \"@openzeppelin/contracts@4.7.3/utils/Strings.sol\":859:878  bytes memory buffer */\n      0x00\n        /* \"@openzeppelin/contracts@4.7.3/utils/Strings.sol\":891:897  digits */\n      dup2\n        /* \"@openzeppelin/contracts@4.7.3/utils/Strings.sol\":881:898  new bytes(digits) */\n      0xffffffffffffffff\n      dup2\n      gt\n      iszero\n      tag_328\n      jumpi\n      tag_328\n      tag_329\n      jump\t// in\n    tag_328:\n      mload(0x40)\n      swap1\n      dup1\n      dup3\n      mstore\n      dup1\n      0x1f\n      add\n      not(0x1f)\n      and\n      0x20\n      add\n      dup3\n      add\n      0x40\n      mstore\n      dup1\n      iszero\n      tag_330\n      jumpi\n      0x20\n      dup3\n      add\n      dup2\n      dup1\n      calldatasize\n      dup4\n      calldatacopy\n      add\n      swap1\n      pop\n    tag_330:\n      pop\n        /* \"@openzeppelin/contracts@4.7.3/utils/Strings.sol\":859:898  bytes memory buffer = new bytes(digits) */\n      swap1\n      pop\n        /* \"@openzeppelin/contracts@4.7.3/utils/Strings.sol\":908:1058  while (value != 0) {... */\n    tag_331:\n        /* \"@openzeppelin/contracts@4.7.3/utils/Strings.sol\":915:925  value != 0 */\n      dup5\n      iszero\n        /* \"@openzeppelin/contracts@4.7.3/utils/Strings.sol\":908:1058  while (value != 0) {... */\n      tag_275\n      jumpi\n        /* \"@openzeppelin/contracts@4.7.3/utils/Strings.sol\":941:952  digits -= 1 */\n      tag_333\n        /* \"@openzeppelin/contracts@4.7.3/utils/Strings.sol\":951:952  1 */\n      0x01\n        /* \"@openzeppelin/contracts@4.7.3/utils/Strings.sol\":941:952  digits -= 1 */\n      dup4\n      tag_289\n      jump\t// in\n    tag_333:\n      swap2\n      pop\n        /* \"@openzeppelin/contracts@4.7.3/utils/Strings.sol\":1009:1019  value % 10 */\n      tag_334\n        /* \"@openzeppelin/contracts@4.7.3/utils/Strings.sol\":1017:1019  10 */\n      0x0a\n        /* \"@openzeppelin/contracts@4.7.3/utils/Strings.sol\":1009:1014  value */\n      dup7\n        /* \"@openzeppelin/contracts@4.7.3/utils/Strings.sol\":1009:1019  value % 10 */\n      tag_335\n      jump\t// in\n    tag_334:\n        /* \"@openzeppelin/contracts@4.7.3/utils/Strings.sol\":996:1020  48 + uint256(value % 10) */\n      tag_336\n      swap1\n        /* \"@openzeppelin/contracts@4.7.3/utils/Strings.sol\":996:998  48 */\n      0x30\n        /* \"@openzeppelin/contracts@4.7.3/utils/Strings.sol\":996:1020  48 + uint256(value % 10) */\n      tag_291\n      jump\t// in\n    tag_336:\n        /* \"@openzeppelin/contracts@4.7.3/utils/Strings.sol\":983:1022  bytes1(uint8(48 + uint256(value % 10))) */\n      0xf8\n      shl\n        /* \"@openzeppelin/contracts@4.7.3/utils/Strings.sol\":966:972  buffer */\n      dup2\n        /* \"@openzeppelin/contracts@4.7.3/utils/Strings.sol\":973:979  digits */\n      dup4\n        /* \"@openzeppelin/contracts@4.7.3/utils/Strings.sol\":966:980  buffer[digits] */\n      dup2\n      mload\n      dup2\n      lt\n      tag_338\n      jumpi\n      tag_338\n      tag_208\n      jump\t// in\n    tag_338:\n      0x20\n      add\n      add\n        /* \"@openzeppelin/contracts@4.7.3/utils/Strings.sol\":966:1022  buffer[digits] = bytes1(uint8(48 + uint256(value % 10))) */\n      swap1\n      not(sub(shl(0xf8, 0x01), 0x01))\n      and\n      swap1\n      dup2\n      0x00\n      byte\n      swap1\n      mstore8\n      pop\n        /* \"@openzeppelin/contracts@4.7.3/utils/Strings.sol\":1036:1047  value /= 10 */\n      tag_339\n        /* \"@openzeppelin/contracts@4.7.3/utils/Strings.sol\":1045:1047  10 */\n      0x0a\n        /* \"@openzeppelin/contracts@4.7.3/utils/Strings.sol\":1036:1047  value /= 10 */\n      dup7\n      tag_326\n      jump\t// in\n    tag_339:\n      swap5\n      pop\n        /* \"@openzeppelin/contracts@4.7.3/utils/Strings.sol\":908:1058  while (value != 0) {... */\n      jump(tag_331)\n        /* \"@openzeppelin/contracts@4.7.3/token/ERC721/ERC721.sol\":1570:1870  function supportsInterface(bytes4 interfaceId) public view virtual override(ERC165, IERC165) returns (bool) {... */\n    tag_262:\n        /* \"@openzeppelin/contracts@4.7.3/token/ERC721/ERC721.sol\":1672:1676  bool */\n      0x00\n      not(sub(shl(0xe0, 0x01), 0x01))\n        /* \"@openzeppelin/contracts@4.7.3/token/ERC721/ERC721.sol\":1707:1747  interfaceId == type(IERC721).interfaceId */\n      dup3\n      and\n      shl(0xe0, 0x80ac58cd)\n      eq\n      dup1\n        /* \"@openzeppelin/contracts@4.7.3/token/ERC721/ERC721.sol\":1707:1811  interfaceId == type(IERC721).interfaceId ||... */\n      tag_341\n      jumpi\n      pop\n      not(sub(shl(0xe0, 0x01), 0x01))\n        /* \"@openzeppelin/contracts@4.7.3/token/ERC721/ERC721.sol\":1763:1811  interfaceId == type(IERC721Metadata).interfaceId */\n      dup3\n      and\n      shl(0xe0, 0x5b5e139f)\n      eq\n        /* \"@openzeppelin/contracts@4.7.3/token/ERC721/ERC721.sol\":1707:1811  interfaceId == type(IERC721).interfaceId ||... */\n    tag_341:\n        /* \"@openzeppelin/contracts@4.7.3/token/ERC721/ERC721.sol\":1707:1863  interfaceId == type(IERC721).interfaceId ||... */\n      dup1\n      tag_133\n      jumpi\n      pop\n      shl(0xe0, 0x01ffc9a7)\n      not(sub(shl(0xe0, 0x01), 0x01))\n        /* \"@openzeppelin/contracts@4.7.3/utils/introspection/ERC165.sol\":937:977  interfaceId == type(IERC165).interfaceId */\n      dup4\n      and\n      eq\n        /* \"@openzeppelin/contracts@4.7.3/token/ERC721/ERC721.sol\":1827:1863  super.supportsInterface(interfaceId) */\n      tag_133\n        /* \"@openzeppelin/contracts@4.7.3/utils/introspection/ERC165.sol\":829:984  function supportsInterface(bytes4 interfaceId) public view virtual override returns (bool) {... */\n      jump\n        /* \"MyNFT.sol\":1093:1297  function _beforeTokenTransfer(address from, address to, uint256 tokenId)... */\n    tag_286:\n        /* \"MyNFT.sol\":1244:1289  super._beforeTokenTransfer(from, to, tokenId) */\n      tag_158\n        /* \"MyNFT.sol\":1271:1275  from */\n      dup4\n        /* \"MyNFT.sol\":1277:1279  to */\n      dup4\n        /* \"MyNFT.sol\":1281:1288  tokenId */\n      dup4\n        /* \"MyNFT.sol\":1244:1270  super._beforeTokenTransfer */\n      tag_348\n        /* \"MyNFT.sol\":1244:1289  super._beforeTokenTransfer(from, to, tokenId) */\n      jump\t// in\n        /* \"@openzeppelin/contracts@4.7.3/token/ERC721/ERC721.sol\":8237:8546  function _safeMint(... */\n    tag_304:\n        /* \"@openzeppelin/contracts@4.7.3/token/ERC721/ERC721.sol\":8361:8379  _mint(to, tokenId) */\n      tag_351\n        /* \"@openzeppelin/contracts@4.7.3/token/ERC721/ERC721.sol\":8367:8369  to */\n      dup4\n        /* \"@openzeppelin/contracts@4.7.3/token/ERC721/ERC721.sol\":8371:8378  tokenId */\n      dup4\n        /* \"@openzeppelin/contracts@4.7.3/token/ERC721/ERC721.sol\":8361:8366  _mint */\n      tag_352\n        /* \"@openzeppelin/contracts@4.7.3/token/ERC721/ERC721.sol\":8361:8379  _mint(to, tokenId) */\n      jump\t// in\n    tag_351:\n        /* \"@openzeppelin/contracts@4.7.3/token/ERC721/ERC721.sol\":8410:8463  _checkOnERC721Received(address(0), to, tokenId, data) */\n      tag_353\n        /* \"@openzeppelin/contracts@4.7.3/token/ERC721/ERC721.sol\":8441:8442  0 */\n      0x00\n        /* \"@openzeppelin/contracts@4.7.3/token/ERC721/ERC721.sol\":8445:8447  to */\n      dup5\n        /* \"@openzeppelin/contracts@4.7.3/token/ERC721/ERC721.sol\":8449:8456  tokenId */\n      dup5\n        /* \"@openzeppelin/contracts@4.7.3/token/ERC721/ERC721.sol\":8458:8462  data */\n      dup5\n        /* \"@openzeppelin/contracts@4.7.3/token/ERC721/ERC721.sol\":8410:8432  _checkOnERC721Received */\n      tag_314\n        /* \"@openzeppelin/contracts@4.7.3/token/ERC721/ERC721.sol\":8410:8463  _checkOnERC721Received(address(0), to, tokenId, data) */\n      jump\t// in\n    tag_353:\n        /* \"@openzeppelin/contracts@4.7.3/token/ERC721/ERC721.sol\":8389:8539  require(... */\n      tag_158\n      jumpi\n      mload(0x40)\n      shl(0xe5, 0x461bcd)\n      dup2\n      mstore\n      0x04\n      add\n      tag_148\n      swap1\n      tag_317\n      jump\t// in\n        /* \"@openzeppelin/contracts@4.7.3/token/ERC721/ERC721.sol\":12342:13173  function _checkOnERC721Received(... */\n    tag_314:\n        /* \"@openzeppelin/contracts@4.7.3/token/ERC721/ERC721.sol\":12491:12495  bool */\n      0x00\n      sub(shl(0xa0, 0x01), 0x01)\n        /* \"@openzeppelin/contracts@4.7.3/token/ERC721/ERC721.sol\":12511:12524  to.isContract */\n      dup5\n      and\n        /* \"@openzeppelin/contracts@4.7.3/utils/Address.sol\":1465:1484  account.code.length */\n      extcodesize\n        /* \"@openzeppelin/contracts@4.7.3/utils/Address.sol\":1465:1488  account.code.length > 0 */\n      iszero\n        /* \"@openzeppelin/contracts@4.7.3/token/ERC721/ERC721.sol\":12507:13167  if (to.isContract()) {... */\n      tag_359\n      jumpi\n        /* \"@openzeppelin/contracts@4.7.3/token/ERC721/ERC721.sol\":12546:12617  IERC721Receiver(to).onERC721Received(_msgSender(), from, tokenId, data) */\n      mload(0x40)\n      shl(0xe1, 0x0a85bd01)\n      dup2\n      mstore\n      sub(shl(0xa0, 0x01), 0x01)\n        /* \"@openzeppelin/contracts@4.7.3/token/ERC721/ERC721.sol\":12546:12582  IERC721Receiver(to).onERC721Received */\n      dup6\n      and\n      swap1\n      0x150b7a02\n      swap1\n        /* \"@openzeppelin/contracts@4.7.3/token/ERC721/ERC721.sol\":12546:12617  IERC721Receiver(to).onERC721Received(_msgSender(), from, tokenId, data) */\n      tag_361\n      swap1\n        /* \"@openzeppelin/contracts@4.7.3/utils/Context.sol\":719:729  msg.sender */\n      caller\n      swap1\n        /* \"@openzeppelin/contracts@4.7.3/token/ERC721/ERC721.sol\":12597:12601  from */\n      dup10\n      swap1\n        /* \"@openzeppelin/contracts@4.7.3/token/ERC721/ERC721.sol\":12603:12610  tokenId */\n      dup9\n      swap1\n        /* \"@openzeppelin/contracts@4.7.3/token/ERC721/ERC721.sol\":12612:12616  data */\n      dup9\n      swap1\n        /* \"@openzeppelin/contracts@4.7.3/token/ERC721/ERC721.sol\":12546:12617  IERC721Receiver(to).onERC721Received(_msgSender(), from, tokenId, data) */\n      0x04\n      add\n      tag_362\n      jump\t// in\n    tag_361:\n      0x20\n      mload(0x40)\n      dup1\n      dup4\n      sub\n      dup2\n      0x00\n      dup8\n      gas\n      call\n      swap3\n      pop\n      pop\n      pop\n      dup1\n      iszero\n      tag_363\n      jumpi\n      pop\n      0x40\n      dup1\n      mload\n      0x1f\n      returndatasize\n      swap1\n      dup2\n      add\n      not(0x1f)\n      and\n      dup3\n      add\n      swap1\n      swap3\n      mstore\n      tag_364\n      swap2\n      dup2\n      add\n      swap1\n      tag_365\n      jump\t// in\n    tag_364:\n      0x01\n    tag_363:\n        /* \"@openzeppelin/contracts@4.7.3/token/ERC721/ERC721.sol\":12542:13115  try IERC721Receiver(to).onERC721Received(_msgSender(), from, tokenId, data) returns (bytes4 retval) {... */\n      tag_366\n      jumpi\n      returndatasize\n      dup1\n      dup1\n      iszero\n      tag_371\n      jumpi\n      mload(0x40)\n      swap2\n      pop\n      and(add(returndatasize, 0x3f), not(0x1f))\n      dup3\n      add\n      0x40\n      mstore\n      returndatasize\n      dup3\n      mstore\n      returndatasize\n      0x00\n      0x20\n      dup5\n      add\n      returndatacopy\n      jump(tag_370)\n    tag_371:\n      0x60\n      swap2\n      pop\n    tag_370:\n      pop\n        /* \"@openzeppelin/contracts@4.7.3/token/ERC721/ERC721.sol\":12784:12790  reason */\n      dup1\n        /* \"@openzeppelin/contracts@4.7.3/token/ERC721/ERC721.sol\":12784:12797  reason.length */\n      mload\n        /* \"@openzeppelin/contracts@4.7.3/token/ERC721/ERC721.sol\":12801:12802  0 */\n      0x00\n        /* \"@openzeppelin/contracts@4.7.3/token/ERC721/ERC721.sol\":12784:12802  reason.length == 0 */\n      sub\n        /* \"@openzeppelin/contracts@4.7.3/token/ERC721/ERC721.sol\":12780:13101  if (reason.length == 0) {... */\n      tag_372\n      jumpi\n        /* \"@openzeppelin/contracts@4.7.3/token/ERC721/ERC721.sol\":12826:12886  revert(\"ERC721: transfer to non ERC721Receiver implementer\") */\n      mload(0x40)\n      shl(0xe5, 0x461bcd)\n      dup2\n      mstore\n      0x04\n      add\n      tag_148\n      swap1\n      tag_317\n      jump\t// in\n        /* \"@openzeppelin/contracts@4.7.3/token/ERC721/ERC721.sol\":12780:13101  if (reason.length == 0) {... */\n    tag_372:\n        /* \"@openzeppelin/contracts@4.7.3/token/ERC721/ERC721.sol\":13053:13059  reason */\n      dup1\n        /* \"@openzeppelin/contracts@4.7.3/token/ERC721/ERC721.sol\":13047:13060  mload(reason) */\n      mload\n        /* \"@openzeppelin/contracts@4.7.3/token/ERC721/ERC721.sol\":13038:13044  reason */\n      dup2\n        /* \"@openzeppelin/contracts@4.7.3/token/ERC721/ERC721.sol\":13034:13036  32 */\n      0x20\n        /* \"@openzeppelin/contracts@4.7.3/token/ERC721/ERC721.sol\":13030:13045  add(32, reason) */\n      add\n        /* \"@openzeppelin/contracts@4.7.3/token/ERC721/ERC721.sol\":13023:13061  revert(add(32, reason), mload(reason)) */\n      revert\n        /* \"@openzeppelin/contracts@4.7.3/token/ERC721/ERC721.sol\":12542:13115  try IERC721Receiver(to).onERC721Received(_msgSender(), from, tokenId, data) returns (bytes4 retval) {... */\n    tag_366:\n      not(sub(shl(0xe0, 0x01), 0x01))\n        /* \"@openzeppelin/contracts@4.7.3/token/ERC721/ERC721.sol\":12667:12718  retval == IERC721Receiver.onERC721Received.selector */\n      and\n      shl(0xe1, 0x0a85bd01)\n      eq\n      swap1\n      pop\n        /* \"@openzeppelin/contracts@4.7.3/token/ERC721/ERC721.sol\":12660:12718  return retval == IERC721Receiver.onERC721Received.selector */\n      jump(tag_275)\n        /* \"@openzeppelin/contracts@4.7.3/token/ERC721/ERC721.sol\":12507:13167  if (to.isContract()) {... */\n    tag_359:\n      pop\n        /* \"@openzeppelin/contracts@4.7.3/token/ERC721/ERC721.sol\":13152:13156  true */\n      0x01\n        /* \"@openzeppelin/contracts@4.7.3/token/ERC721/ERC721.sol\":12342:13173  function _checkOnERC721Received(... */\n      swap5\n      swap4\n      pop\n      pop\n      pop\n      pop\n      jump\t// out\n        /* \"@openzeppelin/contracts@4.7.3/token/ERC721/extensions/ERC721Enumerable.sol\":2624:3196  function _beforeTokenTransfer(... */\n    tag_348:\n      sub(shl(0xa0, 0x01), 0x01)\n        /* \"@openzeppelin/contracts@4.7.3/token/ERC721/extensions/ERC721Enumerable.sol\":2823:2841  from == address(0) */\n      dup4\n      and\n        /* \"@openzeppelin/contracts@4.7.3/token/ERC721/extensions/ERC721Enumerable.sol\":2819:3002  if (from == address(0)) {... */\n      tag_381\n      jumpi\n        /* \"@openzeppelin/contracts@4.7.3/token/ERC721/extensions/ERC721Enumerable.sol\":2857:2897  _addTokenToAllTokensEnumeration(tokenId) */\n      tag_382\n        /* \"@openzeppelin/contracts@4.7.3/token/ERC721/extensions/ERC721Enumerable.sol\":2889:2896  tokenId */\n      dup2\n        /* \"@openzeppelin/contracts@4.7.3/token/ERC721/extensions/ERC721Enumerable.sol\":4005:4015  _allTokens */\n      0x08\n        /* \"@openzeppelin/contracts@4.7.3/token/ERC721/extensions/ERC721Enumerable.sol\":4005:4022  _allTokens.length */\n      dup1\n      sload\n        /* \"@openzeppelin/contracts@4.7.3/token/ERC721/extensions/ERC721Enumerable.sol\":3978:4002  _allTokensIndex[tokenId] */\n      0x00\n      dup4\n      dup2\n      mstore\n        /* \"@openzeppelin/contracts@4.7.3/token/ERC721/extensions/ERC721Enumerable.sol\":3978:3993  _allTokensIndex */\n      0x09\n        /* \"@openzeppelin/contracts@4.7.3/token/ERC721/extensions/ERC721Enumerable.sol\":3978:4002  _allTokensIndex[tokenId] */\n      0x20\n      mstore\n      0x40\n      dup2\n      keccak256\n        /* \"@openzeppelin/contracts@4.7.3/token/ERC721/extensions/ERC721Enumerable.sol\":3978:4022  _allTokensIndex[tokenId] = _allTokens.length */\n      dup3\n      swap1\n      sstore\n        /* \"@openzeppelin/contracts@4.7.3/token/ERC721/extensions/ERC721Enumerable.sol\":4032:4056  _allTokens.push(tokenId) */\n      0x01\n      dup3\n      add\n      dup4\n      sstore\n      swap2\n      swap1\n      swap2\n      mstore\n      0xf3f7a9fe364faab93b216da50a3214154f22a0a2b415b23a84c8169e8b636ee3\n      add\n      sstore\n        /* \"@openzeppelin/contracts@4.7.3/token/ERC721/extensions/ERC721Enumerable.sol\":3902:4063  function _addTokenToAllTokensEnumeration(uint256 tokenId) private {... */\n      jump\n        /* \"@openzeppelin/contracts@4.7.3/token/ERC721/extensions/ERC721Enumerable.sol\":2857:2897  _addTokenToAllTokensEnumeration(tokenId) */\n    tag_382:\n        /* \"@openzeppelin/contracts@4.7.3/token/ERC721/extensions/ERC721Enumerable.sol\":2819:3002  if (from == address(0)) {... */\n      jump(tag_386)\n    tag_381:\n        /* \"@openzeppelin/contracts@4.7.3/token/ERC721/extensions/ERC721Enumerable.sol\":2926:2928  to */\n      dup2\n      sub(shl(0xa0, 0x01), 0x01)\n        /* \"@openzeppelin/contracts@4.7.3/token/ERC721/extensions/ERC721Enumerable.sol\":2918:2928  from != to */\n      and\n        /* \"@openzeppelin/contracts@4.7.3/token/ERC721/extensions/ERC721Enumerable.sol\":2918:2922  from */\n      dup4\n      sub(shl(0xa0, 0x01), 0x01)\n        /* \"@openzeppelin/contracts@4.7.3/token/ERC721/extensions/ERC721Enumerable.sol\":2918:2928  from != to */\n      and\n      eq\n        /* \"@openzeppelin/contracts@4.7.3/token/ERC721/extensions/ERC721Enumerable.sol\":2914:3002  if (from != to) {... */\n      tag_386\n      jumpi\n        /* \"@openzeppelin/contracts@4.7.3/token/ERC721/extensions/ERC721Enumerable.sol\":2944:2991  _removeTokenFromOwnerEnumeration(from, tokenId) */\n      tag_386\n        /* \"@openzeppelin/contracts@4.7.3/token/ERC721/extensions/ERC721Enumerable.sol\":2977:2981  from */\n      dup4\n        /* \"@openzeppelin/contracts@4.7.3/token/ERC721/extensions/ERC721Enumerable.sol\":2983:2990  tokenId */\n      dup3\n        /* \"@openzeppelin/contracts@4.7.3/token/ERC721/extensions/ERC721Enumerable.sol\":2944:2976  _removeTokenFromOwnerEnumeration */\n      tag_387\n        /* \"@openzeppelin/contracts@4.7.3/token/ERC721/extensions/ERC721Enumerable.sol\":2944:2991  _removeTokenFromOwnerEnumeration(from, tokenId) */\n      jump\t// in\n    tag_386:\n      sub(shl(0xa0, 0x01), 0x01)\n        /* \"@openzeppelin/contracts@4.7.3/token/ERC721/extensions/ERC721Enumerable.sol\":3015:3031  to == address(0) */\n      dup3\n      and\n        /* \"@openzeppelin/contracts@4.7.3/token/ERC721/extensions/ERC721Enumerable.sol\":3011:3190  if (to == address(0)) {... */\n      tag_388\n      jumpi\n        /* \"@openzeppelin/contracts@4.7.3/token/ERC721/extensions/ERC721Enumerable.sol\":3047:3092  _removeTokenFromAllTokensEnumeration(tokenId) */\n      tag_158\n        /* \"@openzeppelin/contracts@4.7.3/token/ERC721/extensions/ERC721Enumerable.sol\":3084:3091  tokenId */\n      dup2\n        /* \"@openzeppelin/contracts@4.7.3/token/ERC721/extensions/ERC721Enumerable.sol\":3047:3083  _removeTokenFromAllTokensEnumeration */\n      tag_390\n        /* \"@openzeppelin/contracts@4.7.3/token/ERC721/extensions/ERC721Enumerable.sol\":3047:3092  _removeTokenFromAllTokensEnumeration(tokenId) */\n      jump\t// in\n        /* \"@openzeppelin/contracts@4.7.3/token/ERC721/extensions/ERC721Enumerable.sol\":3011:3190  if (to == address(0)) {... */\n    tag_388:\n        /* \"@openzeppelin/contracts@4.7.3/token/ERC721/extensions/ERC721Enumerable.sol\":3119:3123  from */\n      dup3\n      sub(shl(0xa0, 0x01), 0x01)\n        /* \"@openzeppelin/contracts@4.7.3/token/ERC721/extensions/ERC721Enumerable.sol\":3113:3123  to != from */\n      and\n        /* \"@openzeppelin/contracts@4.7.3/token/ERC721/extensions/ERC721Enumerable.sol\":3113:3115  to */\n      dup3\n      sub(shl(0xa0, 0x01), 0x01)\n        /* \"@openzeppelin/contracts@4.7.3/token/ERC721/extensions/ERC721Enumerable.sol\":3113:3123  to != from */\n      and\n      eq\n        /* \"@openzeppelin/contracts@4.7.3/token/ERC721/extensions/ERC721Enumerable.sol\":3109:3190  if (to != from) {... */\n      tag_158\n      jumpi\n        /* \"@openzeppelin/contracts@4.7.3/token/ERC721/extensions/ERC721Enumerable.sol\":3139:3179  _addTokenToOwnerEnumeration(to, tokenId) */\n      tag_158\n        /* \"@openzeppelin/contracts@4.7.3/token/ERC721/extensions/ERC721Enumerable.sol\":3167:3169  to */\n      dup3\n        /* \"@openzeppelin/contracts@4.7.3/token/ERC721/extensions/ERC721Enumerable.sol\":3171:3178  tokenId */\n      dup3\n        /* \"@openzeppelin/contracts@4.7.3/token/ERC721/extensions/ERC721Enumerable.sol\":3139:3166  _addTokenToOwnerEnumeration */\n      tag_394\n        /* \"@openzeppelin/contracts@4.7.3/token/ERC721/extensions/ERC721Enumerable.sol\":3139:3179  _addTokenToOwnerEnumeration(to, tokenId) */\n      jump\t// in\n        /* \"@openzeppelin/contracts@4.7.3/token/ERC721/ERC721.sol\":8868:9295  function _mint(address to, uint256 tokenId) internal virtual {... */\n    tag_352:\n      sub(shl(0xa0, 0x01), 0x01)\n        /* \"@openzeppelin/contracts@4.7.3/token/ERC721/ERC721.sol\":8947:8963  to != address(0) */\n      dup3\n      and\n        /* \"@openzeppelin/contracts@4.7.3/token/ERC721/ERC721.sol\":8939:9000  require(to != address(0), \"ERC721: mint to the zero address\") */\n      tag_396\n      jumpi\n      mload(0x40)\n      shl(0xe5, 0x461bcd)\n      dup2\n      mstore\n        /* \"#utility.yul\":13850:13852   */\n      0x20\n        /* \"@openzeppelin/contracts@4.7.3/token/ERC721/ERC721.sol\":8939:9000  require(to != address(0), \"ERC721: mint to the zero address\") */\n      0x04\n      dup3\n      add\n        /* \"#utility.yul\":13832:13853   */\n      dup2\n      swap1\n      mstore\n        /* \"#utility.yul\":13869:13887   */\n      0x24\n      dup3\n      add\n        /* \"#utility.yul\":13862:13892   */\n      mstore\n        /* \"#utility.yul\":13928:13962   */\n      0x4552433732313a206d696e7420746f20746865207a65726f2061646472657373\n        /* \"#utility.yul\":13908:13926   */\n      0x44\n      dup3\n      add\n        /* \"#utility.yul\":13901:13963   */\n      mstore\n        /* \"#utility.yul\":13980:13998   */\n      0x64\n      add\n        /* \"@openzeppelin/contracts@4.7.3/token/ERC721/ERC721.sol\":8939:9000  require(to != address(0), \"ERC721: mint to the zero address\") */\n      tag_148\n        /* \"#utility.yul\":13648:14004   */\n      jump\n        /* \"@openzeppelin/contracts@4.7.3/token/ERC721/ERC721.sol\":8939:9000  require(to != address(0), \"ERC721: mint to the zero address\") */\n    tag_396:\n        /* \"@openzeppelin/contracts@4.7.3/token/ERC721/ERC721.sol\":7099:7103  bool */\n      0x00\n        /* \"@openzeppelin/contracts@4.7.3/token/ERC721/ERC721.sol\":7122:7138  _owners[tokenId] */\n      dup2\n      dup2\n      mstore\n        /* \"@openzeppelin/contracts@4.7.3/token/ERC721/ERC721.sol\":7122:7129  _owners */\n      0x02\n        /* \"@openzeppelin/contracts@4.7.3/token/ERC721/ERC721.sol\":7122:7138  _owners[tokenId] */\n      0x20\n      mstore\n      0x40\n      swap1\n      keccak256\n      sload\n      sub(shl(0xa0, 0x01), 0x01)\n      and\n        /* \"@openzeppelin/contracts@4.7.3/token/ERC721/ERC721.sol\":7122:7152  _owners[tokenId] != address(0) */\n      iszero\n        /* \"@openzeppelin/contracts@4.7.3/token/ERC721/ERC721.sol\":9010:9068  require(!_exists(tokenId), \"ERC721: token already minted\") */\n      tag_400\n      jumpi\n      mload(0x40)\n      shl(0xe5, 0x461bcd)\n      dup2\n      mstore\n        /* \"#utility.yul\":14211:14213   */\n      0x20\n        /* \"@openzeppelin/contracts@4.7.3/token/ERC721/ERC721.sol\":9010:9068  require(!_exists(tokenId), \"ERC721: token already minted\") */\n      0x04\n      dup3\n      add\n        /* \"#utility.yul\":14193:14214   */\n      mstore\n        /* \"#utility.yul\":14250:14252   */\n      0x1c\n        /* \"#utility.yul\":14230:14248   */\n      0x24\n      dup3\n      add\n        /* \"#utility.yul\":14223:14253   */\n      mstore\n        /* \"#utility.yul\":14289:14319   */\n      0x4552433732313a20746f6b656e20616c7265616479206d696e74656400000000\n        /* \"#utility.yul\":14269:14287   */\n      0x44\n      dup3\n      add\n        /* \"#utility.yul\":14262:14320   */\n      mstore\n        /* \"#utility.yul\":14337:14355   */\n      0x64\n      add\n        /* \"@openzeppelin/contracts@4.7.3/token/ERC721/ERC721.sol\":9010:9068  require(!_exists(tokenId), \"ERC721: token already minted\") */\n      tag_148\n        /* \"#utility.yul\":14009:14361   */\n      jump\n        /* \"@openzeppelin/contracts@4.7.3/token/ERC721/ERC721.sol\":9010:9068  require(!_exists(tokenId), \"ERC721: token already minted\") */\n    tag_400:\n        /* \"@openzeppelin/contracts@4.7.3/token/ERC721/ERC721.sol\":9079:9124  _beforeTokenTransfer(address(0), to, tokenId) */\n      tag_403\n        /* \"@openzeppelin/contracts@4.7.3/token/ERC721/ERC721.sol\":9108:9109  0 */\n      0x00\n        /* \"@openzeppelin/contracts@4.7.3/token/ERC721/ERC721.sol\":9112:9114  to */\n      dup4\n        /* \"@openzeppelin/contracts@4.7.3/token/ERC721/ERC721.sol\":9116:9123  tokenId */\n      dup4\n        /* \"@openzeppelin/contracts@4.7.3/token/ERC721/ERC721.sol\":9079:9099  _beforeTokenTransfer */\n      tag_286\n        /* \"@openzeppelin/contracts@4.7.3/token/ERC721/ERC721.sol\":9079:9124  _beforeTokenTransfer(address(0), to, tokenId) */\n      jump\t// in\n    tag_403:\n      sub(shl(0xa0, 0x01), 0x01)\n        /* \"@openzeppelin/contracts@4.7.3/token/ERC721/ERC721.sol\":9135:9148  _balances[to] */\n      dup3\n      and\n      0x00\n      swap1\n      dup2\n      mstore\n        /* \"@openzeppelin/contracts@4.7.3/token/ERC721/ERC721.sol\":9135:9144  _balances */\n      0x03\n        /* \"@openzeppelin/contracts@4.7.3/token/ERC721/ERC721.sol\":9135:9148  _balances[to] */\n      0x20\n      mstore\n      0x40\n      dup2\n      keccak256\n        /* \"@openzeppelin/contracts@4.7.3/token/ERC721/ERC721.sol\":9135:9153  _balances[to] += 1 */\n      dup1\n      sload\n        /* \"@openzeppelin/contracts@4.7.3/token/ERC721/ERC721.sol\":9152:9153  1 */\n      0x01\n      swap3\n        /* \"@openzeppelin/contracts@4.7.3/token/ERC721/ERC721.sol\":9135:9148  _balances[to] */\n      swap1\n        /* \"@openzeppelin/contracts@4.7.3/token/ERC721/ERC721.sol\":9135:9153  _balances[to] += 1 */\n      tag_404\n      swap1\n        /* \"@openzeppelin/contracts@4.7.3/token/ERC721/ERC721.sol\":9152:9153  1 */\n      dup5\n      swap1\n        /* \"@openzeppelin/contracts@4.7.3/token/ERC721/ERC721.sol\":9135:9153  _balances[to] += 1 */\n      tag_291\n      jump\t// in\n    tag_404:\n      swap1\n      swap2\n      sstore\n      pop\n      pop\n        /* \"@openzeppelin/contracts@4.7.3/token/ERC721/ERC721.sol\":9163:9179  _owners[tokenId] */\n      0x00\n      dup2\n      dup2\n      mstore\n        /* \"@openzeppelin/contracts@4.7.3/token/ERC721/ERC721.sol\":9163:9170  _owners */\n      0x02\n        /* \"@openzeppelin/contracts@4.7.3/token/ERC721/ERC721.sol\":9163:9179  _owners[tokenId] */\n      0x20\n      mstore\n      0x40\n      dup1\n      dup3\n      keccak256\n        /* \"@openzeppelin/contracts@4.7.3/token/ERC721/ERC721.sol\":9163:9184  _owners[tokenId] = to */\n      dup1\n      sload\n      not(sub(shl(0xa0, 0x01), 0x01))\n      and\n      sub(shl(0xa0, 0x01), 0x01)\n      dup7\n      and\n      swap1\n      dup2\n      or\n      swap1\n      swap2\n      sstore\n        /* \"@openzeppelin/contracts@4.7.3/token/ERC721/ERC721.sol\":9200:9233  Transfer(address(0), to, tokenId) */\n      swap1\n      mload\n        /* \"@openzeppelin/contracts@4.7.3/token/ERC721/ERC721.sol\":9163:9179  _owners[tokenId] */\n      dup4\n      swap3\n      swap1\n        /* \"@openzeppelin/contracts@4.7.3/token/ERC721/ERC721.sol\":9200:9233  Transfer(address(0), to, tokenId) */\n      0xddf252ad1be2c89b69c2b068fc378daa952ba7f163c4a11628f55a4df523b3ef\n      swap1\n        /* \"@openzeppelin/contracts@4.7.3/token/ERC721/ERC721.sol\":9163:9179  _owners[tokenId] */\n      dup3\n      swap1\n        /* \"@openzeppelin/contracts@4.7.3/token/ERC721/ERC721.sol\":9200:9233  Transfer(address(0), to, tokenId) */\n      log4\n        /* \"@openzeppelin/contracts@4.7.3/token/ERC721/ERC721.sol\":4169:4322  function setApprovalForAll(address operator, bool approved) public virtual override {... */\n      pop\n      pop\n      jump\t// out\n        /* \"@openzeppelin/contracts@4.7.3/token/ERC721/extensions/ERC721Enumerable.sol\":4680:5650  function _removeTokenFromOwnerEnumeration(address from, uint256 tokenId) private {... */\n    tag_387:\n        /* \"@openzeppelin/contracts@4.7.3/token/ERC721/extensions/ERC721Enumerable.sol\":4942:4964  uint256 lastTokenIndex */\n      0x00\n        /* \"@openzeppelin/contracts@4.7.3/token/ERC721/extensions/ERC721Enumerable.sol\":4992:4993  1 */\n      0x01\n        /* \"@openzeppelin/contracts@4.7.3/token/ERC721/extensions/ERC721Enumerable.sol\":4967:4989  ERC721.balanceOf(from) */\n      tag_411\n        /* \"@openzeppelin/contracts@4.7.3/token/ERC721/extensions/ERC721Enumerable.sol\":4984:4988  from */\n      dup5\n        /* \"@openzeppelin/contracts@4.7.3/token/ERC721/extensions/ERC721Enumerable.sol\":4967:4983  ERC721.balanceOf */\n      tag_94\n        /* \"@openzeppelin/contracts@4.7.3/token/ERC721/extensions/ERC721Enumerable.sol\":4967:4989  ERC721.balanceOf(from) */\n      jump\t// in\n    tag_411:\n        /* \"@openzeppelin/contracts@4.7.3/token/ERC721/extensions/ERC721Enumerable.sol\":4967:4993  ERC721.balanceOf(from) - 1 */\n      tag_412\n      swap2\n      swap1\n      tag_289\n      jump\t// in\n    tag_412:\n        /* \"@openzeppelin/contracts@4.7.3/token/ERC721/extensions/ERC721Enumerable.sol\":5003:5021  uint256 tokenIndex */\n      0x00\n        /* \"@openzeppelin/contracts@4.7.3/token/ERC721/extensions/ERC721Enumerable.sol\":5024:5050  _ownedTokensIndex[tokenId] */\n      dup4\n      dup2\n      mstore\n        /* \"@openzeppelin/contracts@4.7.3/token/ERC721/extensions/ERC721Enumerable.sol\":5024:5041  _ownedTokensIndex */\n      0x07\n        /* \"@openzeppelin/contracts@4.7.3/token/ERC721/extensions/ERC721Enumerable.sol\":5024:5050  _ownedTokensIndex[tokenId] */\n      0x20\n      mstore\n      0x40\n      swap1\n      keccak256\n      sload\n        /* \"@openzeppelin/contracts@4.7.3/token/ERC721/extensions/ERC721Enumerable.sol\":4942:4993  uint256 lastTokenIndex = ERC721.balanceOf(from) - 1 */\n      swap1\n      swap2\n      pop\n        /* \"@openzeppelin/contracts@4.7.3/token/ERC721/extensions/ERC721Enumerable.sol\":5154:5182  tokenIndex != lastTokenIndex */\n      dup1\n      dup3\n      eq\n        /* \"@openzeppelin/contracts@4.7.3/token/ERC721/extensions/ERC721Enumerable.sol\":5150:5473  if (tokenIndex != lastTokenIndex) {... */\n      tag_413\n      jumpi\n      sub(shl(0xa0, 0x01), 0x01)\n        /* \"@openzeppelin/contracts@4.7.3/token/ERC721/extensions/ERC721Enumerable.sol\":5220:5238  _ownedTokens[from] */\n      dup5\n      and\n        /* \"@openzeppelin/contracts@4.7.3/token/ERC721/extensions/ERC721Enumerable.sol\":5198:5217  uint256 lastTokenId */\n      0x00\n        /* \"@openzeppelin/contracts@4.7.3/token/ERC721/extensions/ERC721Enumerable.sol\":5220:5238  _ownedTokens[from] */\n      swap1\n      dup2\n      mstore\n        /* \"@openzeppelin/contracts@4.7.3/token/ERC721/extensions/ERC721Enumerable.sol\":5220:5232  _ownedTokens */\n      0x06\n        /* \"@openzeppelin/contracts@4.7.3/token/ERC721/extensions/ERC721Enumerable.sol\":5220:5238  _ownedTokens[from] */\n      0x20\n      swap1\n      dup2\n      mstore\n      0x40\n      dup1\n      dup4\n      keccak256\n        /* \"@openzeppelin/contracts@4.7.3/token/ERC721/extensions/ERC721Enumerable.sol\":5220:5254  _ownedTokens[from][lastTokenIndex] */\n      dup6\n      dup5\n      mstore\n      dup3\n      mstore\n      dup1\n      dup4\n      keccak256\n      sload\n        /* \"@openzeppelin/contracts@4.7.3/token/ERC721/extensions/ERC721Enumerable.sol\":5269:5299  _ownedTokens[from][tokenIndex] */\n      dup5\n      dup5\n      mstore\n      dup2\n      dup5\n      keccak256\n        /* \"@openzeppelin/contracts@4.7.3/token/ERC721/extensions/ERC721Enumerable.sol\":5269:5313  _ownedTokens[from][tokenIndex] = lastTokenId */\n      dup2\n      swap1\n      sstore\n        /* \"@openzeppelin/contracts@4.7.3/token/ERC721/extensions/ERC721Enumerable.sol\":5385:5415  _ownedTokensIndex[lastTokenId] */\n      dup4\n      mstore\n        /* \"@openzeppelin/contracts@4.7.3/token/ERC721/extensions/ERC721Enumerable.sol\":5385:5402  _ownedTokensIndex */\n      0x07\n        /* \"@openzeppelin/contracts@4.7.3/token/ERC721/extensions/ERC721Enumerable.sol\":5385:5415  _ownedTokensIndex[lastTokenId] */\n      swap1\n      swap2\n      mstore\n      swap1\n      keccak256\n        /* \"@openzeppelin/contracts@4.7.3/token/ERC721/extensions/ERC721Enumerable.sol\":5385:5428  _ownedTokensIndex[lastTokenId] = tokenIndex */\n      dup2\n      swap1\n      sstore\n        /* \"@openzeppelin/contracts@4.7.3/token/ERC721/extensions/ERC721Enumerable.sol\":5150:5473  if (tokenIndex != lastTokenIndex) {... */\n    tag_413:\n      pop\n        /* \"@openzeppelin/contracts@4.7.3/token/ERC721/extensions/ERC721Enumerable.sol\":5566:5592  _ownedTokensIndex[tokenId] */\n      0x00\n      swap2\n      dup3\n      mstore\n        /* \"@openzeppelin/contracts@4.7.3/token/ERC721/extensions/ERC721Enumerable.sol\":5566:5583  _ownedTokensIndex */\n      0x07\n        /* \"@openzeppelin/contracts@4.7.3/token/ERC721/extensions/ERC721Enumerable.sol\":5566:5592  _ownedTokensIndex[tokenId] */\n      0x20\n      swap1\n      dup2\n      mstore\n      0x40\n      dup1\n      dup5\n      keccak256\n        /* \"@openzeppelin/contracts@4.7.3/token/ERC721/extensions/ERC721Enumerable.sol\":5559:5592  delete _ownedTokensIndex[tokenId] */\n      dup5\n      swap1\n      sstore\n      sub(shl(0xa0, 0x01), 0x01)\n        /* \"@openzeppelin/contracts@4.7.3/token/ERC721/extensions/ERC721Enumerable.sol\":5609:5627  _ownedTokens[from] */\n      swap1\n      swap5\n      and\n      dup4\n      mstore\n        /* \"@openzeppelin/contracts@4.7.3/token/ERC721/extensions/ERC721Enumerable.sol\":5609:5621  _ownedTokens */\n      0x06\n        /* \"@openzeppelin/contracts@4.7.3/token/ERC721/extensions/ERC721Enumerable.sol\":5609:5627  _ownedTokens[from] */\n      dup2\n      mstore\n      dup4\n      dup4\n      keccak256\n        /* \"@openzeppelin/contracts@4.7.3/token/ERC721/extensions/ERC721Enumerable.sol\":5609:5643  _ownedTokens[from][lastTokenIndex] */\n      swap2\n      dup4\n      mstore\n      mstore\n      swap1\n      dup2\n      keccak256\n        /* \"@openzeppelin/contracts@4.7.3/token/ERC721/extensions/ERC721Enumerable.sol\":5602:5643  delete _ownedTokens[from][lastTokenIndex] */\n      sstore\n        /* \"@openzeppelin/contracts@4.7.3/token/ERC721/extensions/ERC721Enumerable.sol\":4680:5650  function _removeTokenFromOwnerEnumeration(address from, uint256 tokenId) private {... */\n      jump\t// out\n        /* \"@openzeppelin/contracts@4.7.3/token/ERC721/extensions/ERC721Enumerable.sol\":5938:6999  function _removeTokenFromAllTokensEnumeration(uint256 tokenId) private {... */\n    tag_390:\n        /* \"@openzeppelin/contracts@4.7.3/token/ERC721/extensions/ERC721Enumerable.sol\":6212:6222  _allTokens */\n      0x08\n        /* \"@openzeppelin/contracts@4.7.3/token/ERC721/extensions/ERC721Enumerable.sol\":6212:6229  _allTokens.length */\n      sload\n        /* \"@openzeppelin/contracts@4.7.3/token/ERC721/extensions/ERC721Enumerable.sol\":6187:6209  uint256 lastTokenIndex */\n      0x00\n      swap1\n        /* \"@openzeppelin/contracts@4.7.3/token/ERC721/extensions/ERC721Enumerable.sol\":6212:6233  _allTokens.length - 1 */\n      tag_415\n      swap1\n        /* \"@openzeppelin/contracts@4.7.3/token/ERC721/extensions/ERC721Enumerable.sol\":6232:6233  1 */\n      0x01\n      swap1\n        /* \"@openzeppelin/contracts@4.7.3/token/ERC721/extensions/ERC721Enumerable.sol\":6212:6233  _allTokens.length - 1 */\n      tag_289\n      jump\t// in\n    tag_415:\n        /* \"@openzeppelin/contracts@4.7.3/token/ERC721/extensions/ERC721Enumerable.sol\":6243:6261  uint256 tokenIndex */\n      0x00\n        /* \"@openzeppelin/contracts@4.7.3/token/ERC721/extensions/ERC721Enumerable.sol\":6264:6288  _allTokensIndex[tokenId] */\n      dup4\n      dup2\n      mstore\n        /* \"@openzeppelin/contracts@4.7.3/token/ERC721/extensions/ERC721Enumerable.sol\":6264:6279  _allTokensIndex */\n      0x09\n        /* \"@openzeppelin/contracts@4.7.3/token/ERC721/extensions/ERC721Enumerable.sol\":6264:6288  _allTokensIndex[tokenId] */\n      0x20\n      mstore\n      0x40\n      dup2\n      keccak256\n      sload\n        /* \"@openzeppelin/contracts@4.7.3/token/ERC721/extensions/ERC721Enumerable.sol\":6632:6642  _allTokens */\n      0x08\n        /* \"@openzeppelin/contracts@4.7.3/token/ERC721/extensions/ERC721Enumerable.sol\":6632:6658  _allTokens[lastTokenIndex] */\n      dup1\n      sload\n        /* \"@openzeppelin/contracts@4.7.3/token/ERC721/extensions/ERC721Enumerable.sol\":6187:6233  uint256 lastTokenIndex = _allTokens.length - 1 */\n      swap4\n      swap5\n      pop\n        /* \"@openzeppelin/contracts@4.7.3/token/ERC721/extensions/ERC721Enumerable.sol\":6264:6288  _allTokensIndex[tokenId] */\n      swap1\n      swap3\n        /* \"@openzeppelin/contracts@4.7.3/token/ERC721/extensions/ERC721Enumerable.sol\":6187:6233  uint256 lastTokenIndex = _allTokens.length - 1 */\n      dup5\n      swap1\n        /* \"@openzeppelin/contracts@4.7.3/token/ERC721/extensions/ERC721Enumerable.sol\":6632:6658  _allTokens[lastTokenIndex] */\n      dup2\n      lt\n      tag_417\n      jumpi\n      tag_417\n      tag_208\n      jump\t// in\n    tag_417:\n      swap1\n      0x00\n      mstore\n      keccak256(0x00, 0x20)\n      add\n      sload\n        /* \"@openzeppelin/contracts@4.7.3/token/ERC721/extensions/ERC721Enumerable.sol\":6610:6658  uint256 lastTokenId = _allTokens[lastTokenIndex] */\n      swap1\n      pop\n        /* \"@openzeppelin/contracts@4.7.3/token/ERC721/extensions/ERC721Enumerable.sol\":6694:6705  lastTokenId */\n      dup1\n        /* \"@openzeppelin/contracts@4.7.3/token/ERC721/extensions/ERC721Enumerable.sol\":6669:6679  _allTokens */\n      0x08\n        /* \"@openzeppelin/contracts@4.7.3/token/ERC721/extensions/ERC721Enumerable.sol\":6680:6690  tokenIndex */\n      dup4\n        /* \"@openzeppelin/contracts@4.7.3/token/ERC721/extensions/ERC721Enumerable.sol\":6669:6691  _allTokens[tokenIndex] */\n      dup2\n      sload\n      dup2\n      lt\n      tag_420\n      jumpi\n      tag_420\n      tag_208\n      jump\t// in\n    tag_420:\n      0x00\n      swap2\n      dup3\n      mstore\n      0x20\n      dup1\n      dup4\n      keccak256\n      swap1\n      swap2\n      add\n        /* \"@openzeppelin/contracts@4.7.3/token/ERC721/extensions/ERC721Enumerable.sol\":6669:6705  _allTokens[tokenIndex] = lastTokenId */\n      swap3\n      swap1\n      swap3\n      sstore\n        /* \"@openzeppelin/contracts@4.7.3/token/ERC721/extensions/ERC721Enumerable.sol\":6773:6801  _allTokensIndex[lastTokenId] */\n      dup3\n      dup2\n      mstore\n        /* \"@openzeppelin/contracts@4.7.3/token/ERC721/extensions/ERC721Enumerable.sol\":6773:6788  _allTokensIndex */\n      0x09\n        /* \"@openzeppelin/contracts@4.7.3/token/ERC721/extensions/ERC721Enumerable.sol\":6773:6801  _allTokensIndex[lastTokenId] */\n      swap1\n      swap2\n      mstore\n      0x40\n      dup1\n      dup3\n      keccak256\n        /* \"@openzeppelin/contracts@4.7.3/token/ERC721/extensions/ERC721Enumerable.sol\":6773:6814  _allTokensIndex[lastTokenId] = tokenIndex */\n      dup5\n      swap1\n      sstore\n        /* \"@openzeppelin/contracts@4.7.3/token/ERC721/extensions/ERC721Enumerable.sol\":6942:6966  _allTokensIndex[tokenId] */\n      dup6\n      dup3\n      mstore\n      dup2\n      keccak256\n        /* \"@openzeppelin/contracts@4.7.3/token/ERC721/extensions/ERC721Enumerable.sol\":6935:6966  delete _allTokensIndex[tokenId] */\n      sstore\n        /* \"@openzeppelin/contracts@4.7.3/token/ERC721/extensions/ERC721Enumerable.sol\":6976:6986  _allTokens */\n      0x08\n        /* \"@openzeppelin/contracts@4.7.3/token/ERC721/extensions/ERC721Enumerable.sol\":6976:6992  _allTokens.pop() */\n      dup1\n      sload\n      dup1\n      tag_423\n      jumpi\n      tag_423\n      tag_424\n      jump\t// in\n    tag_423:\n      0x01\n      swap1\n      sub\n      dup2\n      dup2\n      swap1\n      0x00\n      mstore\n      keccak256(0x00, 0x20)\n      add\n      0x00\n      swap1\n      sstore\n      swap1\n      sstore\n        /* \"@openzeppelin/contracts@4.7.3/token/ERC721/extensions/ERC721Enumerable.sol\":6009:6999  {... */\n      pop\n      pop\n      pop\n        /* \"@openzeppelin/contracts@4.7.3/token/ERC721/extensions/ERC721Enumerable.sol\":5938:6999  function _removeTokenFromAllTokensEnumeration(uint256 tokenId) private {... */\n      pop\n      jump\t// out\n        /* \"@openzeppelin/contracts@4.7.3/token/ERC721/extensions/ERC721Enumerable.sol\":3490:3707  function _addTokenToOwnerEnumeration(address to, uint256 tokenId) private {... */\n    tag_394:\n        /* \"@openzeppelin/contracts@4.7.3/token/ERC721/extensions/ERC721Enumerable.sol\":3574:3588  uint256 length */\n      0x00\n        /* \"@openzeppelin/contracts@4.7.3/token/ERC721/extensions/ERC721Enumerable.sol\":3591:3611  ERC721.balanceOf(to) */\n      tag_427\n        /* \"@openzeppelin/contracts@4.7.3/token/ERC721/extensions/ERC721Enumerable.sol\":3608:3610  to */\n      dup4\n        /* \"@openzeppelin/contracts@4.7.3/token/ERC721/extensions/ERC721Enumerable.sol\":3591:3607  ERC721.balanceOf */\n      tag_94\n        /* \"@openzeppelin/contracts@4.7.3/token/ERC721/extensions/ERC721Enumerable.sol\":3591:3611  ERC721.balanceOf(to) */\n      jump\t// in\n    tag_427:\n      sub(shl(0xa0, 0x01), 0x01)\n        /* \"@openzeppelin/contracts@4.7.3/token/ERC721/extensions/ERC721Enumerable.sol\":3621:3637  _ownedTokens[to] */\n      swap1\n      swap4\n      and\n      0x00\n      swap1\n      dup2\n      mstore\n        /* \"@openzeppelin/contracts@4.7.3/token/ERC721/extensions/ERC721Enumerable.sol\":3621:3633  _ownedTokens */\n      0x06\n        /* \"@openzeppelin/contracts@4.7.3/token/ERC721/extensions/ERC721Enumerable.sol\":3621:3637  _ownedTokens[to] */\n      0x20\n      swap1\n      dup2\n      mstore\n      0x40\n      dup1\n      dup4\n      keccak256\n        /* \"@openzeppelin/contracts@4.7.3/token/ERC721/extensions/ERC721Enumerable.sol\":3621:3645  _ownedTokens[to][length] */\n      dup7\n      dup5\n      mstore\n      dup3\n      mstore\n      dup1\n      dup4\n      keccak256\n        /* \"@openzeppelin/contracts@4.7.3/token/ERC721/extensions/ERC721Enumerable.sol\":3621:3655  _ownedTokens[to][length] = tokenId */\n      dup6\n      swap1\n      sstore\n        /* \"@openzeppelin/contracts@4.7.3/token/ERC721/extensions/ERC721Enumerable.sol\":3665:3691  _ownedTokensIndex[tokenId] */\n      swap4\n      dup3\n      mstore\n        /* \"@openzeppelin/contracts@4.7.3/token/ERC721/extensions/ERC721Enumerable.sol\":3665:3682  _ownedTokensIndex */\n      0x07\n        /* \"@openzeppelin/contracts@4.7.3/token/ERC721/extensions/ERC721Enumerable.sol\":3665:3691  _ownedTokensIndex[tokenId] */\n      swap1\n      mstore\n      swap2\n      swap1\n      swap2\n      keccak256\n        /* \"@openzeppelin/contracts@4.7.3/token/ERC721/extensions/ERC721Enumerable.sol\":3665:3700  _ownedTokensIndex[tokenId] = length */\n      swap2\n      swap1\n      swap2\n      sstore\n      pop\n        /* \"@openzeppelin/contracts@4.7.3/token/ERC721/extensions/ERC721Enumerable.sol\":3490:3707  function _addTokenToOwnerEnumeration(address to, uint256 tokenId) private {... */\n      jump\t// out\n        /* \"#utility.yul\":14:145   */\n    tag_428:\n      not(sub(shl(0xe0, 0x01), 0x01))\n        /* \"#utility.yul\":88:120   */\n      dup2\n      and\n        /* \"#utility.yul\":78:121   */\n      dup2\n      eq\n        /* \"#utility.yul\":68:139   */\n      tag_184\n      jumpi\n        /* \"#utility.yul\":135:136   */\n      0x00\n        /* \"#utility.yul\":132:133   */\n      dup1\n        /* \"#utility.yul\":125:137   */\n      revert\n        /* \"#utility.yul\":150:395   */\n    tag_30:\n        /* \"#utility.yul\":208:214   */\n      0x00\n        /* \"#utility.yul\":261:263   */\n      0x20\n        /* \"#utility.yul\":249:258   */\n      dup3\n        /* \"#utility.yul\":240:247   */\n      dup5\n        /* \"#utility.yul\":236:259   */\n      sub\n        /* \"#utility.yul\":232:264   */\n      slt\n        /* \"#utility.yul\":229:281   */\n      iszero\n      tag_438\n      jumpi\n        /* \"#utility.yul\":277:278   */\n      0x00\n        /* \"#utility.yul\":274:275   */\n      dup1\n        /* \"#utility.yul\":267:279   */\n      revert\n        /* \"#utility.yul\":229:281   */\n    tag_438:\n        /* \"#utility.yul\":316:325   */\n      dup2\n        /* \"#utility.yul\":303:326   */\n      calldataload\n        /* \"#utility.yul\":335:365   */\n      tag_246\n        /* \"#utility.yul\":359:364   */\n      dup2\n        /* \"#utility.yul\":335:365   */\n      tag_428\n      jump\t// in\n        /* \"#utility.yul\":592:850   */\n    tag_429:\n        /* \"#utility.yul\":664:665   */\n      0x00\n        /* \"#utility.yul\":674:787   */\n    tag_442:\n        /* \"#utility.yul\":688:694   */\n      dup4\n        /* \"#utility.yul\":685:686   */\n      dup2\n        /* \"#utility.yul\":682:695   */\n      lt\n        /* \"#utility.yul\":674:787   */\n      iszero\n      tag_444\n      jumpi\n        /* \"#utility.yul\":764:775   */\n      dup2\n      dup2\n      add\n        /* \"#utility.yul\":758:776   */\n      mload\n        /* \"#utility.yul\":745:756   */\n      dup4\n      dup3\n      add\n        /* \"#utility.yul\":738:777   */\n      mstore\n        /* \"#utility.yul\":710:712   */\n      0x20\n        /* \"#utility.yul\":703:713   */\n      add\n        /* \"#utility.yul\":674:787   */\n      jump(tag_442)\n    tag_444:\n        /* \"#utility.yul\":805:811   */\n      dup4\n        /* \"#utility.yul\":802:803   */\n      dup2\n        /* \"#utility.yul\":799:812   */\n      gt\n        /* \"#utility.yul\":796:844   */\n      iszero\n      tag_239\n      jumpi\n      pop\n      pop\n        /* \"#utility.yul\":840:841   */\n      0x00\n        /* \"#utility.yul\":822:838   */\n      swap2\n      add\n        /* \"#utility.yul\":815:842   */\n      mstore\n        /* \"#utility.yul\":592:850   */\n      jump\t// out\n        /* \"#utility.yul\":855:1113   */\n    tag_430:\n        /* \"#utility.yul\":897:900   */\n      0x00\n        /* \"#utility.yul\":935:940   */\n      dup2\n        /* \"#utility.yul\":929:941   */\n      mload\n        /* \"#utility.yul\":962:968   */\n      dup1\n        /* \"#utility.yul\":957:960   */\n      dup5\n        /* \"#utility.yul\":950:969   */\n      mstore\n        /* \"#utility.yul\":978:1041   */\n      tag_447\n        /* \"#utility.yul\":1034:1040   */\n      dup2\n        /* \"#utility.yul\":1027:1031   */\n      0x20\n        /* \"#utility.yul\":1022:1025   */\n      dup7\n        /* \"#utility.yul\":1018:1032   */\n      add\n        /* \"#utility.yul\":1011:1015   */\n      0x20\n        /* \"#utility.yul\":1004:1009   */\n      dup7\n        /* \"#utility.yul\":1000:1016   */\n      add\n        /* \"#utility.yul\":978:1041   */\n      tag_429\n      jump\t// in\n    tag_447:\n        /* \"#utility.yul\":1095:1097   */\n      0x1f\n        /* \"#utility.yul\":1074:1089   */\n      add\n      not(0x1f)\n        /* \"#utility.yul\":1070:1099   */\n      and\n        /* \"#utility.yul\":1061:1100   */\n      swap3\n      swap1\n      swap3\n      add\n        /* \"#utility.yul\":1102:1106   */\n      0x20\n        /* \"#utility.yul\":1057:1107   */\n      add\n      swap3\n        /* \"#utility.yul\":855:1113   */\n      swap2\n      pop\n      pop\n      jump\t// out\n        /* \"#utility.yul\":1118:1338   */\n    tag_38:\n        /* \"#utility.yul\":1267:1269   */\n      0x20\n        /* \"#utility.yul\":1256:1265   */\n      dup2\n        /* \"#utility.yul\":1249:1270   */\n      mstore\n        /* \"#utility.yul\":1230:1234   */\n      0x00\n        /* \"#utility.yul\":1287:1332   */\n      tag_246\n        /* \"#utility.yul\":1328:1330   */\n      0x20\n        /* \"#utility.yul\":1317:1326   */\n      dup4\n        /* \"#utility.yul\":1313:1331   */\n      add\n        /* \"#utility.yul\":1305:1311   */\n      dup5\n        /* \"#utility.yul\":1287:1332   */\n      tag_430\n      jump\t// in\n        /* \"#utility.yul\":1343:1523   */\n    tag_42:\n        /* \"#utility.yul\":1402:1408   */\n      0x00\n        /* \"#utility.yul\":1455:1457   */\n      0x20\n        /* \"#utility.yul\":1443:1452   */\n      dup3\n        /* \"#utility.yul\":1434:1441   */\n      dup5\n        /* \"#utility.yul\":1430:1453   */\n      sub\n        /* \"#utility.yul\":1426:1458   */\n      slt\n        /* \"#utility.yul\":1423:1475   */\n      iszero\n      tag_451\n      jumpi\n        /* \"#utility.yul\":1471:1472   */\n      0x00\n        /* \"#utility.yul\":1468:1469   */\n      dup1\n        /* \"#utility.yul\":1461:1473   */\n      revert\n        /* \"#utility.yul\":1423:1475   */\n    tag_451:\n      pop\n        /* \"#utility.yul\":1494:1517   */\n      calldataload\n      swap2\n        /* \"#utility.yul\":1343:1523   */\n      swap1\n      pop\n      jump\t// out\n        /* \"#utility.yul\":1736:1909   */\n    tag_431:\n        /* \"#utility.yul\":1804:1824   */\n      dup1\n      calldataload\n      sub(shl(0xa0, 0x01), 0x01)\n        /* \"#utility.yul\":1853:1884   */\n      dup2\n      and\n        /* \"#utility.yul\":1843:1885   */\n      dup2\n      eq\n        /* \"#utility.yul\":1833:1903   */\n      tag_454\n      jumpi\n        /* \"#utility.yul\":1899:1900   */\n      0x00\n        /* \"#utility.yul\":1896:1897   */\n      dup1\n        /* \"#utility.yul\":1889:1901   */\n      revert\n        /* \"#utility.yul\":1833:1903   */\n    tag_454:\n        /* \"#utility.yul\":1736:1909   */\n      swap2\n      swap1\n      pop\n      jump\t// out\n        /* \"#utility.yul\":1914:2168   */\n    tag_49:\n        /* \"#utility.yul\":1982:1988   */\n      0x00\n        /* \"#utility.yul\":1990:1996   */\n      dup1\n        /* \"#utility.yul\":2043:2045   */\n      0x40\n        /* \"#utility.yul\":2031:2040   */\n      dup4\n        /* \"#utility.yul\":2022:2029   */\n      dup6\n        /* \"#utility.yul\":2018:2041   */\n      sub\n        /* \"#utility.yul\":2014:2046   */\n      slt\n        /* \"#utility.yul\":2011:2063   */\n      iszero\n      tag_456\n      jumpi\n        /* \"#utility.yul\":2059:2060   */\n      0x00\n        /* \"#utility.yul\":2056:2057   */\n      dup1\n        /* \"#utility.yul\":2049:2061   */\n      revert\n        /* \"#utility.yul\":2011:2063   */\n    tag_456:\n        /* \"#utility.yul\":2082:2111   */\n      tag_457\n        /* \"#utility.yul\":2101:2110   */\n      dup4\n        /* \"#utility.yul\":2082:2111   */\n      tag_431\n      jump\t// in\n    tag_457:\n        /* \"#utility.yul\":2072:2111   */\n      swap5\n        /* \"#utility.yul\":2158:2160   */\n      0x20\n        /* \"#utility.yul\":2143:2161   */\n      swap4\n      swap1\n      swap4\n      add\n        /* \"#utility.yul\":2130:2162   */\n      calldataload\n      swap4\n      pop\n      pop\n      pop\n        /* \"#utility.yul\":1914:2168   */\n      jump\t// out\n        /* \"#utility.yul\":2355:2683   */\n    tag_59:\n        /* \"#utility.yul\":2432:2438   */\n      0x00\n        /* \"#utility.yul\":2440:2446   */\n      dup1\n        /* \"#utility.yul\":2448:2454   */\n      0x00\n        /* \"#utility.yul\":2501:2503   */\n      0x60\n        /* \"#utility.yul\":2489:2498   */\n      dup5\n        /* \"#utility.yul\":2480:2487   */\n      dup7\n        /* \"#utility.yul\":2476:2499   */\n      sub\n        /* \"#utility.yul\":2472:2504   */\n      slt\n        /* \"#utility.yul\":2469:2521   */\n      iszero\n      tag_460\n      jumpi\n        /* \"#utility.yul\":2517:2518   */\n      0x00\n        /* \"#utility.yul\":2514:2515   */\n      dup1\n        /* \"#utility.yul\":2507:2519   */\n      revert\n        /* \"#utility.yul\":2469:2521   */\n    tag_460:\n        /* \"#utility.yul\":2540:2569   */\n      tag_461\n        /* \"#utility.yul\":2559:2568   */\n      dup5\n        /* \"#utility.yul\":2540:2569   */\n      tag_431\n      jump\t// in\n    tag_461:\n        /* \"#utility.yul\":2530:2569   */\n      swap3\n      pop\n        /* \"#utility.yul\":2588:2626   */\n      tag_462\n        /* \"#utility.yul\":2622:2624   */\n      0x20\n        /* \"#utility.yul\":2611:2620   */\n      dup6\n        /* \"#utility.yul\":2607:2625   */\n      add\n        /* \"#utility.yul\":2588:2626   */\n      tag_431\n      jump\t// in\n    tag_462:\n        /* \"#utility.yul\":2578:2626   */\n      swap2\n      pop\n        /* \"#utility.yul\":2673:2675   */\n      0x40\n        /* \"#utility.yul\":2662:2671   */\n      dup5\n        /* \"#utility.yul\":2658:2676   */\n      add\n        /* \"#utility.yul\":2645:2677   */\n      calldataload\n        /* \"#utility.yul\":2635:2677   */\n      swap1\n      pop\n        /* \"#utility.yul\":2355:2683   */\n      swap3\n      pop\n      swap3\n      pop\n      swap3\n      jump\t// out\n        /* \"#utility.yul\":2688:2874   */\n    tag_71:\n        /* \"#utility.yul\":2747:2753   */\n      0x00\n        /* \"#utility.yul\":2800:2802   */\n      0x20\n        /* \"#utility.yul\":2788:2797   */\n      dup3\n        /* \"#utility.yul\":2779:2786   */\n      dup5\n        /* \"#utility.yul\":2775:2798   */\n      sub\n        /* \"#utility.yul\":2771:2803   */\n      slt\n        /* \"#utility.yul\":2768:2820   */\n      iszero\n      tag_464\n      jumpi\n        /* \"#utility.yul\":2816:2817   */\n      0x00\n        /* \"#utility.yul\":2813:2814   */\n      dup1\n        /* \"#utility.yul\":2806:2818   */\n      revert\n        /* \"#utility.yul\":2768:2820   */\n    tag_464:\n        /* \"#utility.yul\":2839:2868   */\n      tag_246\n        /* \"#utility.yul\":2858:2867   */\n      dup3\n        /* \"#utility.yul\":2839:2868   */\n      tag_431\n      jump\t// in\n        /* \"#utility.yul\":2879:3226   */\n    tag_110:\n        /* \"#utility.yul\":2944:2950   */\n      0x00\n        /* \"#utility.yul\":2952:2958   */\n      dup1\n        /* \"#utility.yul\":3005:3007   */\n      0x40\n        /* \"#utility.yul\":2993:3002   */\n      dup4\n        /* \"#utility.yul\":2984:2991   */\n      dup6\n        /* \"#utility.yul\":2980:3003   */\n      sub\n        /* \"#utility.yul\":2976:3008   */\n      slt\n        /* \"#utility.yul\":2973:3025   */\n      iszero\n      tag_467\n      jumpi\n        /* \"#utility.yul\":3021:3022   */\n      0x00\n        /* \"#utility.yul\":3018:3019   */\n      dup1\n        /* \"#utility.yul\":3011:3023   */\n      revert\n        /* \"#utility.yul\":2973:3025   */\n    tag_467:\n        /* \"#utility.yul\":3044:3073   */\n      tag_468\n        /* \"#utility.yul\":3063:3072   */\n      dup4\n        /* \"#utility.yul\":3044:3073   */\n      tag_431\n      jump\t// in\n    tag_468:\n        /* \"#utility.yul\":3034:3073   */\n      swap2\n      pop\n        /* \"#utility.yul\":3123:3125   */\n      0x20\n        /* \"#utility.yul\":3112:3121   */\n      dup4\n        /* \"#utility.yul\":3108:3126   */\n      add\n        /* \"#utility.yul\":3095:3127   */\n      calldataload\n        /* \"#utility.yul\":3170:3175   */\n      dup1\n        /* \"#utility.yul\":3163:3176   */\n      iszero\n        /* \"#utility.yul\":3156:3177   */\n      iszero\n        /* \"#utility.yul\":3149:3154   */\n      dup2\n        /* \"#utility.yul\":3146:3178   */\n      eq\n        /* \"#utility.yul\":3136:3196   */\n      tag_469\n      jumpi\n        /* \"#utility.yul\":3192:3193   */\n      0x00\n        /* \"#utility.yul\":3189:3190   */\n      dup1\n        /* \"#utility.yul\":3182:3194   */\n      revert\n        /* \"#utility.yul\":3136:3196   */\n    tag_469:\n        /* \"#utility.yul\":3215:3220   */\n      dup1\n        /* \"#utility.yul\":3205:3220   */\n      swap2\n      pop\n      pop\n        /* \"#utility.yul\":2879:3226   */\n      swap3\n      pop\n      swap3\n      swap1\n      pop\n      jump\t// out\n        /* \"#utility.yul\":3231:3358   */\n    tag_329:\n        /* \"#utility.yul\":3292:3302   */\n      0x4e487b71\n        /* \"#utility.yul\":3287:3290   */\n      0xe0\n        /* \"#utility.yul\":3283:3303   */\n      shl\n        /* \"#utility.yul\":3280:3281   */\n      0x00\n        /* \"#utility.yul\":3273:3304   */\n      mstore\n        /* \"#utility.yul\":3323:3327   */\n      0x41\n        /* \"#utility.yul\":3320:3321   */\n      0x04\n        /* \"#utility.yul\":3313:3328   */\n      mstore\n        /* \"#utility.yul\":3347:3351   */\n      0x24\n        /* \"#utility.yul\":3344:3345   */\n      0x00\n        /* \"#utility.yul\":3337:3352   */\n      revert\n        /* \"#utility.yul\":3363:4501   */\n    tag_115:\n        /* \"#utility.yul\":3458:3464   */\n      0x00\n        /* \"#utility.yul\":3466:3472   */\n      dup1\n        /* \"#utility.yul\":3474:3480   */\n      0x00\n        /* \"#utility.yul\":3482:3488   */\n      dup1\n        /* \"#utility.yul\":3535:3538   */\n      0x80\n        /* \"#utility.yul\":3523:3532   */\n      dup6\n        /* \"#utility.yul\":3514:3521   */\n      dup8\n        /* \"#utility.yul\":3510:3533   */\n      sub\n        /* \"#utility.yul\":3506:3539   */\n      slt\n        /* \"#utility.yul\":3503:3556   */\n      iszero\n      tag_472\n      jumpi\n        /* \"#utility.yul\":3552:3553   */\n      0x00\n        /* \"#utility.yul\":3549:3550   */\n      dup1\n        /* \"#utility.yul\":3542:3554   */\n      revert\n        /* \"#utility.yul\":3503:3556   */\n    tag_472:\n        /* \"#utility.yul\":3575:3604   */\n      tag_473\n        /* \"#utility.yul\":3594:3603   */\n      dup6\n        /* \"#utility.yul\":3575:3604   */\n      tag_431\n      jump\t// in\n    tag_473:\n        /* \"#utility.yul\":3565:3604   */\n      swap4\n      pop\n        /* \"#utility.yul\":3623:3661   */\n      tag_474\n        /* \"#utility.yul\":3657:3659   */\n      0x20\n        /* \"#utility.yul\":3646:3655   */\n      dup7\n        /* \"#utility.yul\":3642:3660   */\n      add\n        /* \"#utility.yul\":3623:3661   */\n      tag_431\n      jump\t// in\n    tag_474:\n        /* \"#utility.yul\":3613:3661   */\n      swap3\n      pop\n        /* \"#utility.yul\":3708:3710   */\n      0x40\n        /* \"#utility.yul\":3697:3706   */\n      dup6\n        /* \"#utility.yul\":3693:3711   */\n      add\n        /* \"#utility.yul\":3680:3712   */\n      calldataload\n        /* \"#utility.yul\":3670:3712   */\n      swap2\n      pop\n        /* \"#utility.yul\":3763:3765   */\n      0x60\n        /* \"#utility.yul\":3752:3761   */\n      dup6\n        /* \"#utility.yul\":3748:3766   */\n      add\n        /* \"#utility.yul\":3735:3767   */\n      calldataload\n        /* \"#utility.yul\":3786:3804   */\n      0xffffffffffffffff\n        /* \"#utility.yul\":3827:3829   */\n      dup1\n        /* \"#utility.yul\":3819:3825   */\n      dup3\n        /* \"#utility.yul\":3816:3830   */\n      gt\n        /* \"#utility.yul\":3813:3847   */\n      iszero\n      tag_475\n      jumpi\n        /* \"#utility.yul\":3843:3844   */\n      0x00\n        /* \"#utility.yul\":3840:3841   */\n      dup1\n        /* \"#utility.yul\":3833:3845   */\n      revert\n        /* \"#utility.yul\":3813:3847   */\n    tag_475:\n        /* \"#utility.yul\":3881:3887   */\n      dup2\n        /* \"#utility.yul\":3870:3879   */\n      dup8\n        /* \"#utility.yul\":3866:3888   */\n      add\n        /* \"#utility.yul\":3856:3888   */\n      swap2\n      pop\n        /* \"#utility.yul\":3926:3933   */\n      dup8\n        /* \"#utility.yul\":3919:3923   */\n      0x1f\n        /* \"#utility.yul\":3915:3917   */\n      dup4\n        /* \"#utility.yul\":3911:3924   */\n      add\n        /* \"#utility.yul\":3907:3934   */\n      slt\n        /* \"#utility.yul\":3897:3952   */\n      tag_476\n      jumpi\n        /* \"#utility.yul\":3948:3949   */\n      0x00\n        /* \"#utility.yul\":3945:3946   */\n      dup1\n        /* \"#utility.yul\":3938:3950   */\n      revert\n        /* \"#utility.yul\":3897:3952   */\n    tag_476:\n        /* \"#utility.yul\":3984:3986   */\n      dup2\n        /* \"#utility.yul\":3971:3987   */\n      calldataload\n        /* \"#utility.yul\":4006:4008   */\n      dup2\n        /* \"#utility.yul\":4002:4004   */\n      dup2\n        /* \"#utility.yul\":3999:4009   */\n      gt\n        /* \"#utility.yul\":3996:4032   */\n      iszero\n      tag_478\n      jumpi\n        /* \"#utility.yul\":4012:4030   */\n      tag_478\n      tag_329\n      jump\t// in\n    tag_478:\n        /* \"#utility.yul\":4087:4089   */\n      0x40\n        /* \"#utility.yul\":4081:4090   */\n      mload\n        /* \"#utility.yul\":4055:4057   */\n      0x1f\n        /* \"#utility.yul\":4141:4154   */\n      dup3\n      add\n      not(0x1f)\n        /* \"#utility.yul\":4137:4159   */\n      swap1\n      dup2\n      and\n        /* \"#utility.yul\":4161:4163   */\n      0x3f\n        /* \"#utility.yul\":4133:4164   */\n      add\n        /* \"#utility.yul\":4129:4169   */\n      and\n        /* \"#utility.yul\":4117:4170   */\n      dup2\n      add\n      swap1\n        /* \"#utility.yul\":4185:4203   */\n      dup4\n      dup3\n      gt\n        /* \"#utility.yul\":4205:4227   */\n      dup2\n      dup4\n      lt\n        /* \"#utility.yul\":4182:4228   */\n      or\n        /* \"#utility.yul\":4179:4251   */\n      iszero\n      tag_480\n      jumpi\n        /* \"#utility.yul\":4231:4249   */\n      tag_480\n      tag_329\n      jump\t// in\n    tag_480:\n        /* \"#utility.yul\":4271:4281   */\n      dup2\n        /* \"#utility.yul\":4267:4269   */\n      0x40\n        /* \"#utility.yul\":4260:4282   */\n      mstore\n        /* \"#utility.yul\":4306:4308   */\n      dup3\n        /* \"#utility.yul\":4298:4304   */\n      dup2\n        /* \"#utility.yul\":4291:4309   */\n      mstore\n        /* \"#utility.yul\":4346:4353   */\n      dup11\n        /* \"#utility.yul\":4341:4343   */\n      0x20\n        /* \"#utility.yul\":4336:4338   */\n      dup5\n        /* \"#utility.yul\":4332:4334   */\n      dup8\n        /* \"#utility.yul\":4328:4339   */\n      add\n        /* \"#utility.yul\":4324:4344   */\n      add\n        /* \"#utility.yul\":4321:4354   */\n      gt\n        /* \"#utility.yul\":4318:4371   */\n      iszero\n      tag_481\n      jumpi\n        /* \"#utility.yul\":4367:4368   */\n      0x00\n        /* \"#utility.yul\":4364:4365   */\n      dup1\n        /* \"#utility.yul\":4357:4369   */\n      revert\n        /* \"#utility.yul\":4318:4371   */\n    tag_481:\n        /* \"#utility.yul\":4423:4425   */\n      dup3\n        /* \"#utility.yul\":4418:4420   */\n      0x20\n        /* \"#utility.yul\":4414:4416   */\n      dup7\n        /* \"#utility.yul\":4410:4421   */\n      add\n        /* \"#utility.yul\":4405:4407   */\n      0x20\n        /* \"#utility.yul\":4397:4403   */\n      dup4\n        /* \"#utility.yul\":4393:4408   */\n      add\n        /* \"#utility.yul\":4380:4426   */\n      calldatacopy\n        /* \"#utility.yul\":4468:4469   */\n      0x00\n        /* \"#utility.yul\":4463:4465   */\n      0x20\n        /* \"#utility.yul\":4458:4460   */\n      dup5\n        /* \"#utility.yul\":4450:4456   */\n      dup4\n        /* \"#utility.yul\":4446:4461   */\n      add\n        /* \"#utility.yul\":4442:4466   */\n      add\n        /* \"#utility.yul\":4435:4470   */\n      mstore\n        /* \"#utility.yul\":4489:4495   */\n      dup1\n        /* \"#utility.yul\":4479:4495   */\n      swap6\n      pop\n      pop\n      pop\n      pop\n      pop\n      pop\n        /* \"#utility.yul\":3363:4501   */\n      swap3\n      swap6\n      swap2\n      swap5\n      pop\n      swap3\n      pop\n      jump\t// out\n        /* \"#utility.yul\":4506:4766   */\n    tag_125:\n        /* \"#utility.yul\":4574:4580   */\n      0x00\n        /* \"#utility.yul\":4582:4588   */\n      dup1\n        /* \"#utility.yul\":4635:4637   */\n      0x40\n        /* \"#utility.yul\":4623:4632   */\n      dup4\n        /* \"#utility.yul\":4614:4621   */\n      dup6\n        /* \"#utility.yul\":4610:4633   */\n      sub\n        /* \"#utility.yul\":4606:4638   */\n      slt\n        /* \"#utility.yul\":4603:4655   */\n      iszero\n      tag_483\n      jumpi\n        /* \"#utility.yul\":4651:4652   */\n      0x00\n        /* \"#utility.yul\":4648:4649   */\n      dup1\n        /* \"#utility.yul\":4641:4653   */\n      revert\n        /* \"#utility.yul\":4603:4655   */\n    tag_483:\n        /* \"#utility.yul\":4674:4703   */\n      tag_484\n        /* \"#utility.yul\":4693:4702   */\n      dup4\n        /* \"#utility.yul\":4674:4703   */\n      tag_431\n      jump\t// in\n    tag_484:\n        /* \"#utility.yul\":4664:4703   */\n      swap2\n      pop\n        /* \"#utility.yul\":4722:4760   */\n      tag_485\n        /* \"#utility.yul\":4756:4758   */\n      0x20\n        /* \"#utility.yul\":4745:4754   */\n      dup5\n        /* \"#utility.yul\":4741:4759   */\n      add\n        /* \"#utility.yul\":4722:4760   */\n      tag_431\n      jump\t// in\n    tag_485:\n        /* \"#utility.yul\":4712:4760   */\n      swap1\n      pop\n        /* \"#utility.yul\":4506:4766   */\n      swap3\n      pop\n      swap3\n      swap1\n      pop\n      jump\t// out\n        /* \"#utility.yul\":4771:5151   */\n    tag_137:\n        /* \"#utility.yul\":4850:4851   */\n      0x01\n        /* \"#utility.yul\":4846:4858   */\n      dup2\n      dup2\n      shr\n      swap1\n        /* \"#utility.yul\":4893:4905   */\n      dup3\n      and\n      dup1\n        /* \"#utility.yul\":4914:4975   */\n      tag_487\n      jumpi\n        /* \"#utility.yul\":4968:4972   */\n      0x7f\n        /* \"#utility.yul\":4960:4966   */\n      dup3\n        /* \"#utility.yul\":4956:4973   */\n      and\n        /* \"#utility.yul\":4946:4973   */\n      swap2\n      pop\n        /* \"#utility.yul\":4914:4975   */\n    tag_487:\n        /* \"#utility.yul\":5021:5023   */\n      0x20\n        /* \"#utility.yul\":5013:5019   */\n      dup3\n        /* \"#utility.yul\":5010:5024   */\n      lt\n        /* \"#utility.yul\":4990:5008   */\n      dup2\n        /* \"#utility.yul\":4987:5025   */\n      sub\n        /* \"#utility.yul\":4984:5145   */\n      tag_488\n      jumpi\n        /* \"#utility.yul\":5067:5077   */\n      0x4e487b71\n        /* \"#utility.yul\":5062:5065   */\n      0xe0\n        /* \"#utility.yul\":5058:5078   */\n      shl\n        /* \"#utility.yul\":5055:5056   */\n      0x00\n        /* \"#utility.yul\":5048:5079   */\n      mstore\n        /* \"#utility.yul\":5102:5106   */\n      0x22\n        /* \"#utility.yul\":5099:5100   */\n      0x04\n        /* \"#utility.yul\":5092:5107   */\n      mstore\n        /* \"#utility.yul\":5130:5134   */\n      0x24\n        /* \"#utility.yul\":5127:5128   */\n      0x00\n        /* \"#utility.yul\":5120:5135   */\n      revert\n        /* \"#utility.yul\":4984:5145   */\n    tag_488:\n      pop\n        /* \"#utility.yul\":4771:5151   */\n      swap2\n      swap1\n      pop\n      jump\t// out\n        /* \"#utility.yul\":5989:6399   */\n    tag_167:\n        /* \"#utility.yul\":6191:6193   */\n      0x20\n        /* \"#utility.yul\":6173:6194   */\n      dup1\n      dup3\n      mstore\n        /* \"#utility.yul\":6230:6232   */\n      0x2e\n        /* \"#utility.yul\":6210:6228   */\n      swap1\n      dup3\n      add\n        /* \"#utility.yul\":6203:6233   */\n      mstore\n        /* \"#utility.yul\":6269:6303   */\n      0x4552433732313a2063616c6c6572206973206e6f7420746f6b656e206f776e65\n        /* \"#utility.yul\":6264:6266   */\n      0x40\n        /* \"#utility.yul\":6249:6267   */\n      dup3\n      add\n        /* \"#utility.yul\":6242:6304   */\n      mstore\n      shl(0x92, 0x1c881b9bdc88185c1c1c9bdd9959)\n        /* \"#utility.yul\":6335:6337   */\n      0x60\n        /* \"#utility.yul\":6320:6338   */\n      dup3\n      add\n        /* \"#utility.yul\":6313:6357   */\n      mstore\n        /* \"#utility.yul\":6389:6392   */\n      0x80\n        /* \"#utility.yul\":6374:6393   */\n      add\n      swap1\n        /* \"#utility.yul\":5989:6399   */\n      jump\t// out\n        /* \"#utility.yul\":8269:8396   */\n    tag_208:\n        /* \"#utility.yul\":8330:8340   */\n      0x4e487b71\n        /* \"#utility.yul\":8325:8328   */\n      0xe0\n        /* \"#utility.yul\":8321:8341   */\n      shl\n        /* \"#utility.yul\":8318:8319   */\n      0x00\n        /* \"#utility.yul\":8311:8342   */\n      mstore\n        /* \"#utility.yul\":8361:8365   */\n      0x32\n        /* \"#utility.yul\":8358:8359   */\n      0x04\n        /* \"#utility.yul\":8351:8366   */\n      mstore\n        /* \"#utility.yul\":8385:8389   */\n      0x24\n        /* \"#utility.yul\":8382:8383   */\n      0x00\n        /* \"#utility.yul\":8375:8390   */\n      revert\n        /* \"#utility.yul\":9164:9634   */\n    tag_250:\n        /* \"#utility.yul\":9343:9346   */\n      0x00\n        /* \"#utility.yul\":9381:9387   */\n      dup4\n        /* \"#utility.yul\":9375:9388   */\n      mload\n        /* \"#utility.yul\":9397:9450   */\n      tag_501\n        /* \"#utility.yul\":9443:9449   */\n      dup2\n        /* \"#utility.yul\":9438:9441   */\n      dup5\n        /* \"#utility.yul\":9431:9435   */\n      0x20\n        /* \"#utility.yul\":9423:9429   */\n      dup9\n        /* \"#utility.yul\":9419:9436   */\n      add\n        /* \"#utility.yul\":9397:9450   */\n      tag_429\n      jump\t// in\n    tag_501:\n        /* \"#utility.yul\":9513:9526   */\n      dup4\n      mload\n        /* \"#utility.yul\":9472:9488   */\n      swap1\n      dup4\n      add\n      swap1\n        /* \"#utility.yul\":9535:9592   */\n      tag_502\n        /* \"#utility.yul\":9513:9526   */\n      dup2\n        /* \"#utility.yul\":9472:9488   */\n      dup4\n        /* \"#utility.yul\":9569:9573   */\n      0x20\n        /* \"#utility.yul\":9557:9574   */\n      dup9\n      add\n        /* \"#utility.yul\":9535:9592   */\n      tag_429\n      jump\t// in\n    tag_502:\n        /* \"#utility.yul\":9608:9628   */\n      add\n      swap5\n        /* \"#utility.yul\":9164:9634   */\n      swap4\n      pop\n      pop\n      pop\n      pop\n      jump\t// out\n        /* \"#utility.yul\":10857:10984   */\n    tag_432:\n        /* \"#utility.yul\":10918:10928   */\n      0x4e487b71\n        /* \"#utility.yul\":10913:10916   */\n      0xe0\n        /* \"#utility.yul\":10909:10929   */\n      shl\n        /* \"#utility.yul\":10906:10907   */\n      0x00\n        /* \"#utility.yul\":10899:10930   */\n      mstore\n        /* \"#utility.yul\":10949:10953   */\n      0x11\n        /* \"#utility.yul\":10946:10947   */\n      0x04\n        /* \"#utility.yul\":10939:10954   */\n      mstore\n        /* \"#utility.yul\":10973:10977   */\n      0x24\n        /* \"#utility.yul\":10970:10971   */\n      0x00\n        /* \"#utility.yul\":10963:10978   */\n      revert\n        /* \"#utility.yul\":10989:11114   */\n    tag_289:\n        /* \"#utility.yul\":11029:11033   */\n      0x00\n        /* \"#utility.yul\":11057:11058   */\n      dup3\n        /* \"#utility.yul\":11054:11055   */\n      dup3\n        /* \"#utility.yul\":11051:11059   */\n      lt\n        /* \"#utility.yul\":11048:11082   */\n      iszero\n      tag_509\n      jumpi\n        /* \"#utility.yul\":11062:11080   */\n      tag_509\n      tag_432\n      jump\t// in\n    tag_509:\n      pop\n        /* \"#utility.yul\":11099:11108   */\n      sub\n      swap1\n        /* \"#utility.yul\":10989:11114   */\n      jump\t// out\n        /* \"#utility.yul\":11119:11247   */\n    tag_291:\n        /* \"#utility.yul\":11159:11162   */\n      0x00\n        /* \"#utility.yul\":11190:11191   */\n      dup3\n        /* \"#utility.yul\":11186:11192   */\n      not\n        /* \"#utility.yul\":11183:11184   */\n      dup3\n        /* \"#utility.yul\":11180:11193   */\n      gt\n        /* \"#utility.yul\":11177:11216   */\n      iszero\n      tag_512\n      jumpi\n        /* \"#utility.yul\":11196:11214   */\n      tag_512\n      tag_432\n      jump\t// in\n    tag_512:\n      pop\n        /* \"#utility.yul\":11232:11241   */\n      add\n      swap1\n        /* \"#utility.yul\":11119:11247   */\n      jump\t// out\n        /* \"#utility.yul\":11967:12381   */\n    tag_317:\n        /* \"#utility.yul\":12169:12171   */\n      0x20\n        /* \"#utility.yul\":12151:12172   */\n      dup1\n      dup3\n      mstore\n        /* \"#utility.yul\":12208:12210   */\n      0x32\n        /* \"#utility.yul\":12188:12206   */\n      swap1\n      dup3\n      add\n        /* \"#utility.yul\":12181:12211   */\n      mstore\n        /* \"#utility.yul\":12247:12281   */\n      0x4552433732313a207472616e7366657220746f206e6f6e204552433732315265\n        /* \"#utility.yul\":12242:12244   */\n      0x40\n        /* \"#utility.yul\":12227:12245   */\n      dup3\n      add\n        /* \"#utility.yul\":12220:12282   */\n      mstore\n      shl(0x71, 0x31b2b4bb32b91034b6b83632b6b2b73a32b9)\n        /* \"#utility.yul\":12313:12315   */\n      0x60\n        /* \"#utility.yul\":12298:12316   */\n      dup3\n      add\n        /* \"#utility.yul\":12291:12339   */\n      mstore\n        /* \"#utility.yul\":12371:12374   */\n      0x80\n        /* \"#utility.yul\":12356:12375   */\n      add\n      swap1\n        /* \"#utility.yul\":11967:12381   */\n      jump\t// out\n        /* \"#utility.yul\":12386:12521   */\n    tag_324:\n        /* \"#utility.yul\":12425:12428   */\n      0x00\n        /* \"#utility.yul\":12446:12463   */\n      0x01\n      dup3\n      add\n        /* \"#utility.yul\":12443:12486   */\n      tag_518\n      jumpi\n        /* \"#utility.yul\":12466:12484   */\n      tag_518\n      tag_432\n      jump\t// in\n    tag_518:\n      pop\n        /* \"#utility.yul\":12513:12514   */\n      0x01\n        /* \"#utility.yul\":12502:12515   */\n      add\n      swap1\n        /* \"#utility.yul\":12386:12521   */\n      jump\t// out\n        /* \"#utility.yul\":12526:12653   */\n    tag_433:\n        /* \"#utility.yul\":12587:12597   */\n      0x4e487b71\n        /* \"#utility.yul\":12582:12585   */\n      0xe0\n        /* \"#utility.yul\":12578:12598   */\n      shl\n        /* \"#utility.yul\":12575:12576   */\n      0x00\n        /* \"#utility.yul\":12568:12599   */\n      mstore\n        /* \"#utility.yul\":12618:12622   */\n      0x12\n        /* \"#utility.yul\":12615:12616   */\n      0x04\n        /* \"#utility.yul\":12608:12623   */\n      mstore\n        /* \"#utility.yul\":12642:12646   */\n      0x24\n        /* \"#utility.yul\":12639:12640   */\n      0x00\n        /* \"#utility.yul\":12632:12647   */\n      revert\n        /* \"#utility.yul\":12658:12778   */\n    tag_326:\n        /* \"#utility.yul\":12698:12699   */\n      0x00\n        /* \"#utility.yul\":12724:12725   */\n      dup3\n        /* \"#utility.yul\":12714:12749   */\n      tag_522\n      jumpi\n        /* \"#utility.yul\":12729:12747   */\n      tag_522\n      tag_433\n      jump\t// in\n    tag_522:\n      pop\n        /* \"#utility.yul\":12763:12772   */\n      div\n      swap1\n        /* \"#utility.yul\":12658:12778   */\n      jump\t// out\n        /* \"#utility.yul\":12783:12895   */\n    tag_335:\n        /* \"#utility.yul\":12815:12816   */\n      0x00\n        /* \"#utility.yul\":12841:12842   */\n      dup3\n        /* \"#utility.yul\":12831:12866   */\n      tag_525\n      jumpi\n        /* \"#utility.yul\":12846:12864   */\n      tag_525\n      tag_433\n      jump\t// in\n    tag_525:\n      pop\n        /* \"#utility.yul\":12880:12889   */\n      mod\n      swap1\n        /* \"#utility.yul\":12783:12895   */\n      jump\t// out\n        /* \"#utility.yul\":12900:13389   */\n    tag_362:\n      sub(shl(0xa0, 0x01), 0x01)\n        /* \"#utility.yul\":13169:13184   */\n      dup6\n      dup2\n      and\n        /* \"#utility.yul\":13151:13185   */\n      dup3\n      mstore\n        /* \"#utility.yul\":13221:13236   */\n      dup5\n      and\n        /* \"#utility.yul\":13216:13218   */\n      0x20\n        /* \"#utility.yul\":13201:13219   */\n      dup3\n      add\n        /* \"#utility.yul\":13194:13237   */\n      mstore\n        /* \"#utility.yul\":13268:13270   */\n      0x40\n        /* \"#utility.yul\":13253:13271   */\n      dup2\n      add\n        /* \"#utility.yul\":13246:13280   */\n      dup4\n      swap1\n      mstore\n        /* \"#utility.yul\":13316:13319   */\n      0x80\n        /* \"#utility.yul\":13311:13313   */\n      0x60\n        /* \"#utility.yul\":13296:13314   */\n      dup3\n      add\n        /* \"#utility.yul\":13289:13320   */\n      dup2\n      swap1\n      mstore\n        /* \"#utility.yul\":13094:13098   */\n      0x00\n      swap1\n        /* \"#utility.yul\":13337:13383   */\n      tag_527\n      swap1\n        /* \"#utility.yul\":13363:13382   */\n      dup4\n      add\n        /* \"#utility.yul\":13355:13361   */\n      dup5\n        /* \"#utility.yul\":13337:13383   */\n      tag_430\n      jump\t// in\n    tag_527:\n        /* \"#utility.yul\":13329:13383   */\n      swap7\n        /* \"#utility.yul\":12900:13389   */\n      swap6\n      pop\n      pop\n      pop\n      pop\n      pop\n      pop\n      jump\t// out\n        /* \"#utility.yul\":13394:13643   */\n    tag_365:\n        /* \"#utility.yul\":13463:13469   */\n      0x00\n        /* \"#utility.yul\":13516:13518   */\n      0x20\n        /* \"#utility.yul\":13504:13513   */\n      dup3\n        /* \"#utility.yul\":13495:13502   */\n      dup5\n        /* \"#utility.yul\":13491:13514   */\n      sub\n        /* \"#utility.yul\":13487:13519   */\n      slt\n        /* \"#utility.yul\":13484:13536   */\n      iszero\n      tag_529\n      jumpi\n        /* \"#utility.yul\":13532:13533   */\n      0x00\n        /* \"#utility.yul\":13529:13530   */\n      dup1\n        /* \"#utility.yul\":13522:13534   */\n      revert\n        /* \"#utility.yul\":13484:13536   */\n    tag_529:\n        /* \"#utility.yul\":13564:13573   */\n      dup2\n        /* \"#utility.yul\":13558:13574   */\n      mload\n        /* \"#utility.yul\":13583:13613   */\n      tag_246\n        /* \"#utility.yul\":13607:13612   */\n      dup2\n        /* \"#utility.yul\":13583:13613   */\n      tag_428\n      jump\t// in\n        /* \"#utility.yul\":14366:14493   */\n    tag_424:\n        /* \"#utility.yul\":14427:14437   */\n      0x4e487b71\n        /* \"#utility.yul\":14422:14425   */\n      0xe0\n        /* \"#utility.yul\":14418:14438   */\n      shl\n        /* \"#utility.yul\":14415:14416   */\n      0x00\n        /* \"#utility.yul\":14408:14439   */\n      mstore\n        /* \"#utility.yul\":14458:14462   */\n      0x31\n        /* \"#utility.yul\":14455:14456   */\n      0x04\n        /* \"#utility.yul\":14448:14463   */\n      mstore\n        /* \"#utility.yul\":14482:14486   */\n      0x24\n        /* \"#utility.yul\":14479:14480   */\n      0x00\n        /* \"#utility.yul\":14472:14487   */\n      revert\n\n    auxdata: 0xa26469706673582212204bd167a14c7530aa93fe5a21da7897cbadac5f1fa7e7f1841f2448b552a9b57964736f6c634300080d0033\n}\n",
				"bytecode": {
					"linkReferences": {},
					"object": "6080604052662386f26fc10000600b55612710600c553480156200002257600080fd5b506040805180820182526005815264135e53919560da1b6020808301918252835180850190945260048452631353919560e21b9084015281519192916200006c91600091620000fb565b50805162000082906001906020840190620000fb565b5050506200009f62000099620000a560201b60201c565b620000a9565b620001dd565b3390565b600a80546001600160a01b038381166001600160a01b0319831681179093556040519116919082907f8be0079c531659141344cd1fd0a4f28419497f9722a3daafe3b4186f6b6457e090600090a35050565b8280546200010990620001a1565b90600052602060002090601f0160209004810192826200012d576000855562000178565b82601f106200014857805160ff191683800117855562000178565b8280016001018555821562000178579182015b82811115620001785782518255916020019190600101906200015b565b50620001869291506200018a565b5090565b5b808211156200018657600081556001016200018b565b600181811c90821680620001b657607f821691505b602082108103620001d757634e487b7160e01b600052602260045260246000fd5b50919050565b611b2380620001ed6000396000f3fe6080604052600436106101355760003560e01c80636352211e116100ab57806395d89b411161006f57806395d89b411461033b578063a22cb46514610350578063b88d4fde14610370578063c87b56dd14610390578063e985e9c5146103b0578063f2fde38b146103f957600080fd5b80636352211e146102b25780636737c9c1146102d257806370a08231146102e8578063715018a6146103085780638da5cb5b1461031d57600080fd5b806323b872dd116100fd57806323b872dd1461020a5780632f745c591461022a5780633ccfd60b1461024a57806340d097c31461025f57806342842e0e146102725780634f6ccce71461029257600080fd5b806301ffc9a71461013a57806306fdde031461016f578063081812fc14610191578063095ea7b3146101c957806318160ddd146101eb575b600080fd5b34801561014657600080fd5b5061015a610155366004611623565b610419565b60405190151581526020015b60405180910390f35b34801561017b57600080fd5b5061018461042a565b6040516101669190611698565b34801561019d57600080fd5b506101b16101ac3660046116ab565b6104bc565b6040516001600160a01b039091168152602001610166565b3480156101d557600080fd5b506101e96101e43660046116e0565b6104e3565b005b3480156101f757600080fd5b506008545b604051908152602001610166565b34801561021657600080fd5b506101e961022536600461170a565b6105fd565b34801561023657600080fd5b506101fc6102453660046116e0565b61062e565b34801561025657600080fd5b506101e96106c4565b6101e961026d366004611746565b610747565b34801561027e57600080fd5b506101e961028d36600461170a565b6107fb565b34801561029e57600080fd5b506101fc6102ad3660046116ab565b610816565b3480156102be57600080fd5b506101b16102cd3660046116ab565b6108a9565b3480156102de57600080fd5b506101fc600c5481565b3480156102f457600080fd5b506101fc610303366004611746565b610909565b34801561031457600080fd5b506101e961098f565b34801561032957600080fd5b50600a546001600160a01b03166101b1565b34801561034757600080fd5b506101846109a3565b34801561035c57600080fd5b506101e961036b366004611761565b6109b2565b34801561037c57600080fd5b506101e961038b3660046117b3565b6109c1565b34801561039c57600080fd5b506101846103ab3660046116ab565b6109f9565b3480156103bc57600080fd5b5061015a6103cb36600461188f565b6001600160a01b03918216600090815260056020908152604080832093909416825291909152205460ff1690565b34801561040557600080fd5b506101e9610414366004611746565b610a92565b600061042482610b08565b92915050565b606060008054610439906118c2565b80601f0160208091040260200160405190810160405280929190818152602001828054610465906118c2565b80156104b25780601f10610487576101008083540402835291602001916104b2565b820191906000526020600020905b81548152906001019060200180831161049557829003601f168201915b5050505050905090565b60006104c782610b2d565b506000908152600460205260409020546001600160a01b031690565b60006104ee826108a9565b9050806001600160a01b0316836001600160a01b0316036105605760405162461bcd60e51b815260206004820152602160248201527f4552433732313a20617070726f76616c20746f2063757272656e74206f776e656044820152603960f91b60648201526084015b60405180910390fd5b336001600160a01b038216148061057c575061057c81336103cb565b6105ee5760405162461bcd60e51b815260206004820152603e60248201527f4552433732313a20617070726f76652063616c6c6572206973206e6f7420746f60448201527f6b656e206f776e6572206e6f7220617070726f76656420666f7220616c6c00006064820152608401610557565b6105f88383610b8c565b505050565b6106073382610bfa565b6106235760405162461bcd60e51b8152600401610557906118fc565b6105f8838383610c79565b600061063983610909565b821061069b5760405162461bcd60e51b815260206004820152602b60248201527f455243373231456e756d657261626c653a206f776e657220696e646578206f7560448201526a74206f6620626f756e647360a81b6064820152608401610557565b506001600160a01b03919091166000908152600660209081526040808320938352929052205490565b6106cc610e20565b6000471161070b5760405162461bcd60e51b815260206004820152600c60248201526b042616c616e636520697320360a41b6044820152606401610557565b600a546040516001600160a01b03909116904780156108fc02916000818181858888f19350505050158015610744573d6000803e3d6000fd5b50565b600c54600854106107915760405162461bcd60e51b815260206004820152601460248201527343616e2774204d696e74204d6f7265204e46547360601b6044820152606401610557565b600b543410156107db5760405162461bcd60e51b8152602060048201526015602482015274139bdd08195b9bdd59da08115d1a195c881cd95b9d605a1b6044820152606401610557565b6107e9600d80546001019055565b610744816107f6600d5490565b610e7a565b6105f8838383604051806020016040528060008152506109c1565b600061082160085490565b82106108845760405162461bcd60e51b815260206004820152602c60248201527f455243373231456e756d657261626c653a20676c6f62616c20696e646578206f60448201526b7574206f6620626f756e647360a01b6064820152608401610557565b600882815481106108975761089761194a565b90600052602060002001549050919050565b6000818152600260205260408120546001600160a01b0316806104245760405162461bcd60e51b8152602060048201526018602482015277115490cdcc8c4e881a5b9d985b1a59081d1bdad95b88125160421b6044820152606401610557565b60006001600160a01b0382166109735760405162461bcd60e51b815260206004820152602960248201527f4552433732313a2061646472657373207a65726f206973206e6f7420612076616044820152683634b21037bbb732b960b91b6064820152608401610557565b506001600160a01b031660009081526003602052604090205490565b610997610e20565b6109a16000610e94565b565b606060018054610439906118c2565b6109bd338383610ee6565b5050565b6109cb3383610bfa565b6109e75760405162461bcd60e51b8152600401610557906118fc565b6109f384848484610fb4565b50505050565b6060610a0482610b2d565b6000610a4060408051808201909152601881527f68747470733a2f2f746573742e636f6d2f746f6b656e732f0000000000000000602082015290565b90506000815111610a605760405180602001604052806000815250610a8b565b80610a6a84610fe7565b604051602001610a7b929190611960565b6040516020818303038152906040525b9392505050565b610a9a610e20565b6001600160a01b038116610aff5760405162461bcd60e51b815260206004820152602660248201527f4f776e61626c653a206e6577206f776e657220697320746865207a65726f206160448201526564647265737360d01b6064820152608401610557565b61074481610e94565b60006001600160e01b0319821663780e9d6360e01b14806104245750610424826110e8565b6000818152600260205260409020546001600160a01b03166107445760405162461bcd60e51b8152602060048201526018602482015277115490cdcc8c4e881a5b9d985b1a59081d1bdad95b88125160421b6044820152606401610557565b600081815260046020526040902080546001600160a01b0319166001600160a01b0384169081179091558190610bc1826108a9565b6001600160a01b03167f8c5be1e5ebec7d5bd14f71427d1e84f3dd0314c0f7b2291e5b200ac8c7c3b92560405160405180910390a45050565b600080610c06836108a9565b9050806001600160a01b0316846001600160a01b03161480610c4d57506001600160a01b0380821660009081526005602090815260408083209388168352929052205460ff165b80610c715750836001600160a01b0316610c66846104bc565b6001600160a01b0316145b949350505050565b826001600160a01b0316610c8c826108a9565b6001600160a01b031614610cf05760405162461bcd60e51b815260206004820152602560248201527f4552433732313a207472616e736665722066726f6d20696e636f72726563742060448201526437bbb732b960d91b6064820152608401610557565b6001600160a01b038216610d525760405162461bcd60e51b8152602060048201526024808201527f4552433732313a207472616e7366657220746f20746865207a65726f206164646044820152637265737360e01b6064820152608401610557565b610d5d838383611138565b610d68600082610b8c565b6001600160a01b0383166000908152600360205260408120805460019290610d919084906119a5565b90915550506001600160a01b0382166000908152600360205260408120805460019290610dbf9084906119bc565b909155505060008181526002602052604080822080546001600160a01b0319166001600160a01b0386811691821790925591518493918716917fddf252ad1be2c89b69c2b068fc378daa952ba7f163c4a11628f55a4df523b3ef91a4505050565b600a546001600160a01b031633146109a15760405162461bcd60e51b815260206004820181905260248201527f4f776e61626c653a2063616c6c6572206973206e6f7420746865206f776e65726044820152606401610557565b6109bd828260405180602001604052806000815250611143565b600a80546001600160a01b038381166001600160a01b0319831681179093556040519116919082907f8be0079c531659141344cd1fd0a4f28419497f9722a3daafe3b4186f6b6457e090600090a35050565b816001600160a01b0316836001600160a01b031603610f475760405162461bcd60e51b815260206004820152601960248201527f4552433732313a20617070726f766520746f2063616c6c6572000000000000006044820152606401610557565b6001600160a01b03838116600081815260056020908152604080832094871680845294825291829020805460ff191686151590811790915591519182527f17307eab39ab6107e8899845ad3d59bd9653f200f220920489ca2b5937696c31910160405180910390a3505050565b610fbf848484610c79565b610fcb84848484611176565b6109f35760405162461bcd60e51b8152600401610557906119d4565b60608160000361100e5750506040805180820190915260018152600360fc1b602082015290565b8160005b8115611038578061102281611a26565b91506110319050600a83611a55565b9150611012565b60008167ffffffffffffffff8111156110535761105361179d565b6040519080825280601f01601f19166020018201604052801561107d576020820181803683370190505b5090505b8415610c71576110926001836119a5565b915061109f600a86611a69565b6110aa9060306119bc565b60f81b8183815181106110bf576110bf61194a565b60200101906001600160f81b031916908160001a9053506110e1600a86611a55565b9450611081565b60006001600160e01b031982166380ac58cd60e01b148061111957506001600160e01b03198216635b5e139f60e01b145b8061042457506301ffc9a760e01b6001600160e01b0319831614610424565b6105f8838383611277565b61114d838361132f565b61115a6000848484611176565b6105f85760405162461bcd60e51b8152600401610557906119d4565b60006001600160a01b0384163b1561126c57604051630a85bd0160e11b81526001600160a01b0385169063150b7a02906111ba903390899088908890600401611a7d565b6020604051808303816000875af19250505080156111f5575060408051601f3d908101601f191682019092526111f291810190611aba565b60015b611252573d808015611223576040519150601f19603f3d011682016040523d82523d6000602084013e611228565b606091505b50805160000361124a5760405162461bcd60e51b8152600401610557906119d4565b805181602001fd5b6001600160e01b031916630a85bd0160e11b149050610c71565b506001949350505050565b6001600160a01b0383166112d2576112cd81600880546000838152600960205260408120829055600182018355919091527ff3f7a9fe364faab93b216da50a3214154f22a0a2b415b23a84c8169e8b636ee30155565b6112f5565b816001600160a01b0316836001600160a01b0316146112f5576112f5838261147d565b6001600160a01b03821661130c576105f88161151a565b826001600160a01b0316826001600160a01b0316146105f8576105f882826115c9565b6001600160a01b0382166113855760405162461bcd60e51b815260206004820181905260248201527f4552433732313a206d696e7420746f20746865207a65726f20616464726573736044820152606401610557565b6000818152600260205260409020546001600160a01b0316156113ea5760405162461bcd60e51b815260206004820152601c60248201527f4552433732313a20746f6b656e20616c7265616479206d696e746564000000006044820152606401610557565b6113f660008383611138565b6001600160a01b038216600090815260036020526040812080546001929061141f9084906119bc565b909155505060008181526002602052604080822080546001600160a01b0319166001600160a01b03861690811790915590518392907fddf252ad1be2c89b69c2b068fc378daa952ba7f163c4a11628f55a4df523b3ef908290a45050565b6000600161148a84610909565b61149491906119a5565b6000838152600760205260409020549091508082146114e7576001600160a01b03841660009081526006602090815260408083208584528252808320548484528184208190558352600790915290208190555b5060009182526007602090815260408084208490556001600160a01b039094168352600681528383209183525290812055565b60085460009061152c906001906119a5565b600083815260096020526040812054600880549394509092849081106115545761155461194a565b9060005260206000200154905080600883815481106115755761157561194a565b60009182526020808320909101929092558281526009909152604080822084905585825281205560088054806115ad576115ad611ad7565b6001900381819060005260206000200160009055905550505050565b60006115d483610909565b6001600160a01b039093166000908152600660209081526040808320868452825280832085905593825260079052919091209190915550565b6001600160e01b03198116811461074457600080fd5b60006020828403121561163557600080fd5b8135610a8b8161160d565b60005b8381101561165b578181015183820152602001611643565b838111156109f35750506000910152565b60008151808452611684816020860160208601611640565b601f01601f19169290920160200192915050565b602081526000610a8b602083018461166c565b6000602082840312156116bd57600080fd5b5035919050565b80356001600160a01b03811681146116db57600080fd5b919050565b600080604083850312156116f357600080fd5b6116fc836116c4565b946020939093013593505050565b60008060006060848603121561171f57600080fd5b611728846116c4565b9250611736602085016116c4565b9150604084013590509250925092565b60006020828403121561175857600080fd5b610a8b826116c4565b6000806040838503121561177457600080fd5b61177d836116c4565b91506020830135801515811461179257600080fd5b809150509250929050565b634e487b7160e01b600052604160045260246000fd5b600080600080608085870312156117c957600080fd5b6117d2856116c4565b93506117e0602086016116c4565b925060408501359150606085013567ffffffffffffffff8082111561180457600080fd5b818701915087601f83011261181857600080fd5b81358181111561182a5761182a61179d565b604051601f8201601f19908116603f011681019083821181831017156118525761185261179d565b816040528281528a602084870101111561186b57600080fd5b82602086016020830137600060208483010152809550505050505092959194509250565b600080604083850312156118a257600080fd5b6118ab836116c4565b91506118b9602084016116c4565b90509250929050565b600181811c908216806118d657607f821691505b6020821081036118f657634e487b7160e01b600052602260045260246000fd5b50919050565b6020808252602e908201527f4552433732313a2063616c6c6572206973206e6f7420746f6b656e206f776e6560408201526d1c881b9bdc88185c1c1c9bdd995960921b606082015260800190565b634e487b7160e01b600052603260045260246000fd5b60008351611972818460208801611640565b835190830190611986818360208801611640565b01949350505050565b634e487b7160e01b600052601160045260246000fd5b6000828210156119b7576119b761198f565b500390565b600082198211156119cf576119cf61198f565b500190565b60208082526032908201527f4552433732313a207472616e7366657220746f206e6f6e20455243373231526560408201527131b2b4bb32b91034b6b83632b6b2b73a32b960711b606082015260800190565b600060018201611a3857611a3861198f565b5060010190565b634e487b7160e01b600052601260045260246000fd5b600082611a6457611a64611a3f565b500490565b600082611a7857611a78611a3f565b500690565b6001600160a01b0385811682528416602082015260408101839052608060608201819052600090611ab09083018461166c565b9695505050505050565b600060208284031215611acc57600080fd5b8151610a8b8161160d565b634e487b7160e01b600052603160045260246000fdfea26469706673582212204bd167a14c7530aa93fe5a21da7897cbadac5f1fa7e7f1841f2448b552a9b57964736f6c634300080d0033",
					"opcodes": "PUSH1 0x80 PUSH1 0x40 MSTORE PUSH7 0x2386F26FC10000 PUSH1 0xB SSTORE PUSH2 0x2710 PUSH1 0xC SSTORE CALLVALUE DUP1 ISZERO PUSH3 0x22 JUMPI PUSH1 0x0 DUP1 REVERT JUMPDEST POP PUSH1 0x40 DUP1 MLOAD DUP1 DUP3 ADD DUP3 MSTORE PUSH1 0x5 DUP2 MSTORE PUSH5 0x135E539195 PUSH1 0xDA SHL PUSH1 0x20 DUP1 DUP4 ADD SWAP2 DUP3 MSTORE DUP4 MLOAD DUP1 DUP6 ADD SWAP1 SWAP5 MSTORE PUSH1 0x4 DUP5 MSTORE PUSH4 0x13539195 PUSH1 0xE2 SHL SWAP1 DUP5 ADD MSTORE DUP2 MLOAD SWAP2 SWAP3 SWAP2 PUSH3 0x6C SWAP2 PUSH1 0x0 SWAP2 PUSH3 0xFB JUMP JUMPDEST POP DUP1 MLOAD PUSH3 0x82 SWAP1 PUSH1 0x1 SWAP1 PUSH1 0x20 DUP5 ADD SWAP1 PUSH3 0xFB JUMP JUMPDEST POP POP POP PUSH3 0x9F PUSH3 0x99 PUSH3 0xA5 PUSH1 0x20 SHL PUSH1 0x20 SHR JUMP JUMPDEST PUSH3 0xA9 JUMP JUMPDEST PUSH3 0x1DD JUMP JUMPDEST CALLER SWAP1 JUMP JUMPDEST PUSH1 0xA DUP1 SLOAD PUSH1 0x1 PUSH1 0x1 PUSH1 0xA0 SHL SUB DUP4 DUP2 AND PUSH1 0x1 PUSH1 0x1 PUSH1 0xA0 SHL SUB NOT DUP4 AND DUP2 OR SWAP1 SWAP4 SSTORE PUSH1 0x40 MLOAD SWAP2 AND SWAP2 SWAP1 DUP3 SWAP1 PUSH32 0x8BE0079C531659141344CD1FD0A4F28419497F9722A3DAAFE3B4186F6B6457E0 SWAP1 PUSH1 0x0 SWAP1 LOG3 POP POP JUMP JUMPDEST DUP3 DUP1 SLOAD PUSH3 0x109 SWAP1 PUSH3 0x1A1 JUMP JUMPDEST SWAP1 PUSH1 0x0 MSTORE PUSH1 0x20 PUSH1 0x0 KECCAK256 SWAP1 PUSH1 0x1F ADD PUSH1 0x20 SWAP1 DIV DUP2 ADD SWAP3 DUP3 PUSH3 0x12D JUMPI PUSH1 0x0 DUP6 SSTORE PUSH3 0x178 JUMP JUMPDEST DUP3 PUSH1 0x1F LT PUSH3 0x148 JUMPI DUP1 MLOAD PUSH1 0xFF NOT AND DUP4 DUP1 ADD OR DUP6 SSTORE PUSH3 0x178 JUMP JUMPDEST DUP3 DUP1 ADD PUSH1 0x1 ADD DUP6 SSTORE DUP3 ISZERO PUSH3 0x178 JUMPI SWAP2 DUP3 ADD JUMPDEST DUP3 DUP2 GT ISZERO PUSH3 0x178 JUMPI DUP3 MLOAD DUP3 SSTORE SWAP2 PUSH1 0x20 ADD SWAP2 SWAP1 PUSH1 0x1 ADD SWAP1 PUSH3 0x15B JUMP JUMPDEST POP PUSH3 0x186 SWAP3 SWAP2 POP PUSH3 0x18A JUMP JUMPDEST POP SWAP1 JUMP JUMPDEST JUMPDEST DUP1 DUP3 GT ISZERO PUSH3 0x186 JUMPI PUSH1 0x0 DUP2 SSTORE PUSH1 0x1 ADD PUSH3 0x18B JUMP JUMPDEST PUSH1 0x1 DUP2 DUP2 SHR SWAP1 DUP3 AND DUP1 PUSH3 0x1B6 JUMPI PUSH1 0x7F DUP3 AND SWAP2 POP JUMPDEST PUSH1 0x20 DUP3 LT DUP2 SUB PUSH3 0x1D7 JUMPI PUSH4 0x4E487B71 PUSH1 0xE0 SHL PUSH1 0x0 MSTORE PUSH1 0x22 PUSH1 0x4 MSTORE PUSH1 0x24 PUSH1 0x0 REVERT JUMPDEST POP SWAP2 SWAP1 POP JUMP JUMPDEST PUSH2 0x1B23 DUP1 PUSH3 0x1ED PUSH1 0x0 CODECOPY PUSH1 0x0 RETURN INVALID PUSH1 0x80 PUSH1 0x40 MSTORE PUSH1 0x4 CALLDATASIZE LT PUSH2 0x135 JUMPI PUSH1 0x0 CALLDATALOAD PUSH1 0xE0 SHR DUP1 PUSH4 0x6352211E GT PUSH2 0xAB JUMPI DUP1 PUSH4 0x95D89B41 GT PUSH2 0x6F JUMPI DUP1 PUSH4 0x95D89B41 EQ PUSH2 0x33B JUMPI DUP1 PUSH4 0xA22CB465 EQ PUSH2 0x350 JUMPI DUP1 PUSH4 0xB88D4FDE EQ PUSH2 0x370 JUMPI DUP1 PUSH4 0xC87B56DD EQ PUSH2 0x390 JUMPI DUP1 PUSH4 0xE985E9C5 EQ PUSH2 0x3B0 JUMPI DUP1 PUSH4 0xF2FDE38B EQ PUSH2 0x3F9 JUMPI PUSH1 0x0 DUP1 REVERT JUMPDEST DUP1 PUSH4 0x6352211E EQ PUSH2 0x2B2 JUMPI DUP1 PUSH4 0x6737C9C1 EQ PUSH2 0x2D2 JUMPI DUP1 PUSH4 0x70A08231 EQ PUSH2 0x2E8 JUMPI DUP1 PUSH4 0x715018A6 EQ PUSH2 0x308 JUMPI DUP1 PUSH4 0x8DA5CB5B EQ PUSH2 0x31D JUMPI PUSH1 0x0 DUP1 REVERT JUMPDEST DUP1 PUSH4 0x23B872DD GT PUSH2 0xFD JUMPI DUP1 PUSH4 0x23B872DD EQ PUSH2 0x20A JUMPI DUP1 PUSH4 0x2F745C59 EQ PUSH2 0x22A JUMPI DUP1 PUSH4 0x3CCFD60B EQ PUSH2 0x24A JUMPI DUP1 PUSH4 0x40D097C3 EQ PUSH2 0x25F JUMPI DUP1 PUSH4 0x42842E0E EQ PUSH2 0x272 JUMPI DUP1 PUSH4 0x4F6CCCE7 EQ PUSH2 0x292 JUMPI PUSH1 0x0 DUP1 REVERT JUMPDEST DUP1 PUSH4 0x1FFC9A7 EQ PUSH2 0x13A JUMPI DUP1 PUSH4 0x6FDDE03 EQ PUSH2 0x16F JUMPI DUP1 PUSH4 0x81812FC EQ PUSH2 0x191 JUMPI DUP1 PUSH4 0x95EA7B3 EQ PUSH2 0x1C9 JUMPI DUP1 PUSH4 0x18160DDD EQ PUSH2 0x1EB JUMPI JUMPDEST PUSH1 0x0 DUP1 REVERT JUMPDEST CALLVALUE DUP1 ISZERO PUSH2 0x146 JUMPI PUSH1 0x0 DUP1 REVERT JUMPDEST POP PUSH2 0x15A PUSH2 0x155 CALLDATASIZE PUSH1 0x4 PUSH2 0x1623 JUMP JUMPDEST PUSH2 0x419 JUMP JUMPDEST PUSH1 0x40 MLOAD SWAP1 ISZERO ISZERO DUP2 MSTORE PUSH1 0x20 ADD JUMPDEST PUSH1 0x40 MLOAD DUP1 SWAP2 SUB SWAP1 RETURN JUMPDEST CALLVALUE DUP1 ISZERO PUSH2 0x17B JUMPI PUSH1 0x0 DUP1 REVERT JUMPDEST POP PUSH2 0x184 PUSH2 0x42A JUMP JUMPDEST PUSH1 0x40 MLOAD PUSH2 0x166 SWAP2 SWAP1 PUSH2 0x1698 JUMP JUMPDEST CALLVALUE DUP1 ISZERO PUSH2 0x19D JUMPI PUSH1 0x0 DUP1 REVERT JUMPDEST POP PUSH2 0x1B1 PUSH2 0x1AC CALLDATASIZE PUSH1 0x4 PUSH2 0x16AB JUMP JUMPDEST PUSH2 0x4BC JUMP JUMPDEST PUSH1 0x40 MLOAD PUSH1 0x1 PUSH1 0x1 PUSH1 0xA0 SHL SUB SWAP1 SWAP2 AND DUP2 MSTORE PUSH1 0x20 ADD PUSH2 0x166 JUMP JUMPDEST CALLVALUE DUP1 ISZERO PUSH2 0x1D5 JUMPI PUSH1 0x0 DUP1 REVERT JUMPDEST POP PUSH2 0x1E9 PUSH2 0x1E4 CALLDATASIZE PUSH1 0x4 PUSH2 0x16E0 JUMP JUMPDEST PUSH2 0x4E3 JUMP JUMPDEST STOP JUMPDEST CALLVALUE DUP1 ISZERO PUSH2 0x1F7 JUMPI PUSH1 0x0 DUP1 REVERT JUMPDEST POP PUSH1 0x8 SLOAD JUMPDEST PUSH1 0x40 MLOAD SWAP1 DUP2 MSTORE PUSH1 0x20 ADD PUSH2 0x166 JUMP JUMPDEST CALLVALUE DUP1 ISZERO PUSH2 0x216 JUMPI PUSH1 0x0 DUP1 REVERT JUMPDEST POP PUSH2 0x1E9 PUSH2 0x225 CALLDATASIZE PUSH1 0x4 PUSH2 0x170A JUMP JUMPDEST PUSH2 0x5FD JUMP JUMPDEST CALLVALUE DUP1 ISZERO PUSH2 0x236 JUMPI PUSH1 0x0 DUP1 REVERT JUMPDEST POP PUSH2 0x1FC PUSH2 0x245 CALLDATASIZE PUSH1 0x4 PUSH2 0x16E0 JUMP JUMPDEST PUSH2 0x62E JUMP JUMPDEST CALLVALUE DUP1 ISZERO PUSH2 0x256 JUMPI PUSH1 0x0 DUP1 REVERT JUMPDEST POP PUSH2 0x1E9 PUSH2 0x6C4 JUMP JUMPDEST PUSH2 0x1E9 PUSH2 0x26D CALLDATASIZE PUSH1 0x4 PUSH2 0x1746 JUMP JUMPDEST PUSH2 0x747 JUMP JUMPDEST CALLVALUE DUP1 ISZERO PUSH2 0x27E JUMPI PUSH1 0x0 DUP1 REVERT JUMPDEST POP PUSH2 0x1E9 PUSH2 0x28D CALLDATASIZE PUSH1 0x4 PUSH2 0x170A JUMP JUMPDEST PUSH2 0x7FB JUMP JUMPDEST CALLVALUE DUP1 ISZERO PUSH2 0x29E JUMPI PUSH1 0x0 DUP1 REVERT JUMPDEST POP PUSH2 0x1FC PUSH2 0x2AD CALLDATASIZE PUSH1 0x4 PUSH2 0x16AB JUMP JUMPDEST PUSH2 0x816 JUMP JUMPDEST CALLVALUE DUP1 ISZERO PUSH2 0x2BE JUMPI PUSH1 0x0 DUP1 REVERT JUMPDEST POP PUSH2 0x1B1 PUSH2 0x2CD CALLDATASIZE PUSH1 0x4 PUSH2 0x16AB JUMP JUMPDEST PUSH2 0x8A9 JUMP JUMPDEST CALLVALUE DUP1 ISZERO PUSH2 0x2DE JUMPI PUSH1 0x0 DUP1 REVERT JUMPDEST POP PUSH2 0x1FC PUSH1 0xC SLOAD DUP2 JUMP JUMPDEST CALLVALUE DUP1 ISZERO PUSH2 0x2F4 JUMPI PUSH1 0x0 DUP1 REVERT JUMPDEST POP PUSH2 0x1FC PUSH2 0x303 CALLDATASIZE PUSH1 0x4 PUSH2 0x1746 JUMP JUMPDEST PUSH2 0x909 JUMP JUMPDEST CALLVALUE DUP1 ISZERO PUSH2 0x314 JUMPI PUSH1 0x0 DUP1 REVERT JUMPDEST POP PUSH2 0x1E9 PUSH2 0x98F JUMP JUMPDEST CALLVALUE DUP1 ISZERO PUSH2 0x329 JUMPI PUSH1 0x0 DUP1 REVERT JUMPDEST POP PUSH1 0xA SLOAD PUSH1 0x1 PUSH1 0x1 PUSH1 0xA0 SHL SUB AND PUSH2 0x1B1 JUMP JUMPDEST CALLVALUE DUP1 ISZERO PUSH2 0x347 JUMPI PUSH1 0x0 DUP1 REVERT JUMPDEST POP PUSH2 0x184 PUSH2 0x9A3 JUMP JUMPDEST CALLVALUE DUP1 ISZERO PUSH2 0x35C JUMPI PUSH1 0x0 DUP1 REVERT JUMPDEST POP PUSH2 0x1E9 PUSH2 0x36B CALLDATASIZE PUSH1 0x4 PUSH2 0x1761 JUMP JUMPDEST PUSH2 0x9B2 JUMP JUMPDEST CALLVALUE DUP1 ISZERO PUSH2 0x37C JUMPI PUSH1 0x0 DUP1 REVERT JUMPDEST POP PUSH2 0x1E9 PUSH2 0x38B CALLDATASIZE PUSH1 0x4 PUSH2 0x17B3 JUMP JUMPDEST PUSH2 0x9C1 JUMP JUMPDEST CALLVALUE DUP1 ISZERO PUSH2 0x39C JUMPI PUSH1 0x0 DUP1 REVERT JUMPDEST POP PUSH2 0x184 PUSH2 0x3AB CALLDATASIZE PUSH1 0x4 PUSH2 0x16AB JUMP JUMPDEST PUSH2 0x9F9 JUMP JUMPDEST CALLVALUE DUP1 ISZERO PUSH2 0x3BC JUMPI PUSH1 0x0 DUP1 REVERT JUMPDEST POP PUSH2 0x15A PUSH2 0x3CB CALLDATASIZE PUSH1 0x4 PUSH2 0x188F JUMP JUMPDEST PUSH1 0x1 PUSH1 0x1 PUSH1 0xA0 SHL SUB SWAP2 DUP3 AND PUSH1 0x0 SWAP1 DUP2 MSTORE PUSH1 0x5 PUSH1 0x20 SWAP1 DUP2 MSTORE PUSH1 0x40 DUP1 DUP4 KECCAK256 SWAP4 SWAP1 SWAP5 AND DUP3 MSTORE SWAP2 SWAP1 SWAP2 MSTORE KECCAK256 SLOAD PUSH1 0xFF AND SWAP1 JUMP JUMPDEST CALLVALUE DUP1 ISZERO PUSH2 0x405 JUMPI PUSH1 0x0 DUP1 REVERT JUMPDEST POP PUSH2 0x1E9 PUSH2 0x414 CALLDATASIZE PUSH1 0x4 PUSH2 0x1746 JUMP JUMPDEST PUSH2 0xA92 JUMP JUMPDEST PUSH1 0x0 PUSH2 0x424 DUP3 PUSH2 0xB08 JUMP JUMPDEST SWAP3 SWAP2 POP POP JUMP JUMPDEST PUSH1 0x60 PUSH1 0x0 DUP1 SLOAD PUSH2 0x439 SWAP1 PUSH2 0x18C2 JUMP JUMPDEST DUP1 PUSH1 0x1F ADD PUSH1 0x20 DUP1 SWAP2 DIV MUL PUSH1 0x20 ADD PUSH1 0x40 MLOAD SWAP1 DUP2 ADD PUSH1 0x40 MSTORE DUP1 SWAP3 SWAP2 SWAP1 DUP2 DUP2 MSTORE PUSH1 0x20 ADD DUP3 DUP1 SLOAD PUSH2 0x465 SWAP1 PUSH2 0x18C2 JUMP JUMPDEST DUP1 ISZERO PUSH2 0x4B2 JUMPI DUP1 PUSH1 0x1F LT PUSH2 0x487 JUMPI PUSH2 0x100 DUP1 DUP4 SLOAD DIV MUL DUP4 MSTORE SWAP2 PUSH1 0x20 ADD SWAP2 PUSH2 0x4B2 JUMP JUMPDEST DUP3 ADD SWAP2 SWAP1 PUSH1 0x0 MSTORE PUSH1 0x20 PUSH1 0x0 KECCAK256 SWAP1 JUMPDEST DUP2 SLOAD DUP2 MSTORE SWAP1 PUSH1 0x1 ADD SWAP1 PUSH1 0x20 ADD DUP1 DUP4 GT PUSH2 0x495 JUMPI DUP3 SWAP1 SUB PUSH1 0x1F AND DUP3 ADD SWAP2 JUMPDEST POP POP POP POP POP SWAP1 POP SWAP1 JUMP JUMPDEST PUSH1 0x0 PUSH2 0x4C7 DUP3 PUSH2 0xB2D JUMP JUMPDEST POP PUSH1 0x0 SWAP1 DUP2 MSTORE PUSH1 0x4 PUSH1 0x20 MSTORE PUSH1 0x40 SWAP1 KECCAK256 SLOAD PUSH1 0x1 PUSH1 0x1 PUSH1 0xA0 SHL SUB AND SWAP1 JUMP JUMPDEST PUSH1 0x0 PUSH2 0x4EE DUP3 PUSH2 0x8A9 JUMP JUMPDEST SWAP1 POP DUP1 PUSH1 0x1 PUSH1 0x1 PUSH1 0xA0 SHL SUB AND DUP4 PUSH1 0x1 PUSH1 0x1 PUSH1 0xA0 SHL SUB AND SUB PUSH2 0x560 JUMPI PUSH1 0x40 MLOAD PUSH3 0x461BCD PUSH1 0xE5 SHL DUP2 MSTORE PUSH1 0x20 PUSH1 0x4 DUP3 ADD MSTORE PUSH1 0x21 PUSH1 0x24 DUP3 ADD MSTORE PUSH32 0x4552433732313A20617070726F76616C20746F2063757272656E74206F776E65 PUSH1 0x44 DUP3 ADD MSTORE PUSH1 0x39 PUSH1 0xF9 SHL PUSH1 0x64 DUP3 ADD MSTORE PUSH1 0x84 ADD JUMPDEST PUSH1 0x40 MLOAD DUP1 SWAP2 SUB SWAP1 REVERT JUMPDEST CALLER PUSH1 0x1 PUSH1 0x1 PUSH1 0xA0 SHL SUB DUP3 AND EQ DUP1 PUSH2 0x57C JUMPI POP PUSH2 0x57C DUP2 CALLER PUSH2 0x3CB JUMP JUMPDEST PUSH2 0x5EE JUMPI PUSH1 0x40 MLOAD PUSH3 0x461BCD PUSH1 0xE5 SHL DUP2 MSTORE PUSH1 0x20 PUSH1 0x4 DUP3 ADD MSTORE PUSH1 0x3E PUSH1 0x24 DUP3 ADD MSTORE PUSH32 0x4552433732313A20617070726F76652063616C6C6572206973206E6F7420746F PUSH1 0x44 DUP3 ADD MSTORE PUSH32 0x6B656E206F776E6572206E6F7220617070726F76656420666F7220616C6C0000 PUSH1 0x64 DUP3 ADD MSTORE PUSH1 0x84 ADD PUSH2 0x557 JUMP JUMPDEST PUSH2 0x5F8 DUP4 DUP4 PUSH2 0xB8C JUMP JUMPDEST POP POP POP JUMP JUMPDEST PUSH2 0x607 CALLER DUP3 PUSH2 0xBFA JUMP JUMPDEST PUSH2 0x623 JUMPI PUSH1 0x40 MLOAD PUSH3 0x461BCD PUSH1 0xE5 SHL DUP2 MSTORE PUSH1 0x4 ADD PUSH2 0x557 SWAP1 PUSH2 0x18FC JUMP JUMPDEST PUSH2 0x5F8 DUP4 DUP4 DUP4 PUSH2 0xC79 JUMP JUMPDEST PUSH1 0x0 PUSH2 0x639 DUP4 PUSH2 0x909 JUMP JUMPDEST DUP3 LT PUSH2 0x69B JUMPI PUSH1 0x40 MLOAD PUSH3 0x461BCD PUSH1 0xE5 SHL DUP2 MSTORE PUSH1 0x20 PUSH1 0x4 DUP3 ADD MSTORE PUSH1 0x2B PUSH1 0x24 DUP3 ADD MSTORE PUSH32 0x455243373231456E756D657261626C653A206F776E657220696E646578206F75 PUSH1 0x44 DUP3 ADD MSTORE PUSH11 0x74206F6620626F756E6473 PUSH1 0xA8 SHL PUSH1 0x64 DUP3 ADD MSTORE PUSH1 0x84 ADD PUSH2 0x557 JUMP JUMPDEST POP PUSH1 0x1 PUSH1 0x1 PUSH1 0xA0 SHL SUB SWAP2 SWAP1 SWAP2 AND PUSH1 0x0 SWAP1 DUP2 MSTORE PUSH1 0x6 PUSH1 0x20 SWAP1 DUP2 MSTORE PUSH1 0x40 DUP1 DUP4 KECCAK256 SWAP4 DUP4 MSTORE SWAP3 SWAP1 MSTORE KECCAK256 SLOAD SWAP1 JUMP JUMPDEST PUSH2 0x6CC PUSH2 0xE20 JUMP JUMPDEST PUSH1 0x0 SELFBALANCE GT PUSH2 0x70B JUMPI PUSH1 0x40 MLOAD PUSH3 0x461BCD PUSH1 0xE5 SHL DUP2 MSTORE PUSH1 0x20 PUSH1 0x4 DUP3 ADD MSTORE PUSH1 0xC PUSH1 0x24 DUP3 ADD MSTORE PUSH12 0x42616C616E6365206973203 PUSH1 0xA4 SHL PUSH1 0x44 DUP3 ADD MSTORE PUSH1 0x64 ADD PUSH2 0x557 JUMP JUMPDEST PUSH1 0xA SLOAD PUSH1 0x40 MLOAD PUSH1 0x1 PUSH1 0x1 PUSH1 0xA0 SHL SUB SWAP1 SWAP2 AND SWAP1 SELFBALANCE DUP1 ISZERO PUSH2 0x8FC MUL SWAP2 PUSH1 0x0 DUP2 DUP2 DUP2 DUP6 DUP9 DUP9 CALL SWAP4 POP POP POP POP ISZERO DUP1 ISZERO PUSH2 0x744 JUMPI RETURNDATASIZE PUSH1 0x0 DUP1 RETURNDATACOPY RETURNDATASIZE PUSH1 0x0 REVERT JUMPDEST POP JUMP JUMPDEST PUSH1 0xC SLOAD PUSH1 0x8 SLOAD LT PUSH2 0x791 JUMPI PUSH1 0x40 MLOAD PUSH3 0x461BCD PUSH1 0xE5 SHL DUP2 MSTORE PUSH1 0x20 PUSH1 0x4 DUP3 ADD MSTORE PUSH1 0x14 PUSH1 0x24 DUP3 ADD MSTORE PUSH20 0x43616E2774204D696E74204D6F7265204E465473 PUSH1 0x60 SHL PUSH1 0x44 DUP3 ADD MSTORE PUSH1 0x64 ADD PUSH2 0x557 JUMP JUMPDEST PUSH1 0xB SLOAD CALLVALUE LT ISZERO PUSH2 0x7DB JUMPI PUSH1 0x40 MLOAD PUSH3 0x461BCD PUSH1 0xE5 SHL DUP2 MSTORE PUSH1 0x20 PUSH1 0x4 DUP3 ADD MSTORE PUSH1 0x15 PUSH1 0x24 DUP3 ADD MSTORE PUSH21 0x139BDD08195B9BDD59DA08115D1A195C881CD95B9D PUSH1 0x5A SHL PUSH1 0x44 DUP3 ADD MSTORE PUSH1 0x64 ADD PUSH2 0x557 JUMP JUMPDEST PUSH2 0x7E9 PUSH1 0xD DUP1 SLOAD PUSH1 0x1 ADD SWAP1 SSTORE JUMP JUMPDEST PUSH2 0x744 DUP2 PUSH2 0x7F6 PUSH1 0xD SLOAD SWAP1 JUMP JUMPDEST PUSH2 0xE7A JUMP JUMPDEST PUSH2 0x5F8 DUP4 DUP4 DUP4 PUSH1 0x40 MLOAD DUP1 PUSH1 0x20 ADD PUSH1 0x40 MSTORE DUP1 PUSH1 0x0 DUP2 MSTORE POP PUSH2 0x9C1 JUMP JUMPDEST PUSH1 0x0 PUSH2 0x821 PUSH1 0x8 SLOAD SWAP1 JUMP JUMPDEST DUP3 LT PUSH2 0x884 JUMPI PUSH1 0x40 MLOAD PUSH3 0x461BCD PUSH1 0xE5 SHL DUP2 MSTORE PUSH1 0x20 PUSH1 0x4 DUP3 ADD MSTORE PUSH1 0x2C PUSH1 0x24 DUP3 ADD MSTORE PUSH32 0x455243373231456E756D657261626C653A20676C6F62616C20696E646578206F PUSH1 0x44 DUP3 ADD MSTORE PUSH12 0x7574206F6620626F756E6473 PUSH1 0xA0 SHL PUSH1 0x64 DUP3 ADD MSTORE PUSH1 0x84 ADD PUSH2 0x557 JUMP JUMPDEST PUSH1 0x8 DUP3 DUP2 SLOAD DUP2 LT PUSH2 0x897 JUMPI PUSH2 0x897 PUSH2 0x194A JUMP JUMPDEST SWAP1 PUSH1 0x0 MSTORE PUSH1 0x20 PUSH1 0x0 KECCAK256 ADD SLOAD SWAP1 POP SWAP2 SWAP1 POP JUMP JUMPDEST PUSH1 0x0 DUP2 DUP2 MSTORE PUSH1 0x2 PUSH1 0x20 MSTORE PUSH1 0x40 DUP2 KECCAK256 SLOAD PUSH1 0x1 PUSH1 0x1 PUSH1 0xA0 SHL SUB AND DUP1 PUSH2 0x424 JUMPI PUSH1 0x40 MLOAD PUSH3 0x461BCD PUSH1 0xE5 SHL DUP2 MSTORE PUSH1 0x20 PUSH1 0x4 DUP3 ADD MSTORE PUSH1 0x18 PUSH1 0x24 DUP3 ADD MSTORE PUSH24 0x115490CDCC8C4E881A5B9D985B1A59081D1BDAD95B881251 PUSH1 0x42 SHL PUSH1 0x44 DUP3 ADD MSTORE PUSH1 0x64 ADD PUSH2 0x557 JUMP JUMPDEST PUSH1 0x0 PUSH1 0x1 PUSH1 0x1 PUSH1 0xA0 SHL SUB DUP3 AND PUSH2 0x973 JUMPI PUSH1 0x40 MLOAD PUSH3 0x461BCD PUSH1 0xE5 SHL DUP2 MSTORE PUSH1 0x20 PUSH1 0x4 DUP3 ADD MSTORE PUSH1 0x29 PUSH1 0x24 DUP3 ADD MSTORE PUSH32 0x4552433732313A2061646472657373207A65726F206973206E6F742061207661 PUSH1 0x44 DUP3 ADD MSTORE PUSH9 0x3634B21037BBB732B9 PUSH1 0xB9 SHL PUSH1 0x64 DUP3 ADD MSTORE PUSH1 0x84 ADD PUSH2 0x557 JUMP JUMPDEST POP PUSH1 0x1 PUSH1 0x1 PUSH1 0xA0 SHL SUB AND PUSH1 0x0 SWAP1 DUP2 MSTORE PUSH1 0x3 PUSH1 0x20 MSTORE PUSH1 0x40 SWAP1 KECCAK256 SLOAD SWAP1 JUMP JUMPDEST PUSH2 0x997 PUSH2 0xE20 JUMP JUMPDEST PUSH2 0x9A1 PUSH1 0x0 PUSH2 0xE94 JUMP JUMPDEST JUMP JUMPDEST PUSH1 0x60 PUSH1 0x1 DUP1 SLOAD PUSH2 0x439 SWAP1 PUSH2 0x18C2 JUMP JUMPDEST PUSH2 0x9BD CALLER DUP4 DUP4 PUSH2 0xEE6 JUMP JUMPDEST POP POP JUMP JUMPDEST PUSH2 0x9CB CALLER DUP4 PUSH2 0xBFA JUMP JUMPDEST PUSH2 0x9E7 JUMPI PUSH1 0x40 MLOAD PUSH3 0x461BCD PUSH1 0xE5 SHL DUP2 MSTORE PUSH1 0x4 ADD PUSH2 0x557 SWAP1 PUSH2 0x18FC JUMP JUMPDEST PUSH2 0x9F3 DUP5 DUP5 DUP5 DUP5 PUSH2 0xFB4 JUMP JUMPDEST POP POP POP POP JUMP JUMPDEST PUSH1 0x60 PUSH2 0xA04 DUP3 PUSH2 0xB2D JUMP JUMPDEST PUSH1 0x0 PUSH2 0xA40 PUSH1 0x40 DUP1 MLOAD DUP1 DUP3 ADD SWAP1 SWAP2 MSTORE PUSH1 0x18 DUP2 MSTORE PUSH32 0x68747470733A2F2F746573742E636F6D2F746F6B656E732F0000000000000000 PUSH1 0x20 DUP3 ADD MSTORE SWAP1 JUMP JUMPDEST SWAP1 POP PUSH1 0x0 DUP2 MLOAD GT PUSH2 0xA60 JUMPI PUSH1 0x40 MLOAD DUP1 PUSH1 0x20 ADD PUSH1 0x40 MSTORE DUP1 PUSH1 0x0 DUP2 MSTORE POP PUSH2 0xA8B JUMP JUMPDEST DUP1 PUSH2 0xA6A DUP5 PUSH2 0xFE7 JUMP JUMPDEST PUSH1 0x40 MLOAD PUSH1 0x20 ADD PUSH2 0xA7B SWAP3 SWAP2 SWAP1 PUSH2 0x1960 JUMP JUMPDEST PUSH1 0x40 MLOAD PUSH1 0x20 DUP2 DUP4 SUB SUB DUP2 MSTORE SWAP1 PUSH1 0x40 MSTORE JUMPDEST SWAP4 SWAP3 POP POP POP JUMP JUMPDEST PUSH2 0xA9A PUSH2 0xE20 JUMP JUMPDEST PUSH1 0x1 PUSH1 0x1 PUSH1 0xA0 SHL SUB DUP2 AND PUSH2 0xAFF JUMPI PUSH1 0x40 MLOAD PUSH3 0x461BCD PUSH1 0xE5 SHL DUP2 MSTORE PUSH1 0x20 PUSH1 0x4 DUP3 ADD MSTORE PUSH1 0x26 PUSH1 0x24 DUP3 ADD MSTORE PUSH32 0x4F776E61626C653A206E6577206F776E657220697320746865207A65726F2061 PUSH1 0x44 DUP3 ADD MSTORE PUSH6 0x646472657373 PUSH1 0xD0 SHL PUSH1 0x64 DUP3 ADD MSTORE PUSH1 0x84 ADD PUSH2 0x557 JUMP JUMPDEST PUSH2 0x744 DUP2 PUSH2 0xE94 JUMP JUMPDEST PUSH1 0x0 PUSH1 0x1 PUSH1 0x1 PUSH1 0xE0 SHL SUB NOT DUP3 AND PUSH4 0x780E9D63 PUSH1 0xE0 SHL EQ DUP1 PUSH2 0x424 JUMPI POP PUSH2 0x424 DUP3 PUSH2 0x10E8 JUMP JUMPDEST PUSH1 0x0 DUP2 DUP2 MSTORE PUSH1 0x2 PUSH1 0x20 MSTORE PUSH1 0x40 SWAP1 KECCAK256 SLOAD PUSH1 0x1 PUSH1 0x1 PUSH1 0xA0 SHL SUB AND PUSH2 0x744 JUMPI PUSH1 0x40 MLOAD PUSH3 0x461BCD PUSH1 0xE5 SHL DUP2 MSTORE PUSH1 0x20 PUSH1 0x4 DUP3 ADD MSTORE PUSH1 0x18 PUSH1 0x24 DUP3 ADD MSTORE PUSH24 0x115490CDCC8C4E881A5B9D985B1A59081D1BDAD95B881251 PUSH1 0x42 SHL PUSH1 0x44 DUP3 ADD MSTORE PUSH1 0x64 ADD PUSH2 0x557 JUMP JUMPDEST PUSH1 0x0 DUP2 DUP2 MSTORE PUSH1 0x4 PUSH1 0x20 MSTORE PUSH1 0x40 SWAP1 KECCAK256 DUP1 SLOAD PUSH1 0x1 PUSH1 0x1 PUSH1 0xA0 SHL SUB NOT AND PUSH1 0x1 PUSH1 0x1 PUSH1 0xA0 SHL SUB DUP5 AND SWAP1 DUP2 OR SWAP1 SWAP2 SSTORE DUP2 SWAP1 PUSH2 0xBC1 DUP3 PUSH2 0x8A9 JUMP JUMPDEST PUSH1 0x1 PUSH1 0x1 PUSH1 0xA0 SHL SUB AND PUSH32 0x8C5BE1E5EBEC7D5BD14F71427D1E84F3DD0314C0F7B2291E5B200AC8C7C3B925 PUSH1 0x40 MLOAD PUSH1 0x40 MLOAD DUP1 SWAP2 SUB SWAP1 LOG4 POP POP JUMP JUMPDEST PUSH1 0x0 DUP1 PUSH2 0xC06 DUP4 PUSH2 0x8A9 JUMP JUMPDEST SWAP1 POP DUP1 PUSH1 0x1 PUSH1 0x1 PUSH1 0xA0 SHL SUB AND DUP5 PUSH1 0x1 PUSH1 0x1 PUSH1 0xA0 SHL SUB AND EQ DUP1 PUSH2 0xC4D JUMPI POP PUSH1 0x1 PUSH1 0x1 PUSH1 0xA0 SHL SUB DUP1 DUP3 AND PUSH1 0x0 SWAP1 DUP2 MSTORE PUSH1 0x5 PUSH1 0x20 SWAP1 DUP2 MSTORE PUSH1 0x40 DUP1 DUP4 KECCAK256 SWAP4 DUP9 AND DUP4 MSTORE SWAP3 SWAP1 MSTORE KECCAK256 SLOAD PUSH1 0xFF AND JUMPDEST DUP1 PUSH2 0xC71 JUMPI POP DUP4 PUSH1 0x1 PUSH1 0x1 PUSH1 0xA0 SHL SUB AND PUSH2 0xC66 DUP5 PUSH2 0x4BC JUMP JUMPDEST PUSH1 0x1 PUSH1 0x1 PUSH1 0xA0 SHL SUB AND EQ JUMPDEST SWAP5 SWAP4 POP POP POP POP JUMP JUMPDEST DUP3 PUSH1 0x1 PUSH1 0x1 PUSH1 0xA0 SHL SUB AND PUSH2 0xC8C DUP3 PUSH2 0x8A9 JUMP JUMPDEST PUSH1 0x1 PUSH1 0x1 PUSH1 0xA0 SHL SUB AND EQ PUSH2 0xCF0 JUMPI PUSH1 0x40 MLOAD PUSH3 0x461BCD PUSH1 0xE5 SHL DUP2 MSTORE PUSH1 0x20 PUSH1 0x4 DUP3 ADD MSTORE PUSH1 0x25 PUSH1 0x24 DUP3 ADD MSTORE PUSH32 0x4552433732313A207472616E736665722066726F6D20696E636F727265637420 PUSH1 0x44 DUP3 ADD MSTORE PUSH5 0x37BBB732B9 PUSH1 0xD9 SHL PUSH1 0x64 DUP3 ADD MSTORE PUSH1 0x84 ADD PUSH2 0x557 JUMP JUMPDEST PUSH1 0x1 PUSH1 0x1 PUSH1 0xA0 SHL SUB DUP3 AND PUSH2 0xD52 JUMPI PUSH1 0x40 MLOAD PUSH3 0x461BCD PUSH1 0xE5 SHL DUP2 MSTORE PUSH1 0x20 PUSH1 0x4 DUP3 ADD MSTORE PUSH1 0x24 DUP1 DUP3 ADD MSTORE PUSH32 0x4552433732313A207472616E7366657220746F20746865207A65726F20616464 PUSH1 0x44 DUP3 ADD MSTORE PUSH4 0x72657373 PUSH1 0xE0 SHL PUSH1 0x64 DUP3 ADD MSTORE PUSH1 0x84 ADD PUSH2 0x557 JUMP JUMPDEST PUSH2 0xD5D DUP4 DUP4 DUP4 PUSH2 0x1138 JUMP JUMPDEST PUSH2 0xD68 PUSH1 0x0 DUP3 PUSH2 0xB8C JUMP JUMPDEST PUSH1 0x1 PUSH1 0x1 PUSH1 0xA0 SHL SUB DUP4 AND PUSH1 0x0 SWAP1 DUP2 MSTORE PUSH1 0x3 PUSH1 0x20 MSTORE PUSH1 0x40 DUP2 KECCAK256 DUP1 SLOAD PUSH1 0x1 SWAP3 SWAP1 PUSH2 0xD91 SWAP1 DUP5 SWAP1 PUSH2 0x19A5 JUMP JUMPDEST SWAP1 SWAP2 SSTORE POP POP PUSH1 0x1 PUSH1 0x1 PUSH1 0xA0 SHL SUB DUP3 AND PUSH1 0x0 SWAP1 DUP2 MSTORE PUSH1 0x3 PUSH1 0x20 MSTORE PUSH1 0x40 DUP2 KECCAK256 DUP1 SLOAD PUSH1 0x1 SWAP3 SWAP1 PUSH2 0xDBF SWAP1 DUP5 SWAP1 PUSH2 0x19BC JUMP JUMPDEST SWAP1 SWAP2 SSTORE POP POP PUSH1 0x0 DUP2 DUP2 MSTORE PUSH1 0x2 PUSH1 0x20 MSTORE PUSH1 0x40 DUP1 DUP3 KECCAK256 DUP1 SLOAD PUSH1 0x1 PUSH1 0x1 PUSH1 0xA0 SHL SUB NOT AND PUSH1 0x1 PUSH1 0x1 PUSH1 0xA0 SHL SUB DUP7 DUP2 AND SWAP2 DUP3 OR SWAP1 SWAP3 SSTORE SWAP2 MLOAD DUP5 SWAP4 SWAP2 DUP8 AND SWAP2 PUSH32 0xDDF252AD1BE2C89B69C2B068FC378DAA952BA7F163C4A11628F55A4DF523B3EF SWAP2 LOG4 POP POP POP JUMP JUMPDEST PUSH1 0xA SLOAD PUSH1 0x1 PUSH1 0x1 PUSH1 0xA0 SHL SUB AND CALLER EQ PUSH2 0x9A1 JUMPI PUSH1 0x40 MLOAD PUSH3 0x461BCD PUSH1 0xE5 SHL DUP2 MSTORE PUSH1 0x20 PUSH1 0x4 DUP3 ADD DUP2 SWAP1 MSTORE PUSH1 0x24 DUP3 ADD MSTORE PUSH32 0x4F776E61626C653A2063616C6C6572206973206E6F7420746865206F776E6572 PUSH1 0x44 DUP3 ADD MSTORE PUSH1 0x64 ADD PUSH2 0x557 JUMP JUMPDEST PUSH2 0x9BD DUP3 DUP3 PUSH1 0x40 MLOAD DUP1 PUSH1 0x20 ADD PUSH1 0x40 MSTORE DUP1 PUSH1 0x0 DUP2 MSTORE POP PUSH2 0x1143 JUMP JUMPDEST PUSH1 0xA DUP1 SLOAD PUSH1 0x1 PUSH1 0x1 PUSH1 0xA0 SHL SUB DUP4 DUP2 AND PUSH1 0x1 PUSH1 0x1 PUSH1 0xA0 SHL SUB NOT DUP4 AND DUP2 OR SWAP1 SWAP4 SSTORE PUSH1 0x40 MLOAD SWAP2 AND SWAP2 SWAP1 DUP3 SWAP1 PUSH32 0x8BE0079C531659141344CD1FD0A4F28419497F9722A3DAAFE3B4186F6B6457E0 SWAP1 PUSH1 0x0 SWAP1 LOG3 POP POP JUMP JUMPDEST DUP2 PUSH1 0x1 PUSH1 0x1 PUSH1 0xA0 SHL SUB AND DUP4 PUSH1 0x1 PUSH1 0x1 PUSH1 0xA0 SHL SUB AND SUB PUSH2 0xF47 JUMPI PUSH1 0x40 MLOAD PUSH3 0x461BCD PUSH1 0xE5 SHL DUP2 MSTORE PUSH1 0x20 PUSH1 0x4 DUP3 ADD MSTORE PUSH1 0x19 PUSH1 0x24 DUP3 ADD MSTORE PUSH32 0x4552433732313A20617070726F766520746F2063616C6C657200000000000000 PUSH1 0x44 DUP3 ADD MSTORE PUSH1 0x64 ADD PUSH2 0x557 JUMP JUMPDEST PUSH1 0x1 PUSH1 0x1 PUSH1 0xA0 SHL SUB DUP4 DUP2 AND PUSH1 0x0 DUP2 DUP2 MSTORE PUSH1 0x5 PUSH1 0x20 SWAP1 DUP2 MSTORE PUSH1 0x40 DUP1 DUP4 KECCAK256 SWAP5 DUP8 AND DUP1 DUP5 MSTORE SWAP5 DUP3 MSTORE SWAP2 DUP3 SWAP1 KECCAK256 DUP1 SLOAD PUSH1 0xFF NOT AND DUP7 ISZERO ISZERO SWAP1 DUP2 OR SWAP1 SWAP2 SSTORE SWAP2 MLOAD SWAP2 DUP3 MSTORE PUSH32 0x17307EAB39AB6107E8899845AD3D59BD9653F200F220920489CA2B5937696C31 SWAP2 ADD PUSH1 0x40 MLOAD DUP1 SWAP2 SUB SWAP1 LOG3 POP POP POP JUMP JUMPDEST PUSH2 0xFBF DUP5 DUP5 DUP5 PUSH2 0xC79 JUMP JUMPDEST PUSH2 0xFCB DUP5 DUP5 DUP5 DUP5 PUSH2 0x1176 JUMP JUMPDEST PUSH2 0x9F3 JUMPI PUSH1 0x40 MLOAD PUSH3 0x461BCD PUSH1 0xE5 SHL DUP2 MSTORE PUSH1 0x4 ADD PUSH2 0x557 SWAP1 PUSH2 0x19D4 JUMP JUMPDEST PUSH1 0x60 DUP2 PUSH1 0x0 SUB PUSH2 0x100E JUMPI POP POP PUSH1 0x40 DUP1 MLOAD DUP1 DUP3 ADD SWAP1 SWAP2 MSTORE PUSH1 0x1 DUP2 MSTORE PUSH1 0x3 PUSH1 0xFC SHL PUSH1 0x20 DUP3 ADD MSTORE SWAP1 JUMP JUMPDEST DUP2 PUSH1 0x0 JUMPDEST DUP2 ISZERO PUSH2 0x1038 JUMPI DUP1 PUSH2 0x1022 DUP2 PUSH2 0x1A26 JUMP JUMPDEST SWAP2 POP PUSH2 0x1031 SWAP1 POP PUSH1 0xA DUP4 PUSH2 0x1A55 JUMP JUMPDEST SWAP2 POP PUSH2 0x1012 JUMP JUMPDEST PUSH1 0x0 DUP2 PUSH8 0xFFFFFFFFFFFFFFFF DUP2 GT ISZERO PUSH2 0x1053 JUMPI PUSH2 0x1053 PUSH2 0x179D JUMP JUMPDEST PUSH1 0x40 MLOAD SWAP1 DUP1 DUP3 MSTORE DUP1 PUSH1 0x1F ADD PUSH1 0x1F NOT AND PUSH1 0x20 ADD DUP3 ADD PUSH1 0x40 MSTORE DUP1 ISZERO PUSH2 0x107D JUMPI PUSH1 0x20 DUP3 ADD DUP2 DUP1 CALLDATASIZE DUP4 CALLDATACOPY ADD SWAP1 POP JUMPDEST POP SWAP1 POP JUMPDEST DUP5 ISZERO PUSH2 0xC71 JUMPI PUSH2 0x1092 PUSH1 0x1 DUP4 PUSH2 0x19A5 JUMP JUMPDEST SWAP2 POP PUSH2 0x109F PUSH1 0xA DUP7 PUSH2 0x1A69 JUMP JUMPDEST PUSH2 0x10AA SWAP1 PUSH1 0x30 PUSH2 0x19BC JUMP JUMPDEST PUSH1 0xF8 SHL DUP2 DUP4 DUP2 MLOAD DUP2 LT PUSH2 0x10BF JUMPI PUSH2 0x10BF PUSH2 0x194A JUMP JUMPDEST PUSH1 0x20 ADD ADD SWAP1 PUSH1 0x1 PUSH1 0x1 PUSH1 0xF8 SHL SUB NOT AND SWAP1 DUP2 PUSH1 0x0 BYTE SWAP1 MSTORE8 POP PUSH2 0x10E1 PUSH1 0xA DUP7 PUSH2 0x1A55 JUMP JUMPDEST SWAP5 POP PUSH2 0x1081 JUMP JUMPDEST PUSH1 0x0 PUSH1 0x1 PUSH1 0x1 PUSH1 0xE0 SHL SUB NOT DUP3 AND PUSH4 0x80AC58CD PUSH1 0xE0 SHL EQ DUP1 PUSH2 0x1119 JUMPI POP PUSH1 0x1 PUSH1 0x1 PUSH1 0xE0 SHL SUB NOT DUP3 AND PUSH4 0x5B5E139F PUSH1 0xE0 SHL EQ JUMPDEST DUP1 PUSH2 0x424 JUMPI POP PUSH4 0x1FFC9A7 PUSH1 0xE0 SHL PUSH1 0x1 PUSH1 0x1 PUSH1 0xE0 SHL SUB NOT DUP4 AND EQ PUSH2 0x424 JUMP JUMPDEST PUSH2 0x5F8 DUP4 DUP4 DUP4 PUSH2 0x1277 JUMP JUMPDEST PUSH2 0x114D DUP4 DUP4 PUSH2 0x132F JUMP JUMPDEST PUSH2 0x115A PUSH1 0x0 DUP5 DUP5 DUP5 PUSH2 0x1176 JUMP JUMPDEST PUSH2 0x5F8 JUMPI PUSH1 0x40 MLOAD PUSH3 0x461BCD PUSH1 0xE5 SHL DUP2 MSTORE PUSH1 0x4 ADD PUSH2 0x557 SWAP1 PUSH2 0x19D4 JUMP JUMPDEST PUSH1 0x0 PUSH1 0x1 PUSH1 0x1 PUSH1 0xA0 SHL SUB DUP5 AND EXTCODESIZE ISZERO PUSH2 0x126C JUMPI PUSH1 0x40 MLOAD PUSH4 0xA85BD01 PUSH1 0xE1 SHL DUP2 MSTORE PUSH1 0x1 PUSH1 0x1 PUSH1 0xA0 SHL SUB DUP6 AND SWAP1 PUSH4 0x150B7A02 SWAP1 PUSH2 0x11BA SWAP1 CALLER SWAP1 DUP10 SWAP1 DUP9 SWAP1 DUP9 SWAP1 PUSH1 0x4 ADD PUSH2 0x1A7D JUMP JUMPDEST PUSH1 0x20 PUSH1 0x40 MLOAD DUP1 DUP4 SUB DUP2 PUSH1 0x0 DUP8 GAS CALL SWAP3 POP POP POP DUP1 ISZERO PUSH2 0x11F5 JUMPI POP PUSH1 0x40 DUP1 MLOAD PUSH1 0x1F RETURNDATASIZE SWAP1 DUP2 ADD PUSH1 0x1F NOT AND DUP3 ADD SWAP1 SWAP3 MSTORE PUSH2 0x11F2 SWAP2 DUP2 ADD SWAP1 PUSH2 0x1ABA JUMP JUMPDEST PUSH1 0x1 JUMPDEST PUSH2 0x1252 JUMPI RETURNDATASIZE DUP1 DUP1 ISZERO PUSH2 0x1223 JUMPI PUSH1 0x40 MLOAD SWAP2 POP PUSH1 0x1F NOT PUSH1 0x3F RETURNDATASIZE ADD AND DUP3 ADD PUSH1 0x40 MSTORE RETURNDATASIZE DUP3 MSTORE RETURNDATASIZE PUSH1 0x0 PUSH1 0x20 DUP5 ADD RETURNDATACOPY PUSH2 0x1228 JUMP JUMPDEST PUSH1 0x60 SWAP2 POP JUMPDEST POP DUP1 MLOAD PUSH1 0x0 SUB PUSH2 0x124A JUMPI PUSH1 0x40 MLOAD PUSH3 0x461BCD PUSH1 0xE5 SHL DUP2 MSTORE PUSH1 0x4 ADD PUSH2 0x557 SWAP1 PUSH2 0x19D4 JUMP JUMPDEST DUP1 MLOAD DUP2 PUSH1 0x20 ADD REVERT JUMPDEST PUSH1 0x1 PUSH1 0x1 PUSH1 0xE0 SHL SUB NOT AND PUSH4 0xA85BD01 PUSH1 0xE1 SHL EQ SWAP1 POP PUSH2 0xC71 JUMP JUMPDEST POP PUSH1 0x1 SWAP5 SWAP4 POP POP POP POP JUMP JUMPDEST PUSH1 0x1 PUSH1 0x1 PUSH1 0xA0 SHL SUB DUP4 AND PUSH2 0x12D2 JUMPI PUSH2 0x12CD DUP2 PUSH1 0x8 DUP1 SLOAD PUSH1 0x0 DUP4 DUP2 MSTORE PUSH1 0x9 PUSH1 0x20 MSTORE PUSH1 0x40 DUP2 KECCAK256 DUP3 SWAP1 SSTORE PUSH1 0x1 DUP3 ADD DUP4 SSTORE SWAP2 SWAP1 SWAP2 MSTORE PUSH32 0xF3F7A9FE364FAAB93B216DA50A3214154F22A0A2B415B23A84C8169E8B636EE3 ADD SSTORE JUMP JUMPDEST PUSH2 0x12F5 JUMP JUMPDEST DUP2 PUSH1 0x1 PUSH1 0x1 PUSH1 0xA0 SHL SUB AND DUP4 PUSH1 0x1 PUSH1 0x1 PUSH1 0xA0 SHL SUB AND EQ PUSH2 0x12F5 JUMPI PUSH2 0x12F5 DUP4 DUP3 PUSH2 0x147D JUMP JUMPDEST PUSH1 0x1 PUSH1 0x1 PUSH1 0xA0 SHL SUB DUP3 AND PUSH2 0x130C JUMPI PUSH2 0x5F8 DUP2 PUSH2 0x151A JUMP JUMPDEST DUP3 PUSH1 0x1 PUSH1 0x1 PUSH1 0xA0 SHL SUB AND DUP3 PUSH1 0x1 PUSH1 0x1 PUSH1 0xA0 SHL SUB AND EQ PUSH2 0x5F8 JUMPI PUSH2 0x5F8 DUP3 DUP3 PUSH2 0x15C9 JUMP JUMPDEST PUSH1 0x1 PUSH1 0x1 PUSH1 0xA0 SHL SUB DUP3 AND PUSH2 0x1385 JUMPI PUSH1 0x40 MLOAD PUSH3 0x461BCD PUSH1 0xE5 SHL DUP2 MSTORE PUSH1 0x20 PUSH1 0x4 DUP3 ADD DUP2 SWAP1 MSTORE PUSH1 0x24 DUP3 ADD MSTORE PUSH32 0x4552433732313A206D696E7420746F20746865207A65726F2061646472657373 PUSH1 0x44 DUP3 ADD MSTORE PUSH1 0x64 ADD PUSH2 0x557 JUMP JUMPDEST PUSH1 0x0 DUP2 DUP2 MSTORE PUSH1 0x2 PUSH1 0x20 MSTORE PUSH1 0x40 SWAP1 KECCAK256 SLOAD PUSH1 0x1 PUSH1 0x1 PUSH1 0xA0 SHL SUB AND ISZERO PUSH2 0x13EA JUMPI PUSH1 0x40 MLOAD PUSH3 0x461BCD PUSH1 0xE5 SHL DUP2 MSTORE PUSH1 0x20 PUSH1 0x4 DUP3 ADD MSTORE PUSH1 0x1C PUSH1 0x24 DUP3 ADD MSTORE PUSH32 0x4552433732313A20746F6B656E20616C7265616479206D696E74656400000000 PUSH1 0x44 DUP3 ADD MSTORE PUSH1 0x64 ADD PUSH2 0x557 JUMP JUMPDEST PUSH2 0x13F6 PUSH1 0x0 DUP4 DUP4 PUSH2 0x1138 JUMP JUMPDEST PUSH1 0x1 PUSH1 0x1 PUSH1 0xA0 SHL SUB DUP3 AND PUSH1 0x0 SWAP1 DUP2 MSTORE PUSH1 0x3 PUSH1 0x20 MSTORE PUSH1 0x40 DUP2 KECCAK256 DUP1 SLOAD PUSH1 0x1 SWAP3 SWAP1 PUSH2 0x141F SWAP1 DUP5 SWAP1 PUSH2 0x19BC JUMP JUMPDEST SWAP1 SWAP2 SSTORE POP POP PUSH1 0x0 DUP2 DUP2 MSTORE PUSH1 0x2 PUSH1 0x20 MSTORE PUSH1 0x40 DUP1 DUP3 KECCAK256 DUP1 SLOAD PUSH1 0x1 PUSH1 0x1 PUSH1 0xA0 SHL SUB NOT AND PUSH1 0x1 PUSH1 0x1 PUSH1 0xA0 SHL SUB DUP7 AND SWAP1 DUP2 OR SWAP1 SWAP2 SSTORE SWAP1 MLOAD DUP4 SWAP3 SWAP1 PUSH32 0xDDF252AD1BE2C89B69C2B068FC378DAA952BA7F163C4A11628F55A4DF523B3EF SWAP1 DUP3 SWAP1 LOG4 POP POP JUMP JUMPDEST PUSH1 0x0 PUSH1 0x1 PUSH2 0x148A DUP5 PUSH2 0x909 JUMP JUMPDEST PUSH2 0x1494 SWAP2 SWAP1 PUSH2 0x19A5 JUMP JUMPDEST PUSH1 0x0 DUP4 DUP2 MSTORE PUSH1 0x7 PUSH1 0x20 MSTORE PUSH1 0x40 SWAP1 KECCAK256 SLOAD SWAP1 SWAP2 POP DUP1 DUP3 EQ PUSH2 0x14E7 JUMPI PUSH1 0x1 PUSH1 0x1 PUSH1 0xA0 SHL SUB DUP5 AND PUSH1 0x0 SWAP1 DUP2 MSTORE PUSH1 0x6 PUSH1 0x20 SWAP1 DUP2 MSTORE PUSH1 0x40 DUP1 DUP4 KECCAK256 DUP6 DUP5 MSTORE DUP3 MSTORE DUP1 DUP4 KECCAK256 SLOAD DUP5 DUP5 MSTORE DUP2 DUP5 KECCAK256 DUP2 SWAP1 SSTORE DUP4 MSTORE PUSH1 0x7 SWAP1 SWAP2 MSTORE SWAP1 KECCAK256 DUP2 SWAP1 SSTORE JUMPDEST POP PUSH1 0x0 SWAP2 DUP3 MSTORE PUSH1 0x7 PUSH1 0x20 SWAP1 DUP2 MSTORE PUSH1 0x40 DUP1 DUP5 KECCAK256 DUP5 SWAP1 SSTORE PUSH1 0x1 PUSH1 0x1 PUSH1 0xA0 SHL SUB SWAP1 SWAP5 AND DUP4 MSTORE PUSH1 0x6 DUP2 MSTORE DUP4 DUP4 KECCAK256 SWAP2 DUP4 MSTORE MSTORE SWAP1 DUP2 KECCAK256 SSTORE JUMP JUMPDEST PUSH1 0x8 SLOAD PUSH1 0x0 SWAP1 PUSH2 0x152C SWAP1 PUSH1 0x1 SWAP1 PUSH2 0x19A5 JUMP JUMPDEST PUSH1 0x0 DUP4 DUP2 MSTORE PUSH1 0x9 PUSH1 0x20 MSTORE PUSH1 0x40 DUP2 KECCAK256 SLOAD PUSH1 0x8 DUP1 SLOAD SWAP4 SWAP5 POP SWAP1 SWAP3 DUP5 SWAP1 DUP2 LT PUSH2 0x1554 JUMPI PUSH2 0x1554 PUSH2 0x194A JUMP JUMPDEST SWAP1 PUSH1 0x0 MSTORE PUSH1 0x20 PUSH1 0x0 KECCAK256 ADD SLOAD SWAP1 POP DUP1 PUSH1 0x8 DUP4 DUP2 SLOAD DUP2 LT PUSH2 0x1575 JUMPI PUSH2 0x1575 PUSH2 0x194A JUMP JUMPDEST PUSH1 0x0 SWAP2 DUP3 MSTORE PUSH1 0x20 DUP1 DUP4 KECCAK256 SWAP1 SWAP2 ADD SWAP3 SWAP1 SWAP3 SSTORE DUP3 DUP2 MSTORE PUSH1 0x9 SWAP1 SWAP2 MSTORE PUSH1 0x40 DUP1 DUP3 KECCAK256 DUP5 SWAP1 SSTORE DUP6 DUP3 MSTORE DUP2 KECCAK256 SSTORE PUSH1 0x8 DUP1 SLOAD DUP1 PUSH2 0x15AD JUMPI PUSH2 0x15AD PUSH2 0x1AD7 JUMP JUMPDEST PUSH1 0x1 SWAP1 SUB DUP2 DUP2 SWAP1 PUSH1 0x0 MSTORE PUSH1 0x20 PUSH1 0x0 KECCAK256 ADD PUSH1 0x0 SWAP1 SSTORE SWAP1 SSTORE POP POP POP POP JUMP JUMPDEST PUSH1 0x0 PUSH2 0x15D4 DUP4 PUSH2 0x909 JUMP JUMPDEST PUSH1 0x1 PUSH1 0x1 PUSH1 0xA0 SHL SUB SWAP1 SWAP4 AND PUSH1 0x0 SWAP1 DUP2 MSTORE PUSH1 0x6 PUSH1 0x20 SWAP1 DUP2 MSTORE PUSH1 0x40 DUP1 DUP4 KECCAK256 DUP7 DUP5 MSTORE DUP3 MSTORE DUP1 DUP4 KECCAK256 DUP6 SWAP1 SSTORE SWAP4 DUP3 MSTORE PUSH1 0x7 SWAP1 MSTORE SWAP2 SWAP1 SWAP2 KECCAK256 SWAP2 SWAP1 SWAP2 SSTORE POP JUMP JUMPDEST PUSH1 0x1 PUSH1 0x1 PUSH1 0xE0 SHL SUB NOT DUP2 AND DUP2 EQ PUSH2 0x744 JUMPI PUSH1 0x0 DUP1 REVERT JUMPDEST PUSH1 0x0 PUSH1 0x20 DUP3 DUP5 SUB SLT ISZERO PUSH2 0x1635 JUMPI PUSH1 0x0 DUP1 REVERT JUMPDEST DUP2 CALLDATALOAD PUSH2 0xA8B DUP2 PUSH2 0x160D JUMP JUMPDEST PUSH1 0x0 JUMPDEST DUP4 DUP2 LT ISZERO PUSH2 0x165B JUMPI DUP2 DUP2 ADD MLOAD DUP4 DUP3 ADD MSTORE PUSH1 0x20 ADD PUSH2 0x1643 JUMP JUMPDEST DUP4 DUP2 GT ISZERO PUSH2 0x9F3 JUMPI POP POP PUSH1 0x0 SWAP2 ADD MSTORE JUMP JUMPDEST PUSH1 0x0 DUP2 MLOAD DUP1 DUP5 MSTORE PUSH2 0x1684 DUP2 PUSH1 0x20 DUP7 ADD PUSH1 0x20 DUP7 ADD PUSH2 0x1640 JUMP JUMPDEST PUSH1 0x1F ADD PUSH1 0x1F NOT AND SWAP3 SWAP1 SWAP3 ADD PUSH1 0x20 ADD SWAP3 SWAP2 POP POP JUMP JUMPDEST PUSH1 0x20 DUP2 MSTORE PUSH1 0x0 PUSH2 0xA8B PUSH1 0x20 DUP4 ADD DUP5 PUSH2 0x166C JUMP JUMPDEST PUSH1 0x0 PUSH1 0x20 DUP3 DUP5 SUB SLT ISZERO PUSH2 0x16BD JUMPI PUSH1 0x0 DUP1 REVERT JUMPDEST POP CALLDATALOAD SWAP2 SWAP1 POP JUMP JUMPDEST DUP1 CALLDATALOAD PUSH1 0x1 PUSH1 0x1 PUSH1 0xA0 SHL SUB DUP2 AND DUP2 EQ PUSH2 0x16DB JUMPI PUSH1 0x0 DUP1 REVERT JUMPDEST SWAP2 SWAP1 POP JUMP JUMPDEST PUSH1 0x0 DUP1 PUSH1 0x40 DUP4 DUP6 SUB SLT ISZERO PUSH2 0x16F3 JUMPI PUSH1 0x0 DUP1 REVERT JUMPDEST PUSH2 0x16FC DUP4 PUSH2 0x16C4 JUMP JUMPDEST SWAP5 PUSH1 0x20 SWAP4 SWAP1 SWAP4 ADD CALLDATALOAD SWAP4 POP POP POP JUMP JUMPDEST PUSH1 0x0 DUP1 PUSH1 0x0 PUSH1 0x60 DUP5 DUP7 SUB SLT ISZERO PUSH2 0x171F JUMPI PUSH1 0x0 DUP1 REVERT JUMPDEST PUSH2 0x1728 DUP5 PUSH2 0x16C4 JUMP JUMPDEST SWAP3 POP PUSH2 0x1736 PUSH1 0x20 DUP6 ADD PUSH2 0x16C4 JUMP JUMPDEST SWAP2 POP PUSH1 0x40 DUP5 ADD CALLDATALOAD SWAP1 POP SWAP3 POP SWAP3 POP SWAP3 JUMP JUMPDEST PUSH1 0x0 PUSH1 0x20 DUP3 DUP5 SUB SLT ISZERO PUSH2 0x1758 JUMPI PUSH1 0x0 DUP1 REVERT JUMPDEST PUSH2 0xA8B DUP3 PUSH2 0x16C4 JUMP JUMPDEST PUSH1 0x0 DUP1 PUSH1 0x40 DUP4 DUP6 SUB SLT ISZERO PUSH2 0x1774 JUMPI PUSH1 0x0 DUP1 REVERT JUMPDEST PUSH2 0x177D DUP4 PUSH2 0x16C4 JUMP JUMPDEST SWAP2 POP PUSH1 0x20 DUP4 ADD CALLDATALOAD DUP1 ISZERO ISZERO DUP2 EQ PUSH2 0x1792 JUMPI PUSH1 0x0 DUP1 REVERT JUMPDEST DUP1 SWAP2 POP POP SWAP3 POP SWAP3 SWAP1 POP JUMP JUMPDEST PUSH4 0x4E487B71 PUSH1 0xE0 SHL PUSH1 0x0 MSTORE PUSH1 0x41 PUSH1 0x4 MSTORE PUSH1 0x24 PUSH1 0x0 REVERT JUMPDEST PUSH1 0x0 DUP1 PUSH1 0x0 DUP1 PUSH1 0x80 DUP6 DUP8 SUB SLT ISZERO PUSH2 0x17C9 JUMPI PUSH1 0x0 DUP1 REVERT JUMPDEST PUSH2 0x17D2 DUP6 PUSH2 0x16C4 JUMP JUMPDEST SWAP4 POP PUSH2 0x17E0 PUSH1 0x20 DUP7 ADD PUSH2 0x16C4 JUMP JUMPDEST SWAP3 POP PUSH1 0x40 DUP6 ADD CALLDATALOAD SWAP2 POP PUSH1 0x60 DUP6 ADD CALLDATALOAD PUSH8 0xFFFFFFFFFFFFFFFF DUP1 DUP3 GT ISZERO PUSH2 0x1804 JUMPI PUSH1 0x0 DUP1 REVERT JUMPDEST DUP2 DUP8 ADD SWAP2 POP DUP8 PUSH1 0x1F DUP4 ADD SLT PUSH2 0x1818 JUMPI PUSH1 0x0 DUP1 REVERT JUMPDEST DUP2 CALLDATALOAD DUP2 DUP2 GT ISZERO PUSH2 0x182A JUMPI PUSH2 0x182A PUSH2 0x179D JUMP JUMPDEST PUSH1 0x40 MLOAD PUSH1 0x1F DUP3 ADD PUSH1 0x1F NOT SWAP1 DUP2 AND PUSH1 0x3F ADD AND DUP2 ADD SWAP1 DUP4 DUP3 GT DUP2 DUP4 LT OR ISZERO PUSH2 0x1852 JUMPI PUSH2 0x1852 PUSH2 0x179D JUMP JUMPDEST DUP2 PUSH1 0x40 MSTORE DUP3 DUP2 MSTORE DUP11 PUSH1 0x20 DUP5 DUP8 ADD ADD GT ISZERO PUSH2 0x186B JUMPI PUSH1 0x0 DUP1 REVERT JUMPDEST DUP3 PUSH1 0x20 DUP7 ADD PUSH1 0x20 DUP4 ADD CALLDATACOPY PUSH1 0x0 PUSH1 0x20 DUP5 DUP4 ADD ADD MSTORE DUP1 SWAP6 POP POP POP POP POP POP SWAP3 SWAP6 SWAP2 SWAP5 POP SWAP3 POP JUMP JUMPDEST PUSH1 0x0 DUP1 PUSH1 0x40 DUP4 DUP6 SUB SLT ISZERO PUSH2 0x18A2 JUMPI PUSH1 0x0 DUP1 REVERT JUMPDEST PUSH2 0x18AB DUP4 PUSH2 0x16C4 JUMP JUMPDEST SWAP2 POP PUSH2 0x18B9 PUSH1 0x20 DUP5 ADD PUSH2 0x16C4 JUMP JUMPDEST SWAP1 POP SWAP3 POP SWAP3 SWAP1 POP JUMP JUMPDEST PUSH1 0x1 DUP2 DUP2 SHR SWAP1 DUP3 AND DUP1 PUSH2 0x18D6 JUMPI PUSH1 0x7F DUP3 AND SWAP2 POP JUMPDEST PUSH1 0x20 DUP3 LT DUP2 SUB PUSH2 0x18F6 JUMPI PUSH4 0x4E487B71 PUSH1 0xE0 SHL PUSH1 0x0 MSTORE PUSH1 0x22 PUSH1 0x4 MSTORE PUSH1 0x24 PUSH1 0x0 REVERT JUMPDEST POP SWAP2 SWAP1 POP JUMP JUMPDEST PUSH1 0x20 DUP1 DUP3 MSTORE PUSH1 0x2E SWAP1 DUP3 ADD MSTORE PUSH32 0x4552433732313A2063616C6C6572206973206E6F7420746F6B656E206F776E65 PUSH1 0x40 DUP3 ADD MSTORE PUSH14 0x1C881B9BDC88185C1C1C9BDD9959 PUSH1 0x92 SHL PUSH1 0x60 DUP3 ADD MSTORE PUSH1 0x80 ADD SWAP1 JUMP JUMPDEST PUSH4 0x4E487B71 PUSH1 0xE0 SHL PUSH1 0x0 MSTORE PUSH1 0x32 PUSH1 0x4 MSTORE PUSH1 0x24 PUSH1 0x0 REVERT JUMPDEST PUSH1 0x0 DUP4 MLOAD PUSH2 0x1972 DUP2 DUP5 PUSH1 0x20 DUP9 ADD PUSH2 0x1640 JUMP JUMPDEST DUP4 MLOAD SWAP1 DUP4 ADD SWAP1 PUSH2 0x1986 DUP2 DUP4 PUSH1 0x20 DUP9 ADD PUSH2 0x1640 JUMP JUMPDEST ADD SWAP5 SWAP4 POP POP POP POP JUMP JUMPDEST PUSH4 0x4E487B71 PUSH1 0xE0 SHL PUSH1 0x0 MSTORE PUSH1 0x11 PUSH1 0x4 MSTORE PUSH1 0x24 PUSH1 0x0 REVERT JUMPDEST PUSH1 0x0 DUP3 DUP3 LT ISZERO PUSH2 0x19B7 JUMPI PUSH2 0x19B7 PUSH2 0x198F JUMP JUMPDEST POP SUB SWAP1 JUMP JUMPDEST PUSH1 0x0 DUP3 NOT DUP3 GT ISZERO PUSH2 0x19CF JUMPI PUSH2 0x19CF PUSH2 0x198F JUMP JUMPDEST POP ADD SWAP1 JUMP JUMPDEST PUSH1 0x20 DUP1 DUP3 MSTORE PUSH1 0x32 SWAP1 DUP3 ADD MSTORE PUSH32 0x4552433732313A207472616E7366657220746F206E6F6E204552433732315265 PUSH1 0x40 DUP3 ADD MSTORE PUSH18 0x31B2B4BB32B91034B6B83632B6B2B73A32B9 PUSH1 0x71 SHL PUSH1 0x60 DUP3 ADD MSTORE PUSH1 0x80 ADD SWAP1 JUMP JUMPDEST PUSH1 0x0 PUSH1 0x1 DUP3 ADD PUSH2 0x1A38 JUMPI PUSH2 0x1A38 PUSH2 0x198F JUMP JUMPDEST POP PUSH1 0x1 ADD SWAP1 JUMP JUMPDEST PUSH4 0x4E487B71 PUSH1 0xE0 SHL PUSH1 0x0 MSTORE PUSH1 0x12 PUSH1 0x4 MSTORE PUSH1 0x24 PUSH1 0x0 REVERT JUMPDEST PUSH1 0x0 DUP3 PUSH2 0x1A64 JUMPI PUSH2 0x1A64 PUSH2 0x1A3F JUMP JUMPDEST POP DIV SWAP1 JUMP JUMPDEST PUSH1 0x0 DUP3 PUSH2 0x1A78 JUMPI PUSH2 0x1A78 PUSH2 0x1A3F JUMP JUMPDEST POP MOD SWAP1 JUMP JUMPDEST PUSH1 0x1 PUSH1 0x1 PUSH1 0xA0 SHL SUB DUP6 DUP2 AND DUP3 MSTORE DUP5 AND PUSH1 0x20 DUP3 ADD MSTORE PUSH1 0x40 DUP2 ADD DUP4 SWAP1 MSTORE PUSH1 0x80 PUSH1 0x60 DUP3 ADD DUP2 SWAP1 MSTORE PUSH1 0x0 SWAP1 PUSH2 0x1AB0 SWAP1 DUP4 ADD DUP5 PUSH2 0x166C JUMP JUMPDEST SWAP7 SWAP6 POP POP POP POP POP POP JUMP JUMPDEST PUSH1 0x0 PUSH1 0x20 DUP3 DUP5 SUB SLT ISZERO PUSH2 0x1ACC JUMPI PUSH1 0x0 DUP1 REVERT JUMPDEST DUP2 MLOAD PUSH2 0xA8B DUP2 PUSH2 0x160D JUMP JUMPDEST PUSH4 0x4E487B71 PUSH1 0xE0 SHL PUSH1 0x0 MSTORE PUSH1 0x31 PUSH1 0x4 MSTORE PUSH1 0x24 PUSH1 0x0 REVERT INVALID LOG2 PUSH5 0x6970667358 0x22 SLT KECCAK256 0x4B 0xD1 PUSH8 0xA14C7530AA93FE5A 0x21 0xDA PUSH25 0x97CBADAC5F1FA7E7F1841F2448B552A9B57964736F6C634300 ADDMOD 0xD STOP CALLER "
				},
				"gasEstimates": {
					"creation": {
						"codeDepositCost": "1389400",
						"executionCost": "infinite",
						"totalCost": "infinite"
					},
					"external": {
						"Max_Supply()": "2340",
						"approve(address,uint256)": "infinite",
						"balanceOf(address)": "2656",
						"getApproved(uint256)": "4792",
						"isApprovedForAll(address,address)": "infinite",
						"name()": "infinite",
						"owner()": "2442",
						"ownerOf(uint256)": "2561",
						"renounceOwnership()": "infinite",
						"safeMint(address)": "infinite",
						"safeTransferFrom(address,address,uint256)": "infinite",
						"safeTransferFrom(address,address,uint256,bytes)": "infinite",
						"setApprovalForAll(address,bool)": "26727",
						"supportsInterface(bytes4)": "infinite",
						"symbol()": "infinite",
						"tokenByIndex(uint256)": "6848",
						"tokenOfOwnerByIndex(address,uint256)": "4975",
						"tokenURI(uint256)": "infinite",
						"totalSupply()": "2393",
						"transferFrom(address,address,uint256)": "infinite",
						"transferOwnership(address)": "28468",
						"withdraw()": "infinite"
					},
					"internal": {
						"_baseURI()": "infinite",
						"_beforeTokenTransfer(address,address,uint256)": "infinite"
					}
				},
				"methodIdentifiers": {
					"Max_Supply()": "6737c9c1",
					"approve(address,uint256)": "095ea7b3",
					"balanceOf(address)": "70a08231",
					"getApproved(uint256)": "081812fc",
					"isApprovedForAll(address,address)": "e985e9c5",
					"name()": "06fdde03",
					"owner()": "8da5cb5b",
					"ownerOf(uint256)": "6352211e",
					"renounceOwnership()": "715018a6",
					"safeMint(address)": "40d097c3",
					"safeTransferFrom(address,address,uint256)": "42842e0e",
					"safeTransferFrom(address,address,uint256,bytes)": "b88d4fde",
					"setApprovalForAll(address,bool)": "a22cb465",
					"supportsInterface(bytes4)": "01ffc9a7",
					"symbol()": "95d89b41",
					"tokenByIndex(uint256)": "4f6ccce7",
					"tokenOfOwnerByIndex(address,uint256)": "2f745c59",
					"tokenURI(uint256)": "c87b56dd",
					"totalSupply()": "18160ddd",
					"transferFrom(address,address,uint256)": "23b872dd",
					"transferOwnership(address)": "f2fde38b",
					"withdraw()": "3ccfd60b"
				}
			},
			"storageLayout": {
				"storage": [
					{
						"astId": 138,
						"contract": "MyNFT.sol:MyNFT",
						"label": "_name",
						"offset": 0,
						"slot": "0",
						"type": "t_string_storage"
					},
					{
						"astId": 140,
						"contract": "MyNFT.sol:MyNFT",
						"label": "_symbol",
						"offset": 0,
						"slot": "1",
						"type": "t_string_storage"
					},
					{
						"astId": 144,
						"contract": "MyNFT.sol:MyNFT",
						"label": "_owners",
						"offset": 0,
						"slot": "2",
						"type": "t_mapping(t_uint256,t_address)"
					},
					{
						"astId": 148,
						"contract": "MyNFT.sol:MyNFT",
						"label": "_balances",
						"offset": 0,
						"slot": "3",
						"type": "t_mapping(t_address,t_uint256)"
					},
					{
						"astId": 152,
						"contract": "MyNFT.sol:MyNFT",
						"label": "_tokenApprovals",
						"offset": 0,
						"slot": "4",
						"type": "t_mapping(t_uint256,t_address)"
					},
					{
						"astId": 158,
						"contract": "MyNFT.sol:MyNFT",
						"label": "_operatorApprovals",
						"offset": 0,
						"slot": "5",
						"type": "t_mapping(t_address,t_mapping(t_address,t_bool))"
					},
					{
						"astId": 1128,
						"contract": "MyNFT.sol:MyNFT",
						"label": "_ownedTokens",
						"offset": 0,
						"slot": "6",
						"type": "t_mapping(t_address,t_mapping(t_uint256,t_uint256))"
					},
					{
						"astId": 1132,
						"contract": "MyNFT.sol:MyNFT",
						"label": "_ownedTokensIndex",
						"offset": 0,
						"slot": "7",
						"type": "t_mapping(t_uint256,t_uint256)"
					},
					{
						"astId": 1135,
						"contract": "MyNFT.sol:MyNFT",
						"label": "_allTokens",
						"offset": 0,
						"slot": "8",
						"type": "t_array(t_uint256)dyn_storage"
					},
					{
						"astId": 1139,
						"contract": "MyNFT.sol:MyNFT",
						"label": "_allTokensIndex",
						"offset": 0,
						"slot": "9",
						"type": "t_mapping(t_uint256,t_uint256)"
					},
					{
						"astId": 7,
						"contract": "MyNFT.sol:MyNFT",
						"label": "_owner",
						"offset": 0,
						"slot": "10",
						"type": "t_address"
					},
					{
						"astId": 2181,
						"contract": "MyNFT.sol:MyNFT",
						"label": "mintRate",
						"offset": 0,
						"slot": "11",
						"type": "t_uint256"
					},
					{
						"astId": 2184,
						"contract": "MyNFT.sol:MyNFT",
						"label": "Max_Supply",
						"offset": 0,
						"slot": "12",
						"type": "t_uint256"
					},
					{
						"astId": 2187,
						"contract": "MyNFT.sol:MyNFT",
						"label": "_tokenIdCounter",
						"offset": 0,
						"slot": "13",
						"type": "t_struct(Counter)1832_storage"
					}
				],
				"types": {
					"t_address": {
						"encoding": "inplace",
						"label": "address",
						"numberOfBytes": "20"
					},
					"t_array(t_uint256)dyn_storage": {
						"base": "t_uint256",
						"encoding": "dynamic_array",
						"label": "uint256[]",
						"numberOfBytes": "32"
					},
					"t_bool": {
						"encoding": "inplace",
						"label": "bool",
						"numberOfBytes": "1"
					},
					"t_mapping(t_address,t_bool)": {
						"encoding": "mapping",
						"key": "t_address",
						"label": "mapping(address => bool)",
						"numberOfBytes": "32",
						"value": "t_bool"
					},
					"t_mapping(t_address,t_mapping(t_address,t_bool))": {
						"encoding": "mapping",
						"key": "t_address",
						"label": "mapping(address => mapping(address => bool))",
						"numberOfBytes": "32",
						"value": "t_mapping(t_address,t_bool)"
					},
					"t_mapping(t_address,t_mapping(t_uint256,t_uint256))": {
						"encoding": "mapping",
						"key": "t_address",
						"label": "mapping(address => mapping(uint256 => uint256))",
						"numberOfBytes": "32",
						"value": "t_mapping(t_uint256,t_uint256)"
					},
					"t_mapping(t_address,t_uint256)": {
						"encoding": "mapping",
						"key": "t_address",
						"label": "mapping(address => uint256)",
						"numberOfBytes": "32",
						"value": "t_uint256"
					},
					"t_mapping(t_uint256,t_address)": {
						"encoding": "mapping",
						"key": "t_uint256",
						"label": "mapping(uint256 => address)",
						"numberOfBytes": "32",
						"value": "t_address"
					},
					"t_mapping(t_uint256,t_uint256)": {
						"encoding": "mapping",
						"key": "t_uint256",
						"label": "mapping(uint256 => uint256)",
						"numberOfBytes": "32",
						"value": "t_uint256"
					},
					"t_string_storage": {
						"encoding": "bytes",
						"label": "string",
						"numberOfBytes": "32"
					},
					"t_struct(Counter)1832_storage": {
						"encoding": "inplace",
						"label": "struct Counters.Counter",
						"members": [
							{
								"astId": 1831,
								"contract": "MyNFT.sol:MyNFT",
								"label": "_value",
								"offset": 0,
								"slot": "0",
								"type": "t_uint256"
							}
						],
						"numberOfBytes": "32"
					},
					"t_uint256": {
						"encoding": "inplace",
						"label": "uint256",
						"numberOfBytes": "32"
					}
				}
			},
			"userdoc": {
				"kind": "user",
				"methods": {},
				"version": 1
			}
		}
	}
}